:100000000C9454000C9471000C9471000C947100C9
:100010000C9471000C9471000C9471000C9471009C
:100020000C9471000C9471000C9471000C9471008C
:100030000C9471000C9471000C9471000C9471007C
:100040000C9471000C9471000C9471000C9471006C
:100050000C94710007081314141308070010080803
:10006000080810004C696E652032206C6F6E676561
:1000700072207468616E203134206368617261633C
:1000800074657273004C696E652031206C6F6E6709
:100090006572207468616E2031342063686172611A
:1000A00063746572730A000011241FBECFE5D8E0A7
:1000B000DEBFCDBF10E0A0E6B0E0E4EDF4E002C0AA
:1000C00005900D92AA38B107D9F710E0AAE8B0E080
:1000D00001C01D92AA38B107E1F70E947B010C9480
:1000E00069020C940000AB9A00C0AB980895CF93BE
:1000F000DF93662311F0AF9A01C0AF98AD98A09A34
:10010000A29AA49AA69AAE98AC98AA98A89887FDA5
:10011000AE9AC82F86FDAC9AC5FDAA9AC4FDA89ACE
:100120000E947300AE98AC98AA98A898C3FDAE9AA6
:10013000C2FDAC9AC1FDAA9AC0FDA89A0E947300A4
:10014000A89AAA9AAC9AAE9ADF91CF910895882383
:1001500011F0AF9A01C0AF98AD9AA098A298A49858
:10016000A698AB9A00C0989B02C080E101C080E0D5
:100170009A9980629C9980649E998068AB9800C02F
:10018000AB9A00C0989981609A9982609C9984602A
:100190009E998860AB9890E0089580E00E94A70047
:1001A00087FDFBCF82E090E00197F1F780E00E94AD
:1001B000A70090E00895813011F4A99A0895A998B4
:1001C00008951F93182F0E94CD0060E0812F0E9498
:1001D00077001F9108951F93182F0E94CD0061E0B2
:1001E000812F0E9477001F910895662311F4805893
:1001F00001C080540E94E10008950E94CD0090E06B
:10020000089581E00E94E100089582E00E94E100EB
:1002100008951F93182F0E94CD001A3049F480349E
:1002200010F480E401C080E080580E94E10004C026
:1002300061E0812F0E9477001F910895CF93DF9393
:10024000EC0102C00E94090189918823D9F7DF914E
:10025000CF910895CF93DF93EC0102C00E94090172
:10026000FE01219684918823C9F7DF91CF910895EB
:10027000FF920F931F93F82EA79AA59AA39AA09A7C
:10028000A29AA49AA69A80E89EE30197F1F7AA9A07
:10029000A89A0E94730080E893E10197F1F70E9409
:1002A000730000E410E0C8010197F1F70E947300A9
:1002B000C8010197F1F7A8980E947300C80101973F
:1002C000F1F788E20E94E10088E00E94E1000E94CC
:1002D000010186E00E94E1008F2D0E94E1001F9144
:1002E0000F91FF90089593B383B3892380FDFBCFD3
:1002F000989BFECF08952F923F924F925F926F92FC
:100300007F928F929F92AF92BF92CF92DF92EF92A5
:10031000FF920F931F93CF93DF93CDB7DEB727974D
:100320000FB6F894DEBF0FBECDBFA098A89A14BA3E
:100330008FEF85BB81BB8CE00E94380181E00E9479
:10034000DB0051E7252E50E0352E48E7442E40E0F3
:10035000542E35E8632E30E0732E24E6822E20E002
:10036000922E7E010894E11CF11C9EE7A92E90E0DC
:10037000B92E84E5C82E80E0D82E0E94010180E6C7
:1003800090E00E941E01C1010E941E0161E087E011
:100390000E94F5008AE30E9409010E94730180E037
:1003A0000E94DB008EE00E94E100C2010E941E015B
:1003B0000E94730181E00E94DB000E940101C301E1
:1003C0000E942A01C4010E942A0188E10E94E100E2
:1003D0000E94730180E00E94DB008CE00E94E1003B
:1003E0000E9401014AE050E0B70186E890E00E94D7
:1003F0002402C7010E941E010E94730181E00E9435
:10040000DB000E940101C5010E941E0180E40E94E0
:10041000E1008601F80184910E94EB000F5F1F4FFD
:10042000F0E004361F07B1F761E080E00E94F500BC
:1004300080E00E94090181E00E9409010E9473018D
:1004400080E00E94DB0099CFFB019F01E8944230DD
:10045000C4F04532B4F44A3029F497FB1EF4909569
:1004600081959F4F642F77270E945502805D8A33C4
:100470000CF0895D8193CB010097A1F716F45DE242
:1004800051931082C9010C944502DC01FC01672FD5
:1004900071917723E1F7329704C07C916D9370835B
:1004A0006291AE17BF07C8F30895AA1BBB1B51E1A9
:1004B00007C0AA1FBB1FA617B70710F0A61BB70BD4
:1004C000881F991F5A95A9F780959095BC01CD0179
:0404D0000895FFCFBD
:1004D4004C43442054657374204C696E6520310A82
:1004E400004C696E652032004375724F6E00436F95
:0A04F400707972696768743A20009D
:00000001FF
