:100000000C942A000C9447000C9447000C94470071
:100010000C9447000C9447000C9447000C94470044
:100020000C9447000C9447000C9447000C94470034
:100030000C9447000C9498010C9447000C944700D2
:100040000C9447000C9447000C9447000C94470014
:100050000C94470011241FBECFE5D8E0DEBFCDBF12
:1000600010E0A0E6B0E0EEE8F0E102C005900D92ED
:10007000AC3BB107D9F711E0ACEBB0E001C01D9289
:10008000AD35B107E1F70E9449000C9446080C9485
:1000900000008F929F92AF92BF92CF92DF92EF9229
:1000A000FF920F931F93CF93DF930E9488018FEFEE
:1000B00084BB1ABA87BB1BBA88BB85BB06E125E1A6
:1000C00047E163E180E00E94AE0488EE93E00E9485
:1000D00038078AB387608ABB1BBA80E690E09F939B
:1000E0008F930E9405018EE690E09F938F930E946C
:1000F0000501DA9A85E790E09F938F930E940501AE
:10010000D89A8CE790E09F938F930E940501D99A2B
:10011000C0E0D0E08DB79EB708960FB6F8949EBFAA
:100120000FBE8DBF95E8892E90E0992E8AE9A82E02
:1001300080E0B82E40E060E080E00E941C066C0188
:1001400040E060E080E00E941C067C0140E062E04C
:1001500080E00E941C068C0140E062E080E00E948A
:100160001C069F938F931F930F93FF92EF92DF9242
:10017000CF929F928F920E94050141E060E080E063
:100180000E941C066C0141E061E080E00E941C06B8
:100190007C0141E062E080E00E941C068C0141E0AD
:1001A00063E080E00E941C069F938F931F930F9340
:1001B000FF92EF92DF92CF92BF92AF920E94050121
:1001C00021968DB79EB744960FB6F8949EBF0FBE8A
:1001D0008DBF90E1C030D9070CF4ACCFC0E0D0E0C7
:1001E000A9CF5D9BFECF8CB90895FC0103C05D9B38
:1001F000FECF8CB981918823D1F70895FC0181E06D
:1002000080830895FC0110820895EF92FF920F936E
:100210001F93CF93DF93CDB7DEB7A2970FB6F894B5
:10022000DEBF0FBECDBFFE01BB9681919191FA83D7
:10023000E9838C0183E0E82EF12CEC0EFD1E56C004
:10024000853219F05D9BFECF4EC00F5F1F4FF80146
:1002500080818936E1F08A3630F4833671F1843654
:1002600009F03FC014C0853729F08837C1F08337C3
:10027000C1F52DC0E981FA813296FA83E9834AE01B
:1002800050E0B701929182910E940C0814C0E9815C
:10029000FA813296FA83E9834AE050E007C0E981A7
:1002A000FA813296FA83E98340E150E0B7019291F6
:1002B00082910E94EB07C70111C0E981FA81329651
:1002C000FA83E983929182915D9BFECF0CC0E98114
:1002D000FA813296FA83E983929182910E94F50025
:1002E00003C05D9BFECF8CB90F5F1F4FF80180816B
:1002F000882309F0A5CFA2960FB6F894DEBF0FBEF3
:10030000CDBFDF91CF911F910F91FF90EF90089596
:1003100010BC87E689B988E18AB986E880BD109269
:10032000E2001092E3001092E400579A7894089546
:100330001F920F920FB60F9211242F938F939F93BA
:10034000EF93FF932CB18091E2009CB1E82FF0E095
:10035000EE53FF4F90838F5F8093E2002A3019F4B1
:1003600081E08093E3001092E400FF91EF919F9170
:100370008F912F910F900FBE0F901F901895FF92A5
:100380000F931F93CF93DF93F62EB22F242F2F704E
:1003900061E070E0FB0102C0EE0FFF1F2A95E2F75B
:1003A0009F015E2FC82FD0E0FE01E75FFE4F208344
:1003B0008B2F8F709B0102C0220F331F8A95E2F7AB
:1003C000C901322FFE01E350FF4F80838F2D8F70C4
:1003D000FB0102C0EE0FFF1F8A95E2F7CF011E2F2F
:1003E000FE01E750FF4F8083802F8F7002C0660FA1
:1003F000771F8A95E2F7A62FFE01EB50FF4F60832F
:10040000407F69F4FE01EE0FFF1FE35FFE4F8BE3B9
:1004100090E0918380838AB3582B5ABB2CC0403123
:1004200069F4FE01EE0FFF1FE35FFE4F88E390E0EB
:100430009183808387B3582B57BB1DC0403269F42A
:10044000FE01EE0FFF1FE35FFE4F85E390E0918317
:10045000808384B3582B54BB0EC0403361F4FE013B
:10046000EE0FFF1FE35FFE4F82E390E091838083F6
:1004700081B3582B51BB2B2F207F69F4FE01EE0F67
:10048000FF1FEB51FF4F8BE390E0918380838AB392
:10049000382B3ABB2CC0203169F4FE01EE0FFF1F50
:1004A000EB51FF4F88E390E09183808387B3382B33
:1004B00037BB1DC0203269F4FE01EE0FFF1FEB5168
:1004C000FF4F85E390E09183808384B3382B34BB66
:1004D0000EC0203361F4FE01EE0FFF1FEB51FF4F02
:1004E00082E390E09183808381B3382B31BB6F2D01
:1004F000607F69F4FE01EE0FFF1FE351FF4F8BE3B6
:1005000090E0918380838AB3812B8ABB2CC06031B9
:1005100069F4FE01EE0FFF1FE351FF4F88E390E007
:100520009183808387B3812B87BB1DC0603269F4C0
:10053000FE01EE0FFF1FE351FF4F85E390E0918333
:10054000808384B3812B84BB0EC0603361F4FE01D1
:10055000EE0FFF1FE351FF4F82E390E09183808312
:1005600081B3812B81BB007F69F4FE01EE0FFF1F79
:10057000EF5FFE4F8BE390E0918380838AB3A82BDB
:10058000AABB2CC0003169F4FE01EE0FFF1FEF5F24
:10059000FE4F88E390E09183808387B3A82BA7BBAD
:1005A0001DC0003269F4FE01EE0FFF1FEF5FFE4F2A
:1005B00085E390E09183808384B3A82BA4BB0EC015
:1005C000003361F4FE01EE0FFF1FEF5FFE4F82E389
:1005D00090E09183808381B3A82BA1BBDE01AA0F99
:1005E000BB1FFD01E351FF4F0190F081E02D8081A1
:1005F000182B1083FD01E35FFE4F20813181F9014B
:100600009081FE01E75FFE4F808180958923F9018B
:100610008083AF5FBE4FED91FC918081CB50DF4F67
:100620009881892B8083DF91CF911F910F91FF904B
:1006300008951F93CF93DF93A42F462F4F7021E08F
:1006400030E0F90102C0EE0FFF1F4A95E2F7AF015B
:100650001E2F9A2F9F7002C0220F331F9A95E2F728
:10066000722FC82FD0E0FE01E750FF4F4083FE01FC
:10067000EB50FF4F2083607F69F4FE01EE0FFF1FF8
:10068000E351FF4F8BE390E0918380838AB3842B07
:100690008ABB2CC0603169F4FE01EE0FFF1FE351ED
:1006A000FF4F88E390E09183808387B3842B87BBDF
:1006B0001DC0603269F4FE01EE0FFF1FE351FF4FD2
:1006C00085E390E09183808384B3842B84BB0EC048
:1006D000603361F4FE01EE0FFF1FE351FF4F82E331
:1006E00090E09183808381B3842B81BB4A2F407F2C
:1006F00069F4FE01EE0FFF1FEF5FFE4F8BE390E00A
:10070000918380838AB3782B7ABB2CC0403169F403
:10071000FE01EE0FFF1FEF5FFE4F88E390E0918335
:10072000808387B3782B77BB1DC0403269F4FE010C
:10073000EE0FFF1FEF5FFE4F85E390E09183808314
:1007400084B3782B74BB0EC0403361F4FE01EE0F0E
:10075000FF1FEF5FFE4F82E390E09183808381B3C0
:10076000782B71BB80E58DB981E08EB9DE01AA0FCF
:10077000BB1FFD01E351FF4F0190F081E02D80810F
:10078000182B1083AF5FBE4FED91FC918081CB5051
:10079000DF4F9881892B8083DF91CF911F9108953E
:1007A000CF92DF92EF92FF920F931F93CF93DF933D
:1007B000282FEB01CB018070907F892B21F4D0672B
:1007C000442309F4D068822F90E0FC01EE0FFF1F54
:1007D000DF01A351BF4F0D911C91EF5FFE4FE080F1
:1007E000F180FC01E750FF4FD0808B509F4FFC0100
:1007F000C0801F930F9383EB90E09F938F930E9491
:100800000501F80190818D2D8095892380838D2F9E
:10081000992787FD9A958FB90F900F900F900F90A1
:10082000779BFECFCFB9779BFECFF80180818D29D2
:100830008083F70190818C2D80958923808382E0CD
:1008400090E00E942707F70180818C298083DF9147
:10085000CF911F910F91FF90EF90DF90CF9008956F
:10086000CF92DF92EF92FF920F931F93CF93DF937C
:10087000282FCB018070907F892B21F4706744234F
:1008800009F47068822F90E0DC01AA0FBB1FFD0104
:10089000E35FFE4F20813181FD01EB51FF4FC081AD
:1008A000D181FD01E351FF4F00811181AF5FBE4F48
:1008B000ED90FC90FC01E75FFE4F4081FC01E350AE
:1008C000FF4FB081FC01E750FF4FC0808B509F4F1E
:1008D000FC01D080F80190818C2D80958923808344
:1008E00088815B2F50958523888390E0A42FA09565
:1008F000F90180818A23808377FF03C088818B2B55
:1009000002C0888185238883F9018081842B8083BC
:100910009F5F903119F0660F771FEACFF901808150
:10092000409548234083F80180818C298083F7011A
:1009300090818D2D80958923808382E090E00E94B4
:100940002707F70180818D298083DF91CF911F9147
:100950000F91FF90EF90DF90CF900895FF920F934B
:100960001F93CF93DF93F62EB22F242F2F7061E0C9
:1009700070E0FB0102C0EE0FFF1F2A95E2F79F0116
:100980005E2FC82FD0E0FE01E75FFE4F20838B2F44
:100990008F709B0102C0220F331F8A95E2F7C901B5
:1009A000322FFE01EF5DFE4F80838F2D8F70FB0194
:1009B00002C0EE0FFF1F8A95E2F7CF011E2FFE0146
:1009C000E750FF4F8083802F8F7002C0660F771F24
:1009D0008A95E2F7A62FFE01EB5EFE4F6083407F13
:1009E00069F4FE01EE0FFF1FE35FFE4F8BE390E023
:1009F000918380838AB3582B5ABB2CC0403169F451
:100A0000FE01EE0FFF1FE35FFE4F88E390E091834E
:100A1000808387B3582B57BB1DC0403269F4FE0159
:100A2000EE0FFF1FE35FFE4F85E390E0918380832D
:100A300084B3582B54BB0EC0403361F4FE01EE0F5B
:100A4000FF1FE35FFE4F82E390E09183808381B3D9
:100A5000582B51BB2B2F207F91F4FE01EE0FFF1F6F
:100A6000E75EFE4F89E390E0918380839AB3832F02
:100A7000809589238ABB8BB3382B3BBB3BC020318D
:100A800091F4FE01EE0FFF1FE75EFE4F86E390E05C
:100A90009183808397B3832F8095892387BB88B305
:100AA000382B38BB27C0203291F4FE01EE0FFF1F18
:100AB000E75EFE4F83E390E09183808394B3832FBE
:100AC0008095892384BB85B3382B35BB13C0203375
:100AD00089F4FE01EE0FFF1FE75EFE4F80E390E01A
:100AE0009183808391B3832F8095892381BB82B3C7
:100AF000382B32BB007F69F4FE01EE0FFF1FEB5D68
:100B0000FE4F8BE390E0918380838AB3A82BAABB2E
:100B10002CC0003169F4FE01EE0FFF1FEB5DFE4FAC
:100B200088E390E09183808387B3A82BA7BB1DC087
:100B3000003269F4FE01EE0FFF1FEB5DFE4F85E30F
:100B400090E09183808384B3A82BA4BB0EC00033B4
:100B500061F4FE01EE0FFF1FEB5DFE4F82E390E0BC
:100B60009183808381B3A82BA1BB6F2D607F69F433
:100B7000FE01EE0FFF1FE351FF4F8BE390E09183E7
:100B800080838AB3812B8ABB2CC0603169F4FE015B
:100B9000EE0FFF1FE351FF4F88E390E091838083C6
:100BA00087B3812B87BB1DC0603269F4FE01EE0F55
:100BB000FF1FE351FF4F85E390E09183808384B36F
:100BC000812B84BB0EC0603361F4FE01EE0FFF1F6A
:100BD000E351FF4F82E390E09183808381B3812BC7
:100BE00081BBDE01AA0FBB1FFD01E351FF4F019046
:100BF000F081E02D8081182B1083FD01E35FFE4F13
:100C000020813181F9019081FE01E75FFE4F8081F3
:100C100080958923F9018083AB5DBE4FED91FC91F6
:100C20008081CB5EDE4F9881892B8083DF91CF91CD
:100C30001F910F91FF9008954F925F926F927F9254
:100C40008F929F92AF92BF92CF92DF92EF92FF92DC
:100C50000F931F93CF93DF93D62E142F90E0DC01D8
:100C6000AA0FBB1FFD01E35FFE4FC081D181FD01D3
:100C7000E75EFE4F60807180FD01EB5DFE4FE0801E
:100C8000F180A351BF4F8D909C90FC01E75FFE4F18
:100C9000A080FC01EF5DFE4F4080FC01EB5EFE4F4B
:100CA000008187509F4FFC015080F7018081802B8D
:100CB00080838881BA2CB0948B218883F401908141
:100CC000852D80958923808384E190E00E94270709
:100CD00088818A29888384E690E00E94270788819A
:100CE0008B21888384E690E00E942707112321F05E
:100CF000F7018081802B05C0F7019081802F8095BE
:100D00008923808388818A29888384E690E00E94F1
:100D1000270788818B21888384E690E00E9427073B
:100D2000CD2CD2FE04C0F7018081802B05C0F701D5
:100D30009081802F80958923808388818A29888368
:100D400084E690E00E94270788818B21888384E6CF
:100D500090E00E942707C1FE04C0F7018081802B2C
:100D600005C0F7019081802F809589238083888139
:100D70008A29888384E690E00E94270788818B2156
:100D8000888384E690E00E942707C0FE05C0F70133
:100D90008081802B808305C0F70180810095082326
:100DA000008388818A29888384E690E00E9427074F
:100DB00088818B21888384E690E00E9427078881C0
:100DC0008A29888384E690E00E94270788818B2106
:100DD000888384E690E00E942707FF2400E010E06B
:100DE00088818A29888384E690E00E942707888189
:100DF0008B21888384E690E00E942707000F111F53
:100E0000F3018081842111F00F5F1F4FF394FDE007
:100E1000FF1631F7F40180818529808384E690E014
:100E20000E94270716950795C8019F70DF91CF9103
:100E30001F910F91FF90EF90DF90CF90BF90AF90F8
:100E40009F908F907F906F905F904F900895A0E05B
:100E5000B0E022E0880F991FAA1FBB1F2A95D1F787
:100E6000FC01892B11F400C008953197F1F7089522
:100E70000F931F93CF93DF938C01C0E0D0E005C0A8
:100E800088EE93E00E9427072196C017D107C1F78B
:100E9000DF91CF911F910F9108950F931F93CF93DF
:100EA000DF938C01C0E0D0E005C088EE93E00E94A3
:100EB00038072196C017D107C1F7DF91CF911F9155
:100EC0000F910895A82FB0E0FD01E35BFE4F262FA0
:100ED000277081E090E002C0880F991F2A95E2F701
:100EE0008083607F39F4AA0FBB1FA35DBE4F8BE3E5
:100EF00090E011C0603139F4AA0FBB1FA35DBE4F53
:100F000088E390E008C0603249F4AA0FBB1FA35DDC
:100F1000BE4F85E390E08D939C930895603341F438
:100F2000AA0FBB1FA35DBE4F82E390E08D939C93FD
:100F30000895482F407FADE2B1E020E030E0F901B4
:100F4000E35BFE4F81E090E0022E02C0880F991F04
:100F50000A94E2F78083442319F48BE390E00EC0F7
:100F6000403119F488E390E009C0403219F485E378
:100F700090E004C0403329F482E390E011969C9302
:100F80008E932F5F3F4F129628303105C1F608959A
:100F9000A82FB0E0FD01EE0FFF1FE35DFE4F0190B3
:100FA000F081E02DA35BBE4F80819C91892B8083D3
:100FB0000895A82FB0E0FD01EE0FFF1FE35DFE4F87
:100FC0000190F081E02DA35BBE4F9C9190958081B4
:100FD000892380830895FB019F01E8944230C4F087
:100FE0004532B4F44A3029F497FB1EF4909581956C
:100FF0009F4F642F77270E943208805D8A330CF060
:10100000895D8193CB010097A1F716F45DE25193BE
:101010001082C9010C942208FB019F01423074F038
:10102000453264F4642F77270E943208805D8A334A
:101030000CF0895D8193CB010097A1F71082C90163
:101040000C942208DC01FC01672F71917723E1F7F2
:10105000329704C07C916D9370836291AE17BF0785
:10106000C8F30895AA1BBB1B51E107C0AA1FBB1FF1
:10107000A617B70710F0A61BB70B881F991F5A9524
:0E108000A9F780959095BC01CD010895FFCF92
:10108E000D0A626F6F74696E672E2E0D0A002B3279
:10109E0032300D0A0048566F6E0D0A0048566675BE
:1010AE006C6C0D0A0064693A2578202C2025782076
:1010BE002C202578202C20257800092073653A25D0
:1010CE0078202C202578202C202578202C2025787F
:0C10DE000D0A00706373313A25780A0097
:00000001FF
