:100000000C942A000C9447000C9447000C94470071
:100010000C9447000C9447000C9447000C94470044
:100020000C9447000C9447000C9447000C94470034
:100030000C9447000C9447000C9447000C94470024
:100040000C9447000C9447000C9447000C94470014
:100050000C94470011241FBECFE5D8E0DEBFCDBF12
:1000600010E0A0E6B0E0E2EFF2E002C005900D92F1
:10007000A837B107D9F710E0A8E7B0E001C01D929A
:10008000A837B107E1F70E9452010C9478010C9453
:100090000000D89A00C0D8980895CF93DF936623C4
:1000A00011F0D99A01C0D998DA98D49AD59AD69AEB
:1000B000D79ADF98DE98DD98DC9887FDDF9AC82F05
:1000C000DD27C6FDDE9AC5FDDD9AC4FDDC9A0E94DF
:1000D0004900DF98DE98DD98DC98C3FDDF9AC2FD09
:1000E000DE9AC1FDDD9AC0FDDC9A0E944900DC9ACF
:1000F000DD9ADE9ADF9ADF91CF910895882311F07F
:10010000D99A01C0D998DA9AD498D598D698D79820
:10011000D89A00C0CC9B02C080E101C080E0CD999C
:100120008062CE998064CF998068D89800C0D89AB0
:1001300000C0CC998160CD998260CE998460CF99BE
:100140008860D8989927089580E00E947E0087FDF6
:10015000FBCF82E090E00197F1F780E00E947E0003
:1001600099270895813011F4DB9A0895DB9808955A
:100170001F93182F0E94A40060E0812F0E944D0061
:100180001F9108951F93182F0E94A40061E0812FF2
:100190000E944D001F910895662311F4805801C0FC
:1001A00080540E94B80008950E94A40099270895E1
:1001B00081E00E94B800089582E00E94B80008958E
:1001C0001F93182F0E94A4001A3049F4803410F4B1
:1001D00080E401C080E080580E94B80004C061E063
:1001E000812F0E944D001F910895CF93DF93EC0162
:1001F00002C00E94E00089918823D9F7DF91CF9156
:100200000895CF93DF93EC0102C00E94E000FE014D
:10021000219684918823C9F7DF91CF910895FF92A9
:100220000F931F93F82ED19AD29AD09AD49AD59A36
:10023000D69AD79A80E89EE30197F1F7DD9ADC9A87
:100240000E94490080E893E10197F1F70E9449007C
:1002500000E410E0C8010197F1F70E944900C801CD
:100260000197F1F7DC980E944900C8010197F1F766
:1002700088E20E94B80088E00E94B8000E94D8007E
:1002800086E00E94B8008F2D0E94B8001F910F9148
:10029000FF90089590B380B3892382FDFBCF829BAA
:1002A000FECF0895CFE5D8E0DEBFCDBF8A98929A01
:1002B00011BA8FEF82BB84BB8BE285BB8CE00E94BE
:1002C0000F0181E00E94B2000E94D80080E690E019
:1002D0000E94F50081E790E00E94F50061E087E070
:1002E0000E94CC008AE30E94E0000E944A01FFCFF6
:0202F000FFCF3E
:1002F2004C43442054657374204C696E6520310A66
:08030200004C696E6520320019
:00000001FF
