:100000000C942A000C9447000C9447000C94470071
:100010000C9447000C9447000C9447000C94470044
:100020000C9447000C9447000C9447000C94470034
:100030000C9447000C94FD040C9447000C9447006A
:100040000C9447000C9447000C9447000C94470014
:100050000C94470011241FBECFE5D8E0DEBFCDBF12
:1000600010E0A0E6B0E0E8E7FCE002C005900D92E9
:10007000AA39B107D9F710E0AAE9B0E001C01D9292
:10008000A03CB107E1F70E9449010C943A060C9498
:100090000000DF93CF93CDB7DEB72E970FB6F8945D
:1000A000DEBF0FBECDBF9C878B877E876D871F828B
:1000B000188619861A8681E090E0A0E0B0E08B8374
:1000C0009C83AD83BE8380E090E0A0E0B0E88B83AA
:1000D0009C83AD83BE831A82198252C089819A8122
:1000E0009C01220F331F8B859C85FC01E20FF31FBF
:1000F000808191818130910571F089819A819C0183
:10010000220F331F8B859C85FC01E20FF31F80813A
:100110009181009761F48B819C81AD81BE81B69500
:10012000A795979587958B839C83AD83BE838981A3
:100130009A819C01220F331F8B859C85FC01E20F65
:10014000F31F808191818130910581F48F819885A1
:10015000A985BA852B813C814D815E81822B932BB1
:10016000A42BB52B8F839887A987BA8789819A8119
:10017000813291056CF489819A8101969A838983F1
:1001800029813A818D859E85281739070CF4A6CFE1
:100190008F819885A985BA85880F991FAA1FBB1FD3
:1001A0008F839887A987BA878F819885A985BA8513
:1001B000BC01CD012E960FB6F894DEBF0FBECDBFA9
:1001C000CF91DF910895DF93CF93CDB7DEB72A9714
:1001D0000FB6F894DEBF0FBECDBF6B837C838D83DB
:1001E0009E8358874F831A8219828F8198859A87B8
:1001F000898789859A8581309105D9F089859A8585
:10020000823091052CF489859A85009761F036C07B
:1002100089859A8582309105D1F089859A858330C8
:10022000910511F12BC08B819C8190709A838983F9
:1002300025C08B819C81AD81BE81892F9A2FAB2FE8
:10024000BB27A7FDBA9590709A83898317C08B81CD
:100250009C81AD81BE81CD01BB2797FDB095AB2FB1
:1002600090709A8389830AC08B819C81AD81BE8105
:100270008B2F9927AA27BB279A83898389819A8103
:100280002A960FB6F894DEBF0FBECDBFCF91DF9197
:100290000895DF93CF93CDB7DEB7CA51D2400FB6E2
:1002A000F894DEBF0FBECDBF1A8E198E0E94440394
:1002B00000D000D0EDB7FEB7319680E690E0918394
:1002C0008083898D9A8D938382830E94A6030F90E9
:1002D0000F900F900F90A1E3B0E0E1E3F0E0808198
:1002E0008B7F8C93A2E3B0E0E2E3F0E080818B7F30
:1002F0008C93789410929B001D8A1E8A1F8A188EF8
:100300001E861D8610929A001A8619861C861B86E8
:1003100084E090E0A1E0B0E08D8B9E8BAF8BB88F36
:100320008D899E89AF89B88DBC01CD0140E050E038
:100330000E94E30098878F838D899E89AF89B88D4D
:10034000BC01CD0141E050E00E94E3009C838B831F
:100350008D899E89AF89B88DBC01CD0142E050E006
:100360000E94E3009E838D838D899E89AF89B88D1D
:10037000BC01CD0143E050E00E94E3009A838983F1
:100380008DB79EB70A970FB6F8949EBF0FBE8DBF6C
:10039000EDB7FEB7319689E690E0918380838F8137
:1003A0009885938382838B819C81958384838D81BF
:1003B0009E819783868389819A81918780870E9415
:1003C000A6038DB79EB70A960FB6F8949EBF0FBED0
:1003D0008DBF14C08D899E89AF89B88D0196A11DEE
:1003E000B11D8D8B9E8BAF8BB88FE0E3F0E08081E9
:1003F000882F90E0847090709C878B872B853C853C
:1004000089859A852817390781F48D899E89AF8956
:10041000B88D8F3F2FEF920720E0A20720E0B207B0
:1004200024F48091BD008823A9F28B859C859A874E
:1004300089878D899E89AF89B88D8F3F2FEF92076D
:1004400020E0A20720E0B2070CF49FC01D8A1E8A9C
:100450001F8A188E8D859E85181619067CF6188AB7
:100460001F8623C08F8598899C01220F331FCE01E0
:100470000196820F931FFC017A962081318100D072
:1004800000D0EDB7FEB731968EE790E09183808380
:10049000338322830E94A6030F900F900F900F903A
:1004A0008F8598890196988B8F872F8538898D85C0
:1004B0009E8528173907B4F2CE014B962D853E85CF
:1004C000B9010E944900DC01CB01898B9A8BAB8B6F
:1004D000BC8B89899A89AB89BC89BC01CD0140E07C
:1004E00050E00E94E30098878F8389899A89AB89BD
:1004F000BC89BC01CD0141E050E00E94E3009C8337
:100500008B8389899A89AB89BC89BC01CD0142E082
:1005100050E00E94E3009E838D8389899A89AB898C
:10052000BC89BC01CD0143E050E00E94E3009A8306
:1005300089838DB79EB70A970FB6F8949EBF0FBEFA
:100540008DBFEDB7FEB7319681E890E0918380834F
:1005500089819A81938382838D819E81958384830F
:100560008B819C81978386838F81988591878087F3
:100570000E94A6038DB79EB70A960FB6F8949EBF49
:100580000FBE8DBF1E861D8639CF89859A85843022
:10059000910509F433CF10929B008091BD00882310
:1005A00071F000D0EDB7FEB7319684E990E0918309
:1005B00080830E94A6030F900F901092BD008D893A
:1005C0009E89AF89B88D8D3221E0920720E0A20785
:1005D00020E0B20774F48D859E859C01220F331FA5
:1005E000CE010196820F931FFC017A961182108230
:1005F00037C08D899E89AF89B88D893522E09207F1
:1006000020E0A20720E0B20784F48D859E859C013E
:10061000220F331FCE010196820F931FFC017A96A1
:1006200081E090E0918380831BC08D859E85823020
:100630009105B4F08D859E8501979C01220F331F93
:10064000CE010196820F931FFC017A9680819181E1
:100650008230910529F48D859E8501979E878D872F
:100660008D859E8501969E878D878D859E85813897
:1006700091052CF01E861D868AE20E9468031D8A61
:100680001E8A1F8A188EBACEDF93CF93CDB7DEB7FE
:10069000E0E4F0E01082E9E2F0E087E68083EAE25D
:1006A000F0E088E18083E0E4F0E086E88083109267
:1006B000BC001092BD001092BE00AAE2B0E0EAE2D7
:1006C000F0E0808180688C937894CF91DF910895D9
:1006D000DF93CF930F92CDB7DEB78983EBE2F0E0E3
:1006E0008081882F90E0807290700097B9F3ECE2DF
:1006F000F0E0898180830F90CF91DF910895DF939F
:10070000CF9300D000D0CDB7DEB79A83898303C0E2
:100710008B810E946803E981FA8180818B838B81C0
:100720008C838C81882311F081E08C838C812981DA
:100730003A812F5F3F4F3A832983882349F70F90EF
:100740000F900F900F90CF91DF910895DF93CF938B
:10075000CDB7DEB7E8970FB6F894DEBF0FBECDBFBA
:10076000CE01CF969E8B8D8B8DAD9EAD9C8B8B8B52
:1007700035C1EB89FC898081853231F0EB89FC89B8
:1007800080810E94680325C18B899C8901969C8B7E
:100790008B8BEB89FC898081282F30E038AF2FAB21
:1007A0008FA998AD8936910509F441C02FA938ADBC
:1007B0002A363105F4F48FA998AD8535910509F4F1
:1007C0006AC02FA938AD263531053CF48FA998AD04
:1007D0008C34910509F4A2C0F7C02FA938AD233697
:1007E000310509F4DFC08FA998AD84369105F9F081
:1007F000EBC02FA938AD2337310509F4D5C08FA937
:1008000098AD843791053CF42FA938AD2C363105CD
:1008100009F462C0D9C08FA998AD8537910509F157
:100820002FA938AD2837310509F4A2C0CDC02D89D4
:100830003E89C90102969E8B8D8BF9018081918141
:10084000988B8F878F8598899E01295E3F4FB901CC
:100850004AE050E00E946405CE0147960E947F0363
:10086000B8C02D893E89C90102969E8B8D8BF901F6
:10087000808191819A83898389819A819E01295EF1
:100880003F4FB9014AE050E00E94DE05CE01479695
:100890000E947F039EC02D893E89C90104969E8BCC
:1008A0008D8BF90180819181A281B3819A838983A3
:1008B00089819A81CC01A0E0B0E09E01295E3F4F82
:1008C000BC01CD01A9012AE030E00E94B905CE01AA
:1008D00047960E947F037DC02D893E89C9010496F9
:1008E0009E8B8D8BF90180819181A281B3818B8751
:1008F0009C87AD87BE878B859C85AD85BE859E0117
:10090000295E3F4FBC01CD01A9012AE030E00E94E1
:100910008505CE0147960E947F035BC02D893E89E5
:10092000C90108969E8B8D8BF90180818B83818113
:100930008C8382818D8383818E8384818F83858163
:1009400088878681898787818A878B819C81AD8111
:10095000BE819E01295E3F4FBC01CD01A9012AE065
:1009600030E00E948505CE0147960E947F0331C08A
:100970002D893E89C90102969E8B8D8BF90180815C
:100980009181988B8F878F8598899E01295E3F4F33
:10099000B90140E150E00E946405CE0147960E94F3
:1009A0007F0317C00E945F052D893E89C901029609
:1009B0009E8B8D8BF901808191819A8B898B89899E
:1009C0009A890E947F0305C0EB89FC8980810E947F
:1009D00068038B899C8901969C8B8B8BEB89FC89A6
:1009E0008081882309F0C5CEE8960FB6F894DEBF63
:1009F0000FBECDBFCF91DF9108951F920F920FB61A
:100A00000F9211242F933F934F935F936F937F9394
:100A10008F939F93AF93BF93EF93FF93DF93CF9306
:100A20000F92CDB7DEB7ECE2F0E080818983809150
:100A3000BE00882F90E0FC01E456FF4F898180833F
:100A40008091BC008F5F8093BC008091BE008F5F5F
:100A50008093BE008091BE00813210F01092BE00E3
:100A600089818D3019F089818A3019F481E0809371
:100A7000BD0089810E9468030F90CF91DF91FF91A3
:100A8000EF91BF91AF919F918F917F916F915F9106
:100A90004F913F912F910F900FBE0F901F9018957F
:100AA000DF93CF93CDB7DEB7EBE2F0E08081882310
:100AB000DCF7ECE2F0E08081CF91DF91089581E0F6
:100AC00090E0F8940C943A06FB019F01E8944230C0
:100AD000C4F04532B4F44A3029F497FB1EF49095E3
:100AE00081959F4F642F77270E940406805D8A338B
:100AF0000CF0895D8193CB010097A1F716F45DE2BC
:100B000051931082C9010C94F405FA01CF93FF931D
:100B1000EF93223044F1253234F5C22FE894CA30E5
:100B200049F497FB3EF490958095709561957F4FC1
:100B30008F4F9F4F2C2F332744275527FF93EF9339
:100B40000E941806EF91FF91605D6A330CF0695DB9
:100B50006193B901CA01605070408040904051F7E4
:100B600016F4CDE2C19310828F919F91CF910C9496
:100B7000F405FA01CF93FF93EF932230CCF02532A6
:100B8000BCF4C22F2C2F332744275527FF93EF9314
:100B90000E941806EF91FF91605D6A330CF0695D69
:100BA0006193B901CA01605070408040904051F794
:100BB00010828F919F91CF910C94F405FB019F01BE
:100BC000423074F0453264F4642F77270E940406A3
:100BD000805D8A330CF0895D8193CB010097A1F78A
:100BE0001082C9010C94F405DC01FC01672F71919E
:100BF0007723E1F7329704C07C916D937083629103
:100C0000AE17BF07C8F30895AA1BBB1B51E107C06D
:100C1000AA1FBB1FA617B70710F0A61BB70B881F8C
:100C2000991F5A95A9F780959095BC01CD0108951B
:100C3000A1E21A2EAA1BBB1BFD010DC0AA1FBB1FE0
:100C4000EE1FFF1FA217B307E407F50720F0A21B52
:100C5000B30BE40BF50B661F771F881F991F1A94BF
:100C600069F760957095809590959B01AC01BD01E9
:080C7000CF010895F894FFCFB5
:100C78007265763A25640D0A00676F743A20256418
:100C880020202564202564202564200D0A00256481
:100C980000233A202564202025642025642025642B
:0A0CA800200D0A000D0A0D0A0000DD
:00000001FF
