:100000000C94D0000C94ED000C94ED000C94ED00D9
:100010000C94ED000C94ED000C94ED000C94ED00AC
:100020000C94ED000C94ED000C94ED000C94ED009C
:100030000C94ED000C94EC020C94ED000C94ED008B
:100040000C94ED000C94ED000C94ED000C94ED007C
:100050000C94ED00740378037C038003840388030D
:100060008C039003940398039C03A003A403A803A8
:10007000AC03B0032A434C53002A455345002A459C
:1000800053453F002A49444E002A4F5043002A4F0F
:1000900050433F002A525354002A535245002A53DA
:1000A00052453F002A535442002A5453543F002AD9
:1000B00057414900564F4C546167653F00564F4CBD
:1000C000546167650043555252656E743F00435555
:1000D0005252656E740053574565703A53544172DD
:1000E000743F0053574565703A535441727400533E
:1000F000574565503A53544F503F0053574565702C
:100100003A53544F500053574565703A5354455035
:100110003F0053574565703A535445500053574577
:1001200065703A54494D453F0053574565703A5400
:10013000494D450053574565703A474F004F555458
:1001400050757400494E535472756D656E743A4E15
:1001500053454C3F00494E535472756D656E743A69
:100160004E53454C00740079007E00840089008E57
:1001700000940099009E00A400A900AF00B400BD47
:1001800000C500CE00D600E300EF00FB0006011220
:10019000011D01290134013D014401550100000008
:1001A00011241FBECFE5D8E0DEBFCDBF11E0A0E631
:1001B000B0E0E0E2FAE102C005900D92A832B1078A
:1001C000D9F712E0A8E2B1E001C01D92A435B10751
:1001D000E1F70E941C080C940F0D0C940000AB9AE0
:1001E00000C0AB980895CF93DF93662311F0AF9AC8
:1001F00001C0AF98AD98A09AA29AA49AA69AAE9878
:10020000AC98AA98A89887FDAE9AC82F86FDAC9A9C
:10021000C5FDAA9AC4FDA89A0E94EF00AE98AC98BA
:10022000AA98A898C3FDAE9AC2FDAC9AC1FDAA9A3D
:10023000C0FDA89A0E94EF00A89AAA9AAC9AAE9A1A
:10024000DF91CF910895882311F0AF9A01C0AF9844
:10025000AD9AA098A298A498A698AB9A00C0989B33
:1002600002C080E101C080E09A9980629C9980641C
:100270009E998068AB9800C0AB9A00C09899816045
:100280009A9982609C9984609E998860AB9890E06E
:10029000089580E00E94230187FDFBCF82E090E07B
:1002A0000197F1F780E00E94230190E008958130EA
:1002B00011F4A99A0895A99808951F93182F0E94E0
:1002C000490160E0812F0E94F3001F9108951F9360
:1002D000182F0E94490161E0812F0E94F3001F91B5
:1002E0000895662311F4805809C0613011F48054D8
:1002F00005C0623011F48C5601C08C520E945D0121
:1003000008950E94490190E0089581E00E945D01F6
:10031000089582E00E945D0108951F93182F0E94A6
:100320004901982F1A3099F4843110F480E40BC0FD
:100330008054843110F484E106C094519C3210F44E
:1003400084E501C080E080580E945D0104C061E046
:10035000812F0E94F3001F910895CF93DF93EC014A
:1003600002C00E948D0189918823D9F7DF91CF9136
:100370000895CF93DF93EC0102C00E948D01FE012E
:10038000219684918823C9F7DF91CF910895A2E245
:10039000B0E0EDECF1E00C94940CFE01BB96819181
:1003A0009191FA83E9838C0183E0E82EF12CEC0E25
:1003B000FD1E44C08532F1F50F5F1F4FF8018081AB
:1003C0008936C1F08A3628F4833611F1843691F5E6
:1003D00011C0833729F1853769F5E981FA813296B1
:1003E000FA83E9834AE050E0B701929182910E943A
:1003F000280C0CC0E981FA813296FA83E9834AE03D
:1004000050E0B701929182910E94D30BC7010FC0B7
:10041000E981FA813296FA83E983329780810AC0B2
:10042000E981FA813296FA83E983929182910E945E
:10043000AD0102C00E948D010F5F1F4FF801808146
:10044000882309F0B7CFE6E0A2960C94B00CFF9297
:100450000F931F93F82EA79AA59AA39AA09AA29AEF
:10046000A49AA69A80E89EE30197F1F7AA9AA89A1F
:100470000E94EF0080E893E10197F1F70E94EF00FE
:1004800000E410E0C8010197F1F70E94EF00C801F5
:100490000197F1F7A8980E94EF00C8010197F1F7C2
:1004A00088E20E945D0188E00E945D010E94850152
:1004B00086E00E945D018F2D0E945D011F910F91CA
:1004C000FF9008955D9BFECF8CB90895FC0103C099
:1004D0005D9BFECF8CB981918823D1F70895FC01F3
:1004E00081E080830895FC0110820895A2E2B0E0CB
:1004F000ECE7F2E00C94940CFE01BB968191919193
:10050000FA83E9838C0183E0E82EF12CEC0EFD1ECA
:100510004AC0853219F05D9BFECF42C00F5F1F4F6E
:10052000F80180818936C1F08A3628F4833611F1CA
:100530008436A1F511C0833739F1853779F5E98122
:10054000FA813296FA83E9834AE050E0B70192914A
:1005500082910E94280C0CC0E981FA813296FA83BC
:10056000E9834AE050E0B701929182910E94D30B57
:10057000C70111C0E981FA813296FA83E983929129
:1005800082915D9BFECF0CC0E981FA813296FA839D
:10059000E983929182910E94660203C05D9BFECF27
:1005A0008CB90F5F1F4FF8018081882309F0B1CF0C
:1005B000E6E0A2960C94B00C10BC83E389B988E104
:1005C0008AB986E880BD10925201109253011092B0
:1005D0005401579A789408951F920F920FB60F9274
:1005E00011242F938F939F93EF93FF932CB18091BE
:1005F00052019CB1E82FF0E0EE5CFE4F90838F5FDC
:10060000809352012A3019F481E0809353011092B3
:100610005401FF91EF919F918F912F910F900FBEF9
:100620000F901F901895CF93DF93A82FB0E0ED01A6
:10063000C75ADE4F188281E090E09C0102C0220F71
:10064000331F6A95E2F7B901FD01EB5AFE4F208393
:1006500002C0880F991F4A95E2F7282FA35ABE4F70
:100660008C9386B3862311F081E0888386B3282398
:1006700019F0888182608883DF91CF910895CF93AC
:10068000DF93A82FB0E0ED01C75ADE4F2881220F7B
:10069000220F86B3FD01EB5AFE4F9081892309F0AA
:1006A000216086B3A35ABE4F9C91892309F0226032
:1006B000E22FF0E0E05AFF4F8081237028839927D2
:1006C00087FD9095DF91CF91089580E090E00895A7
:1006D00090E0FC013C97E031F10520F4E65DFF4F2E
:1006E0000C94BF0C8EEF3FC0CB010E94BC063BC0F8
:1006F000CB010E94EB0737C0CB010E94A30633C099
:10070000CB010E94C2072FC0CB010E948A062BC0DA
:10071000CB010E94990727C0CB010E94710623C01C
:10072000CB010E9470071FC0CB010E9458061BC05E
:10073000CB010E94470717C0CB010E943F0613C0A0
:10074000CB010E941E070FC0CB010E94EE050BC01B
:10075000CB010E94FC0607C0CB010E94D50603C056
:10076000CB010E94330690E008954115510549F1EF
:100770002FEF4D3F520729F428EE33E040E050E0E0
:1007800008C02FEF4A3F520749F420E432E44FE01B
:1007900050E00E946D0CCA01B90108954330510523
:1007A00039F428EE33E040E050E00E944E0C08950A
:1007B0004630510531F420E432E44FE050E00E942D
:1007C0004E0C089580E090E00895A0E2B0E0EBEEDA
:1007D000F3E00C948C0C6B017C015A0120E432E4B0
:1007E0004FE050E00E946D0C39014A012AE030E0F0
:1007F000A501C401B3010E94F40BD501FE0131969D
:100800008D9181938823E1F78EE2829331968F0157
:10081000C401B30120E432E44FE050E00E944E0CEA
:10082000C61AD70AE80AF90A2AE030E0A501C7018A
:10083000B6010E94F40BF50101900020E9F7319711
:10084000EA19FB09E01B04C080E3D8018D938D01F8
:100850008E2F800F8630C0F3F5018191D8018D93E2
:100860008D018823D1F71C92BE016F5F7F4FC501B8
:100870000E94B40BC501EEE0A0960C94A80CA0E079
:10088000B0E0E5E4F4E00C948F0C962E5A017C0164
:1008900003C00894E11CF11CF70180818032C9F388
:1008A000CC24DD2403C00894C11CD11C86E0C89E62
:1008B000E0011124C059DF4FFE0101900020E9F74B
:1008C0003197EC1BFD0B8C81843031F4F5011182E2
:1008D000108280E090E014C0891529F70E2F10E0F7
:1008E000A801B701CE010E94BB0B892BE1F60E0DCA
:1008F0001F1DF501118300838D81992787FD909538
:10090000EBE0CDB7DEB70C94AB0C6F927F928F9279
:100910009F92AF92BF92DF92EF92FF920F931F933D
:10092000CF93DF93CDB7DEB726970FB6F894DEBF2F
:100930000FBECDBF3B0140E050E0BE016F5F7F4F77
:100940000E94970A20E432E44FE050E00E944E0CEF
:100950004B015C01E981FA81FC83EB838191FA838D
:10096000E9838E3209F048C040E050E0BE016D5F7F
:100970007F4FCF010E94970A7B018C01DB80898128
:10098000D81A85E08D15C8F021E030E040E050E055
:10099000D394CA01B9012AE030E040E050E00E945F
:1009A0004E0C9B01AC01E6E0DE1691F7C801B701E1
:1009B0000E944E0C7B018C011BC0F6E0DF16C1F0DB
:1009C00021E030E040E050E0DA94CA01B9012AE0C9
:1009D00030E040E050E00E944E0C9B01AC0186E00C
:1009E000D81691F7C801B7010E946D0C79018A01F0
:1009F0008E0C9F1CA01EB11EAE014B5F5F4F61E0CD
:100A00008B819C810E943F04AC01C501B4010E940E
:100A1000B503F301608371838283938380E090E068
:100A200026960FB6F894DEBF0FBECDBFDF91CF91F3
:100A30001F910F91FF90EF90DF90BF90AF909F902C
:100A40008F907F906F900895A3E4B0E0EAE2F5E024
:100A50000C94880C5C0124967FAF6EAF2497E5E67A
:100A6000F1E065917491442455243E010894611C81
:100A7000711C91E2292E312C2C0E3D1E5FC0C3014A
:100A80000E94AD0BF30101900020E9F73197E619C0
:100A90008301CC24EE2EFF244701860C971C0FC047
:100AA000F801D0808D2D90E00E94EA0C892B29F46A
:100AB000F101EC0DF11DD082C3940F5F1F4F08159B
:100AC000190571F70C2D10E0F101E00FF11F80E224
:100AD0008083E2E2F0E0EC0FFD1FE00FF11F1082D7
:100AE000A701B501C3010E94BB0B892B49F4EA0C95
:100AF000FB1C2496EEADFFAD2497F182E08212C07C
:100B00000894411C511CA801B501C1010E94BB0BF6
:100B1000892B61F40A0D1B1D2496EEADFFAD2497C1
:100B20001183008322968FAD229710C0E42DF0E050
:100B3000EE0FFF1FEB59FE4F6591749122964FAE59
:100B400022976115710509F09ACF8FEF90E0E2E1ED
:100B5000CD5BDF4F0C94A40CACE0B0E0E2EBF5E031
:100B60000C94930C10926501BE016F5F7F4F0E9441
:100B700024057C0186EA90E00E9466028E010D5FEA
:100B80001F4F4AE050E0B8018E2D90E00E94D30B39
:100B9000C8010E9466028DEA90E00E946602898187
:100BA0009A810E94660269817A818E2D0E94680373
:100BB0008C0180916501882359F08AE00E948D01A3
:100BC00085E691E00E94AD0185E691E00E94660213
:100BD000802F90E0E7E02C960C94AF0CA0E1B0E001
:100BE000E4EFF5E00C94880C0E9466028091B50158
:100BF00090E02BE130E0829FF001839FF00D929F07
:100C0000F00D1124EA54FE4F61887288838894881D
:100C1000A584B684C784D088E184F28403851485D2
:100C20002E010894411C511C8FEA282E80E0382E9A
:100C30000FC0A201C801B7010E94E503C2010E94D2
:100C40006602C1010E946602E60CF71C081D191D10
:100C5000EA14FB040C051D0564F380E090E0E2E17A
:100C600060960C94A40C6091B50170E080E090E077
:100C700045E651E00E94E50380E090E00895809110
:100C8000B50190E02BE130E0829FF001839FF00DF1
:100C9000929FF00D1124EA54FE4F66897789808D6A
:100CA000918D45E651E00E94E50380E090E00895D3
:100CB0008091B50190E02BE130E0829FF001839FAD
:100CC000F00D929FF00D1124EA54FE4F6189728954
:100CD0008389948945E651E00E94E50380E090E035
:100CE00008958091B50190E02BE130E0829FF00102
:100CF000839FF00D929FF00D1124EA54FE4F6585FD
:100D000076858785908945E651E00E94E50380E07D
:100D100090E008958091B50190E02BE130E0829F52
:100D2000F001839FF00D929FF00D1124EA54FE4FC5
:100D3000618572858385948545E651E00E94E503CF
:100D400080E090E008958091B50190E02BE130E0E3
:100D5000829FF001839FF00D929FF00D1124EA54C1
:100D6000FE4F648175818681978145E651E00E943E
:100D7000E50380E090E008958091B50190E02BE1DB
:100D800030E0829FF001839FF00D929FF00D1124BF
:100D9000EA54FE4F608171818281938145E651E082
:100DA0000E94E50380E090E00895A2E0B0E0EBED62
:100DB000F6E00C94960C8C0140E050E0BE016F5FB1
:100DC0007F4F0E94970A9B01AC01E981FA810E17BF
:100DD0001F0761F08081882349F4822F81508E376C
:100DE00010F42093B50180E090E002C08FEF9FEFF8
:100DF000E4E022960C94B20CA4E0B0E0E2E0F7E06C
:100E00000C94980CBE016F5F7F4F0E948504AC016B
:100E1000892B79F48091B50190E02BE130E0829F3D
:100E2000F001839FF00D929FF00D1124EA54FE4FC4
:100E3000128ECA01E2E024960C94B40CA4E0B0E057
:100E4000E4E2F7E00C94980CBE016F5F7F4F0E94C4
:100E50008504AC01892BB1F48091B50190E02BE1C0
:100E600030E0829FF001839FF00D929FF00D1124DE
:100E7000EA54FE4F89819A81AB81BC81868B978B26
:100E8000A08FB18FCA01E2E024960C94B40CA4E0C8
:100E9000B0E0EDE4F7E00C94980CBE016F5F7F4F7B
:100EA0000E948504AC01892BB1F48091B50190E0DA
:100EB0002BE130E0829FF001839FF00D929FF00DB7
:100EC0001124EA54FE4F89819A81AB81BC81818BC8
:100ED000928BA38BB48BCA01E2E024960C94B40CE1
:100EE000A4E0B0E0E6E7F7E00C94980CBE016F5F79
:100EF0007F4F0E948504AC01892BB1F48091B5012C
:100F000090E02BE130E0829FF001839FF00D929FF3
:100F1000F00D1124EA54FE4F89819A81AB81BC8186
:100F200085879687A787B08BCA01E2E024960C9448
:100F3000B40CA4E0B0E0EFE9F7E00C94980CBE012B
:100F40006F5F7F4F0E948504AC01892BB1F48091C3
:100F5000B50190E02BE130E0829FF001839FF00D1E
:100F6000929FF00D1124EA54FE4F89819A81AB8142
:100F7000BC8181879287A387B487CA01E2E0249667
:100F80000C94B40CA4E0B0E0E8ECF7E00C94980CFE
:100F9000BE016F5F7F4F0E948504AC01892BB1F4C5
:100FA0008091B50190E02BE130E0829FF001839FBA
:100FB000F00D929FF00D1124EA54FE4F89819A8121
:100FC000AB81BC8184839583A683B783CA01E2E0A9
:100FD00024960C94B40CA4E0B0E0E1EFF7E00C949C
:100FE000980CBE016F5F7F4F0E948504AC01892B76
:100FF000B1F48091B50190E02BE130E0829FF001E7
:10100000839FF00D929FF00D1124EA54FE4F8981C9
:101010009A81AB81BC8180839183A283B383CA010F
:10102000E2E024960C94B40C90B380B3892387FD3E
:10103000FBCF879BFECF0895EF92FF920F931F93F4
:10104000CF93DF938F98979A8FEF8ABB8BBB8CE0FF
:101050000E9427020E94850181E00E9457010E94A0
:10106000DC0241E060E080E00E94130343E062E0C4
:1010700081E00E94130302E021E040E061E080E0B3
:101080000E949A0921E043E063E082E00E949A090D
:1010900000E010E0C0E0D0E042EBE42E40E0F42EAF
:1010A00080E00E943F03992787FD9095982F88271D
:1010B000081B190B81E00E943F03992787FD90953B
:1010C000982F8827C81BD90BDF93CF931F930F93BB
:1010D000FF92EF920E947602DF93CF931F930F93BC
:1010E000FF92EF920E94C7019E0141E0BE0180E0A5
:1010F0000E94E5098DB79EB70C960FB6F8949EBF77
:101100000FBE8DBFCDCFA0E2B0E0E9E8F8E00C94CF
:10111000940C0E9485016AEB70E08E010F5F1F4FF7
:10112000C8010E94B40BC8010E94AC0566EC70E0D7
:10113000C8010E94B40BC8010E94AC056CEC70E0C1
:10114000C8010E94B40BC8010E94AC056CED70E0B0
:10115000C8010E94B40BC8010E94AC0569EE70E0A2
:10116000C8010E94B40BC8010E94AC0567EF70E093
:10117000C8010E94B40BC8010E94AC0563E071E095
:10118000C8010E94B40BC8010E94AC0562E171E085
:10119000C8010E94B40BC8010E94AC056EE171E069
:1011A000C8010E94B40BC8010E94AC0554E5E52EAD
:1011B00051E0F52E809153018823E1F38AE20E94E9
:1011C0008D01C7010E946F0201E008C0E02FF0E02E
:1011D000EE5CFE4F80810E948D010F5F8091520175
:1011E0000817A0F31092520110925301C7010E94F8
:1011F0007302E0CF80E090E000C001968431910559
:10120000D9F708950F931F9301E010E0F80102C091
:10121000EE0FFF1F6A95E2F7BF015E2FF80102C0D3
:10122000EE0FFF1F2A95E2F79F0102C0000F111F6A
:101230004A95E2F7402FE82FF0E0DF01AE5CBD4FAA
:101240002C93DF01A65DBD4F6C93E25DFD4F0083E3
:1012500081B3862B822B81BB91B3802F809589230C
:1012600081BB82B3482B42BB82B3582B52BB1F9128
:101270000F9108951F93E82FF0E0DF01A65DBD4FA9
:101280001C91DF01AE5CBD4FAC91E25DFD4FE08192
:1012900092B3812F8A2B892B82BB80E090E000C023
:1012A000019684319105D9F782B3912F90959823B7
:1012B00092BB82B3BA2FB0958B2382BB80E090E0C3
:1012C00000C0019684319105D9F760E070E040E0FC
:1012D00050E082B38A2B82BB20E030E000C02F5F59
:1012E0003F4F24313105D1F782B38B2382BB20E0FD
:1012F00030E000C02F5F3F4F24313105D1F742303D
:1013000030F0660F771F80B38E2309F061604F5F66
:101310005F4F4E305105E9F682B3182B12BB20E027
:1013200030E000C02F5F3F4F24313105D1F7CB01B2
:101330001F9108950F93982F722FA0913001B091B3
:101340003101E82FF0E0E65BFD4FA083E62FF0E0EF
:10135000E65BFD4FA083681718F4862F692F982F3E
:10136000FD01EE5BFD4F9083FD01E65CFD4F608368
:1013700021E030E0C90102C0880F991F4A95E2F7C9
:10138000AC01C90102C0880F991F7A95E2F7BC0130
:1013900002C0220F331F0A95E2F7FD01E25CFD4F08
:1013A0008083FD01EA5BFD4F4083FD01EA5CFD4F58
:1013B00020831196B0933101A09330018AB3842B1E
:1013C000862B822B8ABB0F910895A0E0B0E0EBEE54
:1013D000F9E00C94910CA82FB0E0C42FD0E0FE01EE
:1013E000E65BFD4F9081FD01E65BFD4F8081981724
:1013F00019F08FEF9FEF72C0A85DBE4F6C93C85D70
:10140000DE4F2883E92FF0E0DF01A25CBD4FFC90A6
:10141000DF01AA5BBD4F0C91EA5CFD4FE0808BB30E
:10142000CF2CC0948C218BBB8BB3102F10958123B4
:101430008BBBEB01DD24BE2CB094D7FF03C08BB374
:101440008E2902C08BB38B218BBBCC0FDD1F8BB3DE
:10145000802B8BBB0E94FA088BB381238BBB0E942D
:10146000FA08D39481E1D81641F78BB3F82AFBBA76
:10147000D7FF03C08BB38E2904C09BB38E2D8095FC
:1014800089238BBB8BB3802B8BBB0E94FA088BB359
:1014900081238BBB0E94FA08FF24E0948BB38E213A
:1014A0008BBB8BB3802B8BBB0E94FA088BB3812341
:1014B0008BBB0E94FA08F39481E1F81679F78BB39D
:1014C000C822CBBA8BB3082B0BBB0E94FA088BB394
:1014D00018231BBB0E94FA0880E090E0E9E0CDB73A
:1014E000DEB70C94AD0CE82FF0E0E65BFD4FE08139
:1014F000F0E0DF01AE5BBD4FAC91E65CFD4F40819B
:10150000EA2FF0E0E85DFE4F9081E42FF0E0E85D27
:10151000FE4F2081A81709F4962F481709F4262FAB
:1015200030E0692F70E08A2F0E94E5090895A0E05D
:10153000B0E0EDE9FAE00C94890C8C012B01EA0192
:101540006115710519F0FB0191838083209749F0A3
:10155000CE010297839728F060E070E080E090E091
:10156000F7C0F801E1908F018E2D90E00E94F00C01
:10157000892BB9F7FDE2EF1631F4F801E1908F0104
:101580003324339407C0FBE2EF1619F4F801E1901D
:101590008F013324209719F0C031D105E1F4F0E335
:1015A000EF1679F4F8018081883711F0883549F415
:1015B000F801E1800E5F1F4FF2E03F2AC0E1D0E06A
:1015C0000AC0209741F480E3E81619F4C8E0D0E09F
:1015D00002C0CAE0D0E0C830D10571F0C930D105F1
:1015E00024F4C230D10519F50DC0CA30D10581F0FF
:1015F000C031D105E1F415C0A12CB12CC12CB0E152
:10160000DB2E22C0A12CB12CC12CA0E4DA2E1CC0F0
:10161000FCECAF2EFCECBF2EFCECCF2EFCE0DF2E62
:1016200013C0A12CB12CC12CE8E0DE2E0DC09E0110
:10163000442737FD4095542F60E070E080E090E84B
:101640000E94C50C59016A0120E030E040E050E002
:1016500060E03E01882477FC8094982C70EDF72E92
:10166000FE0CE9E0EF1570F48E2D81548A3118F4E8
:1016700099ECF92E06C08E2D81568A3150F589EAF3
:10168000F82EFE0C8F2D90E08C179D0714F567FD4A
:101690001CC0A216B306C406D506B0F0CA01B90133
:1016A000A40193010E944E0C9B01AC012F0D311D32
:1016B000411D511D2130F0E03F07F0E04F07F0E8F9
:1016C0005F0710F461E001C06FEFF801E1908F0156
:1016D000C5CF4114510481F0662331F00150104010
:1016E000F2011183008308C031FE1AC0025010407D
:1016F000F2011183008314C067FF12C030FE05C0E1
:1017000020E030E040E050E804C02FEF3FEF4FEF23
:101710005FE782E290E0909353028093520216C0FA
:1017200030FE08C050954095309521953F4F4F4F62
:101730005F4F0CC057FF0AC082E290E090935302C3
:10174000809352022FEF3FEF4FEF5FE7CA01B901DD
:10175000E1E1CDB7DEB70C94A50CFB01DC010590EF
:101760000D920020E1F70895FB01DC0101900D923C
:101770000020E1F70895FB01DC014150504088F062
:101780008D9181341CF08B350CF4805E6191613455
:101790001CF06B350CF4605E861B611171F3990BC4
:1017A0000895881BFCCFFB019F01E8944230C4F0F0
:1017B0004532B4F44A3029F497FB1EF49095819594
:1017C0009F4F642F77270E94FB0C805D8A330CF0BB
:1017D000895D8193CB010097A1F716F45DE25193E7
:1017E0001082C9010C943E0CFA01CF93FF93EF9342
:1017F000223044F1253234F5C22FE894CA3049F43E
:1018000097FB3EF490958095709561957F4F8F4F33
:101810009F4F2C2F332744275527FF93EF930E9488
:10182000C50CEF91FF91605D6A330CF0695D6193C7
:10183000B901CA01605070408040904051F716F4E1
:10184000CDE2C19310828F919F91CF910C943E0C69
:10185000FB019F01423074F0453264F4642F772716
:101860000E94FB0C805D8A330CF0895D8193CB0173
:101870000097A1F71082C9010C943E0CDC01FC0119
:10188000672F71917723E1F7329704C07C916D93B4
:1018900070836291AE17BF07C8F30895629FD001AD
:1018A000739FF001829FE00DF11D649FE00DF11D1B
:1018B000929FF00D839FF00D749FF00D659FF00DCA
:1018C0009927729FB00DE11DF91F639FB00DE11DB7
:1018D000F91FBD01CF011124089597FB092E05269C
:1018E0000ED057FD04D051D00AD0001C38F45095CA
:1018F0004095309521953F4F4F4F5F4F0895F6F734
:1019000090958095709561957F4F8F4F9F4F08956B
:101910002F923F924F925F926F927F928F929F92FF
:10192000AF92BF92CF92DF92EF92FF920F931F93ED
:10193000CF93DF93CDB7DEB7CA1BDB0B0FB6F8949E
:10194000DEBF0FBECDBF09942A88398848885F84DE
:101950006E847D848C849B84AA84B984C884DF804F
:10196000EE80FD800C811B81AA81B981CE0FD11D33
:101970000FB6F894DEBF0FBECDBFED010895EE0F98
:10198000FF1F0590F491E02D0994A1E21A2EAA1BE5
:10199000BB1BFD010DC0AA1FBB1FEE1FFF1FA2171F
:1019A000B307E407F50720F0A21BB30BE40BF50B1C
:1019B000661F771F881F991F1A9469F760957095A5
:1019C000809590959B01AC01BD01CF01089585FDE7
:1019D0000FC0806291110CC081568A51E0F70895C2
:1019E000911106C0803219F089508550D0F70895C2
:1019F000992788270895AA1BBB1B51E107C0AA1F7E
:101A0000BB1FA617B70710F0A61BB70B881F991F9F
:101A10005A95A9F780959095BC01CD010895FFCF07
:101A200000FF0100010000FFFF0000010001FF00B6
:101A30004D56000001FD5600000001004B5600000D
:101A400001035541000002FA4D41000002FD410032
:101A5000000002004D53000003FD5300000003008E
:101A60000000000004000A0D636D643A005B000A88
:101A70000D0025752025750D0A00766F6C742032D7
:101A8000302E31205600766F6C743F007377656599
:101A9000703A737461727420302E35007377656507
:101AA000703A73746172743F0073776565703A734E
:101AB000746F702032300073776565703A73746F9D
:101AC000703F0073776565703A7374657020302ECF
:101AD000350073776565703A737465703F0073778E
:081AE0006565703A676F0000B4
:00000001FF
