:100000000C942A000C9447000C9447000C94470071
:100010000C9447000C9447000C9447000C94470044
:100020000C9447000C9447000C9447000C94470034
:100030000C9447000C946F010C9447000C944700FB
:100040000C9447000C9447000C9447000C94470014
:100050000C94470011241FBECFE5D8E0DEBFCDBF12
:1000600010E0A0E6B0E0ECE3F0E102C005900D92F4
:10007000A23AB107D9F711E0A2EAB0E001C01D929F
:10008000A334B107E1F70E947B000C941D080C9487
:10009000000080E090E020E0CD9B02C080E008C03E
:1000A0000196D1F72F5F2031B9F789B3807180585D
:1000B00090E00895FF920F931F93CF93DF938C01ED
:1000C000A998EC010AC00E94C800FBBA2196888159
:1000D0008BBBAB9A0E944900AB98CE01801BF82ED7
:1000E0008881882381F780E090E0DF91CF911F9194
:1000F0000F91FF9008950F931F930E945F011ABA0A
:100100001FEF17BB14BB1ABB17BB14BB11BB18BB2B
:1001100015BB12BB80E690E09F938F930E94DC009A
:10012000959A8FEC84BB15BB1ABB1BBA9398949815
:10013000969A9798AF98AE9AA89AAA98A99A81E5A4
:100140008BBBAB980E944900AB9A082F10E01F931D
:100150000F938EE690E09F938F930E94DC008EE7D2
:1001600090E00E945A001F930F9384E890E09F93C1
:100170008F930E94DC008DB79EB70A960FB6F89455
:100180009EBF0FBE8DBF80E090E01F910F9108953C
:100190005D9BFECF8CB90895FC0103C05D9BFECF33
:1001A0008CB981918823D1F70895FC0181E0808387
:1001B0000895FC0110820895EF92FF920F931F9310
:1001C000CF93DF93CDB7DEB7A2970FB6F894DEBF1B
:1001D0000FBECDBFFE01BB9681919191FA83E98359
:1001E0008C0183E0E82EF12CEC0EFD1E56C085320A
:1001F00019F05D9BFECF4EC00F5F1F4FF80180814D
:100200008936E1F08A3630F4833671F1843609F0AC
:100210003FC014C0853729F08837C1F08337C1F556
:100220002DC0E981FA813296FA83E9834AE050E0F1
:10023000B701929182910E94E30714C0E981FA818B
:100240003296FA83E9834AE050E007C0E981FA81F7
:100250003296FA83E98340E150E0B70192918291AE
:100260000E94C207C70111C0E981FA813296FA8360
:10027000E983929182915D9BFECF0CC0E981FA8166
:100280003296FA83E983929182910E94CC0003C056
:100290005D9BFECF8CB90F5F1F4FF80180818823D3
:1002A00009F0A5CFA2960FB6F894DEBF0FBECDBF62
:1002B000DF91CF911F910F91FF90EF90089510BCA7
:1002C00087E689B988E18AB986E880BD1092C800BE
:1002D0001092C9001092CA00579A789408951F92FC
:1002E0000F920FB60F9211242F938F939F93EF933A
:1002F000FF932CB18091C8009CB1E82FF0E0E85545
:10030000FF4F90838F5F8093C8002A3019F481E0FB
:100310008093C9001092CA00FF91EF919F918F9135
:100320002F910F900FBE0F901F901895FF920F9373
:100330001F93CF93DF93F62EB22F242F2F7061E0FF
:1003400070E0FB0102C0EE0FFF1F2A95E2F79F014C
:100350005E2FC82FD0E0FE01E151FF4F20838B2F8D
:100360008F709B0102C0220F331F8A95E2F7C901EB
:10037000322FFE01ED51FF4F80838F2D8F70FB01D7
:1003800002C0EE0FFF1F8A95E2F7CF011E2FFE017C
:10039000E152FF4F8083802F8F7002C0660F771F5E
:1003A0008A95E2F7A62FFE01E552FF4F6083407F5A
:1003B00069F4FE01EE0FFF1FED50FF4F8BE390E05D
:1003C000918380838AB3582B5ABB2CC0403169F487
:1003D000FE01EE0FFF1FED50FF4F88E390E0918389
:1003E000808387B3582B57BB1DC0403269F4FE0190
:1003F000EE0FFF1FED50FF4F85E390E09183808368
:1004000084B3582B54BB0EC0403361F4FE01EE0F91
:10041000FF1FED50FF4F82E390E09183808381B313
:10042000582B51BB2B2F207F69F4FE01EE0FFF1FCD
:10043000E553FF4F8BE390E0918380838AB3382BA1
:100440003ABB2CC0203169F4FE01EE0FFF1FE553CB
:10045000FF4F88E390E09183808387B3382B37BBCD
:100460001DC0203269F4FE01EE0FFF1FE553FF4F60
:1004700085E390E09183808384B3382B34BB0EC036
:10048000203361F4FE01EE0FFF1FE553FF4F82E3BF
:1004900090E09183808381B3382B31BB6F2D607FD7
:1004A00069F4FE01EE0FFF1FED52FF4F8BE390E06A
:1004B000918380838AB3812B8ABB2CC0603169F41D
:1004C000FE01EE0FFF1FED52FF4F88E390E0918396
:1004D000808387B3812B87BB1DC0603269F4FE0126
:1004E000EE0FFF1FED52FF4F85E390E09183808375
:1004F00084B3812B84BB0EC0603361F4FE01EE0F28
:10050000FF1FED52FF4F82E390E09183808381B320
:10051000812B81BB007F69F4FE01EE0FFF1FE951C3
:10052000FF4F8BE390E0918380838AB3A82BAABB13
:100530002CC0003169F4FE01EE0FFF1FE951FF4F9F
:1005400088E390E09183808387B3A82BA7BB1DC06D
:10055000003269F4FE01EE0FFF1FE951FF4F85E302
:1005600090E09183808384B3A82BA4BB0EC000339A
:1005700061F4FE01EE0FFF1FE951FF4F82E390E0AF
:100580009183808381B3A82BA1BBDE01AA0FBB1F7F
:10059000FD01ED52FF4F0190F081E02D8081182B7D
:1005A0001083FD01ED50FF4F20813181F9019081D1
:1005B000FE01E151FF4F808180958923F9018083FD
:1005C000A951BF4FED91FC918081C552DF4F9881B9
:1005D000892B8083DF91CF911F910F91FF90089518
:1005E0001F93CF93DF93A42F462F4F7021E030E06D
:1005F000F90102C0EE0FFF1F4A95E2F7AF011E2F6F
:100600009A2F9F7002C0220F331F9A95E2F7722F24
:10061000C82FD0E0FE01E152FF4F4083FE01E552BA
:10062000FF4F2083607F69F4FE01EE0FFF1FED5244
:10063000FF4F8BE390E0918380838AB3842B8ABB46
:100640002CC0603169F4FE01EE0FFF1FED52FF4F29
:1006500088E390E09183808387B3842B87BB1DC0A0
:10066000603269F4FE01EE0FFF1FED52FF4F85E38C
:1006700090E09183808384B3842B84BB0EC060336D
:1006800061F4FE01EE0FFF1FED52FF4F82E390E099
:100690009183808381B3842B81BB4A2F407F69F48F
:1006A000FE01EE0FFF1FE951FF4F8BE390E09183B6
:1006B00080838AB3782B7ABB2CC0403169F4FE0169
:1006C000EE0FFF1FE951FF4F88E390E09183808395
:1006D00087B3782B77BB1DC0403269F4FE01EE0F63
:1006E000FF1FE951FF4F85E390E09183808384B33E
:1006F000782B74BB0EC0403361F4FE01EE0FFF1F78
:10070000E951FF4F82E390E09183808381B3782B9E
:1007100071BB80E58DB981E08EB9DE01AA0FBB1FE8
:10072000FD01ED52FF4F0190F081E02D8081182BEB
:100730001083A951BF4FED91FC918081C552DF4FCD
:100740009881892B8083DF91CF911F910895CF925B
:10075000DF92EF92FF920F931F93CF93DF93282F97
:10076000EB01CB018070907F892B21F4D06744236B
:1007700009F4D068822F90E0FC01EE0FFF1FDF012B
:10078000AD52BF4F0D911C91E951FF4FE080F180B8
:10079000FC01E152FF4FD08085529F4FFC01C08089
:1007A0001F930F9388E990E09F938F930E94DC0042
:1007B000F80190818D2D8095892380838D2F992735
:1007C00087FD9A958FB90F900F900F900F90779BA0
:1007D000FECFCFB9779BFECFF80180818D29808332
:1007E000F70190818C2D80958923808382E090E0B1
:1007F0000E94FE06F70180818C298083DF91CF91D2
:100800001F910F91FF90EF90DF90CF900895CF92BE
:10081000DF92EF92FF920F931F93CF93DF93282FD6
:10082000CB018070907F892B21F47067442309F4F9
:100830007068822F90E0DC01AA0FBB1FFD01ED5014
:10084000FF4F20813181FD01E553FF4FC081D181F0
:10085000FD01ED52FF4F00811181A951BF4FED9075
:10086000FC90FC01E151FF4F4081FC01ED51FF4F35
:10087000B081FC01E152FF4FC08085529F4FFC01C7
:10088000D080F80190818C2D809589238083888188
:100890005B2F50958523888390E0A42FA095F901C4
:1008A00080818A23808377FF03C088818B2B02C0DD
:1008B000888185238883F9018081842B80839F5FD1
:1008C000903119F0660F771FEACFF90180814095CA
:1008D00048234083F80180818C298083F70190812F
:1008E0008D2D80958923808382E090E00E94FE0612
:1008F000F70180818D298083DF91CF911F910F9126
:10090000FF90EF90DF90CF900895FF920F931F9389
:10091000CF93DF93F62EB22F242F2F7061E070E07B
:10092000FB0102C0EE0FFF1F2A95E2F79F015E2F29
:10093000C82FD0E0FE01E151FF4F20838B2F8F7035
:100940009B0102C0220F331F8A95E2F7C901322FA3
:10095000FE01E95FFE4F80838F2D8F70FB0102C087
:10096000EE0FFF1F8A95E2F7CF011E2FFE01E15225
:10097000FF4F8083802F8F7002C0660F771F8A958C
:10098000E2F7A62FFE01E550FF4F6083407F69F438
:10099000FE01EE0FFF1FED50FF4F8BE390E09183C0
:1009A00080838AB3582B5ABB2CC0403169F4FE01B6
:1009B000EE0FFF1FED50FF4F88E390E0918380839F
:1009C00087B3582B57BB1DC0403269F4FE01EE0FB0
:1009D000FF1FED50FF4F85E390E09183808384B348
:1009E000582B54BB0EC0403361F4FE01EE0FFF1FC5
:1009F000ED50FF4F82E390E09183808381B3582BC9
:100A000051BB2B2F207F91F4FE01EE0FFF1FE15011
:100A1000FF4F89E390E0918380839AB3832F809581
:100A200089238ABB8BB3382B3BBB3BC0203191F46D
:100A3000FE01EE0FFF1FE150FF4F86E390E0918330
:100A4000808397B3832F8095892387BB88B3382B06
:100A500038BB27C0203291F4FE01EE0FFF1FE1509A
:100A6000FF4F83E390E09183808394B3832F80953D
:100A7000892384BB85B3382B35BB13C0203389F45D
:100A8000FE01EE0FFF1FE150FF4F80E390E09183E6
:100A9000808391B3832F8095892381BB82B3382BC8
:100AA00032BB007F69F4FE01EE0FFF1FE55FFE4FD2
:100AB0008BE390E0918380838AB3A82BAABB2CC0E0
:100AC000003169F4FE01EE0FFF1FE55FFE4F88E382
:100AD00090E09183808387B3A82BA7BB1DC0003211
:100AE00069F4FE01EE0FFF1FE55FFE4F85E390E026
:100AF0009183808384B3A82BA4BB0EC0003361F420
:100B0000FE01EE0FFF1FE55FFE4F82E390E0918351
:100B1000808381B3A82BA1BB6F2D607F69F4FE0198
:100B2000EE0FFF1FED52FF4F8BE390E09183808328
:100B30008AB3812B8ABB2CC0603169F4FE01EE0FB1
:100B4000FF1FED52FF4F88E390E09183808387B3CE
:100B5000812B87BB1DC0603269F4FE01EE0FFF1FC1
:100B6000ED52FF4F85E390E09183808384B3812B26
:100B700084BB0EC0603361F4FE01EE0FFF1FED5227
:100B8000FF4F82E390E09183808381B3812B81BB0F
:100B9000DE01AA0FBB1FFD01ED52FF4F0190F08156
:100BA000E02D8081182B1083FD01ED50FF4F208137
:100BB0003181F9019081FE01E151FF4F80818095E3
:100BC0008923F9018083A55FBE4FED91FC9180815F
:100BD000C550DF4F9881892B8083DF91CF911F9182
:100BE0000F91FF9008954F925F926F927F928F9234
:100BF0009F92AF92BF92CF92DF92EF92FF920F93AC
:100C00001F93CF93DF93D62E142F90E0DC01AA0F11
:100C1000BB1FFD01ED50FF4FC081D181FD01E150AF
:100C2000FF4F60807180FD01E55FFE4FE080F18045
:100C3000AD52BF4F8D909C90FC01E151FF4FA080C1
:100C4000FC01E95FFE4F4080FC01E550FF4F008151
:100C500081529F4FFC015080F7018081802B80835F
:100C60008881BA2CB0948B218883F4019081852DE2
:100C700080958923808384E190E00E94FE0688812C
:100C80008A29888384E690E00E94FE0688818B2171
:100C9000888384E690E00E94FE06112321F0F7018C
:100CA0008081802B05C0F7019081802F809589235A
:100CB000808388818A29888384E690E00E94FE06EA
:100CC00088818B21888384E690E00E94FE06CD2CEB
:100CD000D2FE04C0F7018081802B05C0F70190810E
:100CE000802F80958923808388818A29888384E660
:100CF00090E00E94FE0688818B21888384E690E044
:100D00000E94FE06C1FE04C0F7018081802B05C051
:100D1000F7019081802F80958923808388818A299B
:100D2000888384E690E00E94FE0688818B21888378
:100D300084E690E00E94FE06C0FE05C0F7018081B7
:100D4000802B808305C0F7018081009508230083F4
:100D500088818A29888384E690E00E94FE06888143
:100D60008B21888384E690E00E94FE0688818A2990
:100D7000888384E690E00E94FE0688818B21888328
:100D800084E690E00E94FE06FF2400E010E08881E7
:100D90008A29888384E690E00E94FE0688818B2160
:100DA000888384E690E00E94FE06000F111FF30185
:100DB0008081842111F00F5F1F4FF394FDE0FF1637
:100DC00031F7F40180818529808384E690E00E94D8
:100DD000FE0616950795C8019F70DF91CF911F9170
:100DE0000F91FF90EF90DF90CF90BF90AF909F90CA
:100DF0008F907F906F905F904F900895A0E0B0E04B
:100E000022E0880F991FAA1FBB1F2A95D1F7FC016A
:100E1000892B11F400C008953197F1F708950F93CD
:100E20001F93CF93DF938C01C0E0D0E005C088EE24
:100E300093E00E94FE062196C017D107C1F7DF910B
:100E4000CF911F910F9108950F931F93CF93DF932D
:100E50008C01C0E0D0E005C088EE93E00E940F074F
:100E60002196C017D107C1F7DF91CF911F910F9144
:100E70000895A82FB0E0FD01ED5CFE4F262F2770EE
:100E800081E090E002C0880F991F2A95E2F78083E5
:100E9000607F39F4AA0FBB1FAD5EBE4F8BE390E0BD
:100EA00011C0603139F4AA0FBB1FAD5EBE4F88E39D
:100EB00090E008C0603249F4AA0FBB1FAD5EBE4F80
:100EC00085E390E08D939C930895603341F4AA0FDD
:100ED000BB1FAD5EBE4F82E390E08D939C9308955F
:100EE000482F407FA3E1B1E020E030E0F901ED5C64
:100EF000FE4F81E090E0022E02C0880F991F0A94F5
:100F0000E2F78083442319F48BE390E00EC0403174
:100F100019F488E390E009C0403219F485E390E0C9
:100F200004C0403329F482E390E011969C938E93A1
:100F30002F5F3F4F129628303105C1F60895A82F34
:100F4000B0E0FD01EE0FFF1FED5EFE4F0190F0815E
:100F5000E02DAD5CBE4F80819C91892B80830895EC
:100F6000A82FB0E0FD01EE0FFF1FED5EFE4F0190D8
:100F7000F081E02DAD5CBE4F9C91909580818923DE
:100F800080830895FB019F01E8944230C4F045320C
:100F9000B4F44A3029F497FB1EF4909581959F4F45
:100FA000642F77270E940908805D8A330CF0895DE1
:100FB0008193CB010097A1F716F45DE25193108263
:100FC000C9010C94F907FB019F01423074F04532CE
:100FD00064F4642F77270E940908805D8A330CF03F
:100FE000895D8193CB010097A1F71082C9010C9410
:100FF000F907DC01FC01672F71917723E1F7329744
:1010000004C07C916D9370836291AE17BF07C8F3E3
:101010000895AA1BBB1B51E107C0AA1FBB1FA6173F
:10102000B70710F0A61BB70B881F991F5A95A9F791
:0C10300080959095BC01CD010895FFCF84
:10103C000D0A626F6F74696E672E2E0D0A000D0A11
:10104C0074616C6B202331362025780D0A004633F1
:10105C00580D0A000D0A73656E6420636F6D6D6127
:10106C006E642025780D0A00706373313A25780A76
:02107C00000072
:00000001FF
