:1000000012C02CC02BC02AC029C028C027C026C0BF
:1000100025C024C023C022C021C020C01FC01EC0D4
:100020001DC01CC01BC011241FBECFE5D4E0DEBF25
:10003000CDBF10E0A0E6B0E0E4E1F3E002C005903F
:100040000D92A637B107D9F710E0A6E7B0E001C0DE
:100050001D92A637B107E1F7F9D05BC1D1CF939AD2
:1000600000C093980895CF93DF93662311F0979A79
:1000700001C097989598889A8A9A8C9A8E9A9698A1
:1000800094989298909887FD969AC82F86FD949A96
:10009000C5FD929AC4FD909AE2DF96989498929842
:1000A0009098C3FD969AC2FD949AC1FD929AC0FDA4
:1000B000909AD5DF909A929A949A969ADF91CF91DE
:1000C0000895882311F0979A01C09798959A889877
:1000D0008A988C988E98939A00C0809B02C080E189
:1000E00001C080E0829980628499806486998068EA
:1000F000939800C0939A00C0809981608299826031
:100100008499846086998860939890E0089580E04F
:10011000D8DF87FDFCCF81E090E00197F1F780E028
:10012000D0DF90E00895813011F4919A089591986C
:1001300008951F93182FEBDF60E0812F94DF1F914C
:1001400008951F93182FE3DF61E0812F8CDF1F914B
:100150000895662311F4805801C08054EADF0895A1
:10016000D6DF90E0089581E0E4DF089582E0E1DFEA
:1001700008951F93182FCBDF1A3041F4803410F408
:1001800080E401C080E08058D4DF03C061E0812FAB
:100190006ADF1F910895CF93DF93EC0101C0E9DF7F
:1001A00089918823E1F7DF91CF910895CF93DF9371
:1001B000EC0101C0DEDFFE01219684918823D1F796
:1001C000DF91CF910895FF920F931F93F82E8F9A8E
:1001D0008D9A8B9A889A8A9A8C9A8E9A80E899E35B
:1001E0000197F1F7929A909A3ADF80EF91E10197A7
:1001F000F1F735DF0AE310E0C8010197F1F72FDFCF
:10020000C8010197F1F790982ADFC8010197F1F72B
:1002100088E28FDF88E08DDFA6DF86E08ADF8F2D22
:1002200088DF1F910F91FF90089510BC8CE089B971
:1002300088E18AB986E880BD08955F9BFECF8CB1C6
:1002400090E008955D9BFECF8CB908958CE0BBDFF4
:1002500081E069DF88DF80E690E09DDF82E790E063
:100260009ADF84DF8FEF87BB20E02F5F80E090E094
:1002700028BB01963FE78F3F9307D1F780E090E0DE
:1002800028BB01963FE78F3F9307D1F7EECF1F932F
:100290008330D9F0843028F4813071F0823070F4EA
:1002A00009C08530B9F0853090F08630F1F08F3F8D
:1002B00071F529C058DF2BC059DF29C05F9BFECFE5
:1002C0008CB15F9BFECF6CB11CC088E101C08CE19A
:1002D00030DF1DC080E42DDF10E05F9BFECF8CB1CE
:1002E00030DF1F5F1031C8F30AC080E422DF10E066
:1002F0005F9BFECF8CB125DF1F5F1F33C8F361E02A
:1003000080E027DF04C05F9BFECF8CB10CDF1F9124
:040310000895FFCF7E
:1003140053657269616C2033383430302F384E3174
:060324000A004F6B2E00E1
:00000001FF
