:100000000CC027C026C025C024C023C022C021C0E8
:1000100020C01FC01EC01DC01CC011241FBECFE5C4
:10002000D2E0DEBFCDBF10E0A0E6B0E0EAEBF0E04A
:1000300003C0C89531960D92A036B107D1F710E0F4
:10004000A0E6B0E001C01D92A036B107E1F702D0F2
:1000500033C0D6CFCFE5D2E0DEBFCDBF8FEF87BBB9
:1000600011BA82BB88BB20B32095822F992780FFCD
:1000700002C081E01DC081FF02C082E019C082FF82
:1000800002C084E015C083FF02C088E011C084FF75
:1000900002C080E10DC085FF02C080E209C086FF7A
:1000A00002C080E405C027FF02C080E801C080E0F4
:0A00B0002223C9F28095D6CFFFCFBE
:00000001FF
