:100000000C942A000C9447000C9447000C94470071
:100010000C9447000C9447000C9447000C94470044
:100020000C9447000C9447000C9447000C94470034
:100030000C9447000C9447000C9447000C94470024
:100040000C9447000C9447000C9447000C94470014
:100050000C94470011241FBECFE5D8E0DEBFCDBF12
:1000600010E0A0E6B0E0E2EFF0E002C005900D92F3
:10007000A036B107D9F710E0A0E6B0E001C01D92AC
:10008000A036B107E1F70E9449000C9478000C9467
:1000900000008FEF81BB17BA88BB82BB26B32095C7
:1000A00020FF02C08FEF20C021FF02C081E01CC0F2
:1000B00022FF02C084E018C023FF02C088E014C001
:1000C00024FF02C080E110C025FF02C080E20CC006
:1000D00026FF02C080E808C0822F881F8827881F5B
:1000E0008295880F880F807C2223C1F28095D5CF1E
:0200F000FFCF40
:00000001FF
