:100000000C942A000C943F000C943F000C943F0089
:100010000C943F000C943F000C943F000C943F0064
:100020000C943F000C943F000C943F000C943F0054
:100030000C943F000C943F000C943F000C943F0044
:100040000C943F000C943F000C943F000C943F0034
:100050000C943F0011241FBECFE5D8E0DEBFCDBF1A
:1000600010E0A0E6B0E0EEE0F5E002C005900D92F1
:10007000AA36B107D9F70E9441000C9485020C946E
:100080000000DF93CF93CDB7DEB78FE00E9435023B
:100090000E94910180E060E00E945E0180E690E0B5
:1000A0000E94E60180E090E0CF91DF910895DF9318
:1000B000CF93CDB7DEB7ABE3B0E0EBE3F0E0808108
:1000C00080648C9300C0ABE3B0E0EBE3F0E08081B0
:1000D0008F7B8C93CF91DF910895DF93CF9300D0E6
:1000E0000F92CDB7DEB78A836B838B81882341F073
:1000F000ABE3B0E0EBE3F0E0808180618C9307C07C
:10010000ABE3B0E0EBE3F0E080818F7E8C93ABE378
:10011000B0E0EBE3F0E080818F7D8C93AAE3B0E068
:10012000EAE3F0E080818F608C93EBE3F0E0808184
:10013000807F8983EBE3F0E08A81982F92959F700E
:100140008981892B80830E945700EBE3F0E08A814C
:10015000982F9F708981892B80830E945700EBE341
:10016000F0E089818F6080830F900F900F90CF9186
:10017000DF910895DF93CF9300D0CDB7DEB78A83A8
:100180008A81882341F0ABE3B0E0EBE3F0E08081CB
:1001900080618C9307C0ABE3B0E0EBE3F0E08081DB
:1001A0008F7E8C93ABE3B0E0EBE3F0E08081806284
:1001B0008C93AAE3B0E0EAE3F0E08081807F8C9347
:1001C000ABE3B0E0EBE3F0E0808180648C9300C0AF
:1001D000E9E3F0E080818295807F8983ABE3B0E042
:1001E000EBE3F0E080818F7B8C9300C0ABE3B0E069
:1001F000EBE3F0E0808180648C9300C0E9E3F0E001
:100200008081982F9F708981892B8983ABE3B0E02F
:10021000EBE3F0E080818F7B8C9389810F900F90CE
:10022000CF91DF910895DF93CF93CDB7DEB780E014
:100230000E94BA008823DCF388E090E00E94260147
:1002400080E00E94BA00CF91DF910895DF93CF93B1
:1002500000D0CDB7DEB79A83898389819A810097D0
:1002600011F400C006C089819A810197F1F79A8341
:1002700089830F900F90CF91DF910895DF93CF93F3
:100280000F92CDB7DEB789830E941301898160E0A8
:100290000E946D000F90CF91DF910895DF93CF936F
:1002A0000F92CDB7DEB789830E941301898161E087
:1002B0000E946D000F90CF91DF910895DF93CF934F
:1002C00000D0CDB7DEB789836A838A81882329F479
:1002D000898180580E943E0114C08A81813029F4AE
:1002E000898180540E943E010CC08A81823029F4A9
:1002F00089818C560E943E0104C089818C520E94E3
:100300003E010F900F90CF91DF910895DF93CF932F
:10031000CDB7DEB70E941301882F90E0CF91DF9117
:100320000895DF93CF93CDB7DEB781E00E943E0101
:10033000CF91DF910895DF93CF93CDB7DEB782E001
:100340000E943E01CF91DF910895DF93CF9300D0BB
:10035000CDB7DEB78A830E94130189838A818A30F0
:1003600021F489810E94BE0104C08A8161E00E945B
:100370006D000F900F90CF91DF910895DF93CF9391
:1003800000D0CDB7DEB789838981843118F480E449
:100390008A8313C08981803430F08981843518F4D0
:1003A00084E18A830AC08981843130F08981803474
:1003B00018F484E58A8301C01A828A8180580E94D9
:1003C0003E010F900F90CF91DF910895DF93CF936F
:1003D00000D000D0CDB7DEB79A83898303C08B816C
:1003E0000E94A501E981FA8180818B838B818C83B6
:1003F0008C81882311F081E08C838C8129813A8162
:100400002F5F3F4F3A832983882349F70F900F903E
:100410000F900F90CF91DF910895DF93CF9300D08D
:1004200000D000D0CDB7DEB79D838C8303C08E8112
:100430000E94A5018C819D819B838A838C819D81F3
:1004400001969D838C83EA81FB81849189838981D4
:100450008E838E81882359F726960FB6F894DEBFD7
:100460000FBECDBFCF91DF910895DF93CF930F9251
:10047000CDB7DEB78983AAE3B0E0EAE3F0E080819C
:100480008F678C9380E09AEF0E942601ABE3B0E087
:10049000EBE3F0E0808182608C93ABE3B0E0EBE3D0
:1004A000F0E0808181608C930E94570080E09EE4A0
:1004B0000E9426010E94570080E091E00E942601E0
:1004C0000E94570080E091E00E942601ABE3B0E07B
:1004D000EBE3F0E080818E7F8C930E94570080E0F8
:1004E00091E00E94260188E20E943E0188E00E947D
:1004F0003E010E94910186E00E943E0189810E9496
:0E0500003E010F90CF91DF910895F894FFCF48
:0A050E007465737474656B737400F8
:00000001FF
