:1000000012C02CC02BC02AC029C028C027C026C0BF
:1000100025C024C023C06BC221C020C01FC01EC089
:100020001DC01CC01BC011241FBECFE5D4E0DEBF25
:10003000CDBF10E0A0E6B0E0EEE7F7E002C005902B
:100040000D92AA39B107D9F711E0AAE9B0E001C0D1
:100050001D92AE3AB107E1F755D190C3D1CFAC9A1A
:1000600000C0AC980895CF93DF93662311F0949A63
:1000700001C09498AD98A39AA29AA19AA09AA89820
:10008000A998AA98AB9887FDA89AC82F86FDA99A27
:10009000C5FDAA9AC4FDAB9AE2DFA898A998AA98D0
:1000A000AB98C3FDA89AC2FDA99AC1FDAA9AC0FD4A
:1000B000AB9AD5DFAB9AAA9AA99AA89ADF91CF9169
:1000C0000895882311F0949A01C09498AD9AA3984A
:1000D000A298A198A098AC9A00C09B9B02C080E116
:1000E00001C080E09A9980629999806498998068AB
:1000F000AC9800C0AC9A00C09B9981609A998260CC
:100100009999846098998860AC9890E0089580E00F
:10011000D8DF87FDFCCF82E090E00197F1F780E027
:10012000D0DF90E00895813011F4959A0895959864
:1001300008951F93182FEBDF60E0812F94DF1F914C
:1001400008951F93182FE3DF61E0812F8CDF1F914B
:100150000895662311F4805801C08054EADF0895A1
:10016000D6DF90E0089581E0E4DF089582E0E1DFEA
:1001700008951F93182FCBDF1A3041F4803410F408
:1001800080E401C080E08058D4DF03C061E0812FAB
:100190006ADF1F910895CF93DF93EC0101C0E9DF7F
:1001A00089918823E1F7DF91CF910895CF93DF9371
:1001B000EC0101C0DEDFFE01219684918823D1F796
:1001C000DF91CF910895EF92FF920F931F93CF93FA
:1001D000DF93CDB7DEB7AA970FB6F894DEBF0FBE98
:1001E000CDBFFE01F39681919191FA83E9838C0151
:1001F00083E0E82EF12CEC0EFD1E40C08532D9F5CF
:100200000F5F1F4FF80180818936B9F08A3628F4D4
:10021000833601F1843679F510C0833719F18537BB
:1002200051F5E981FA813296FA83E9834AE050E098
:10023000B701929182916AD20BC0E981FA8132961C
:10024000FA83E9834AE050E0B701929182913FD26C
:10025000C7010FC0E981FA813296FA83E9833297A8
:10026000808109C0E981FA813296FA83E98392910B
:10027000829191DF01C07DDF0F5F1F4FF801808108
:10028000882309F0BBCFAA960FB6F894DEBF0FBE45
:10029000CDBFDF91CF911F910F91FF90EF90089507
:1002A000FF920F931F93F82E8C9AA59AA49AA39A63
:1002B000A29AA19AA09A80E89EE30197F1F7AA9AE0
:1002C000AB9ACDDE80E893E10197F1F7C8DE00E458
:1002D00010E0C8010197F1F7C2DEC8010197F1F7FC
:1002E000AB98BDDEC8010197F1F788E222DF88E014
:1002F00020DF39DF86E01DDF8F2D1BDF1F910F917F
:10030000FF9008956F927F928F929F92AF92BF92CB
:10031000CF92DF92EF92FF920F931F93CF93DF93D1
:1003200047E066E080E076D143E062E081E072D1B0
:100330008CE0B6DF81E0F7DE16DF80E690E02BDFB1
:10034000BBD082E790E027DF81E080939B01AA2465
:10035000BB24CC24DD24C0E0D0E0EE24FF2400E068
:1003600097E7692E90E0792E8FE7882E80E0982E0F
:1003700003C07601E501092F80E083D1992787FD2D
:100380009095A81AB90A81E07CD1992787FD9095AC
:10039000C81AD90AAC16BD0619F4CE14DF0419F137
:1003A000DF92CF92BF92AF927F926F92BFD08DB704
:1003B0009EB706960FB6F8949EBF0FBE8DBF809174
:1003C0009B01882381F0CFDEDF92CF92BF92AF9264
:1003D0009F928F92F8DE8DB79EB706960FB6F8946F
:1003E0009EBF0FBE8DBF90919A01901709F05EC01D
:1003F000C0CFC02FD0E0FE01E656FF4F80818B3189
:1004000019F0B7DE0F5F52C0901720F0802F891BC4
:10041000982F01C0901B923008F448C0FE01E656A8
:10042000FF4F81818330D9F0843028F4813071F01E
:10043000823070F409C08530B9F0853090F0863094
:1004400001F18F3F99F52DC08EDE2FC08FDE2DC0BC
:10045000943060F1638182817CDE0C5F27C088E18B
:1004600001C08CE166DE21C0903100F180E461DEE4
:10047000C456DF4F10E0899164DE1F5F1031D9F759
:100480000CC0923498F080E454DEC456DF4F10E084
:10049000899157DE1F5F1F33D9F761E080E059DE95
:1004A00005C0923019F082813EDE0E5F90919A0174
:1004B000901709F09ECF5DCF10BC83E389B988E126
:1004C0008AB986E880BD10929A0110929C01579AD1
:1004D000789408955D9BFECF8CB90895FC0103C00C
:1004E0005D9BFECF8CB981918823D1F708951F922F
:1004F0000F920FB60F9211248F939F93EF93FF9358
:100500009CB110929B0180919A01EAE9F0E0E80F1A
:10051000F11D90838F5F80939A01FF91EF919F91DE
:100520008F910F900FBE0F901F901895EF92FF9232
:100530000F931F93CF93DF93CDB7DEB7A2970FB67C
:10054000F894DEBF0FBECDBFFE01BB9681919191A5
:10055000FA83E9838C0183E0E82EF12CEC0EFD1E7A
:1005600047C0853219F05D9BFECF3FC00F5F1F4F24
:10057000F80180818936B9F08A3628F4833601F192
:10058000843689F510C0833729F1853761F5E98113
:10059000FA813296FA83E9834AE050E0B7019291FA
:1005A0008291B4D00BC0E981FA813296FA83E98353
:1005B0004AE050E0B7019291829189D0C70111C001
:1005C000E981FA813296FA83E983929182915D9B67
:1005D000FECF0BC0E981FA813296FA83E9839291CA
:1005E00082917CDF03C05D9BFECF8CB90F5F1F4FF4
:1005F000F8018081882309F0B4CFA2960FB6F89451
:10060000DEBF0FBECDBFDF91CF911F910F91FF9045
:10061000EF900895CF93DF93A82FB0E0ED01CE5572
:10062000DE4F188281E090E09C0102C0220F331F50
:100630006A95E2F7B901322F02C0880F991F4A95D7
:10064000E2F7482FFD01E256FE4F6083AA55BE4FE8
:100650008C9321B3982F932B892F8095822381BB74
:1006600082B3982B92BB80B3382311F081E088834A
:1006700080B3482319F0888182608883DF91CF910D
:100680000895CF93DF93A82FB0E0ED01CE55DE4F54
:100690002881220F220F80B3FD01E256FE4F908188
:1006A000892309F0216080B3AA55BE4F9C9189230C
:1006B00009F02260E22FF0E0E757FF4F80812370BE
:1006C0002883992787FD9095DF91CF910895FB01AD
:1006D0009F01E8944230BCF04532ACF44A3029F432
:1006E00097FB1EF4909581959F4F642F772732D00A
:1006F000805D8A330CF0895D8193CB010097A9F767
:1007000016F45DE251931082C90114C0FB019F01F0
:1007100042306CF045325CF4642F77271BD0805D4B
:100720008A330CF0895D8193CB010097A9F7108281
:10073000C90100C0DC01FC01672F71917723E1F74B
:10074000329704C07C916D9370836291AE17BF079E
:10075000C8F30895AA1BBB1B51E107C0AA1FBB1F0A
:10076000A617B70710F0A61BB70B881F991F5A953D
:0E077000A9F780959095BC01CD010895FFCFAB
:10077E0053657269616C2033383430302F384E3106
:10078E000A004F6B2E0A0025642025640D0A005BBB
:10079E0025645D5B25645D0A0000FF010001000019
:0A07AE00FFFF0000010001FF000042
:00000001FF
