:100000000C9446000C9465000C9465000C946500FB
:100010000C9465000C9465000C9465000C946500CC
:100020000C9465000C9465000C9465000C946500BC
:100030000C9465000C94A7170C9465000C94650053
:100040000C9465000C9465000C9465000C9465009C
:100050000C9465000C9465000C9465000C9465008C
:100060000C9465000C9465000C9465000C9465007C
:100070000C9465000C9465000C9465000C9465006C
:100080000C9465000C9465000C94650011241FBE4F
:10009000CFEFD0E1DEBFCDBF11E0A0E0B1E0E8EBF3
:1000A000F1E300E00BBF02C007900D92A23BB10745
:1000B000D9F713E0A2EBB1E001C01D92AA30B1075D
:1000C000E1F70E9474010C94DA180C940000DF939D
:1000D000CF93CDB7DEB72C970FB6F894DEBF0FBE27
:1000E000CDBF8A878FE090E09F838E831D821C8224
:1000F0001B821A8219861886288539858A85B90156
:100100000E94CC0910C00E948A06882F90E09F832D
:100110008E838E819F8122273327281B390B80E015
:10012000B9010E94A90A8E819F818031910559F7FA
:1001300014C00E948A06882F90E09F838E838E8150
:100140009F81FC01E050FF4F808189838981282FA6
:1001500030E080E0B9010E94CC098E819F8180311E
:10016000910539F38E819F81FC01E050FF4F808122
:10017000898389818C3029F46FEF7FEF7C876B87CF
:100180007EC089818A3029F4888599859C878B87F0
:1001900076C089818D3009F41D8289818B3039F4D4
:1001A0001A828A818B838B818C838C818D83898158
:1001B0008A3070F48885998523E0883E920744F45C
:1001C0008B818A838C818B838D818C8389818D83C4
:1001D0008A81282F30E088EE93E0289FA001299F94
:1001E000500D389F500D11248B81282F30E084E66C
:1001F00090E0BC01269FC001279F900D369F900D77
:100200001124480F591F8C81882F90E09C01220FE8
:10021000331FC901880F991F880F991F820F931FE1
:100220009A01280F391F8D81882F90E0820F931F2C
:1002300099878887288539858A85B9010E94CC09E4
:1002400018C00E948A06882F90E09F838E838E813B
:100250009F81FC01E050FF4F808189838981882F35
:1002600090E022273327281B390B80E0B9010E9438
:10027000A90A8E819F818031910519F76ECF8B85F8
:100280009C852C960FB6F894DEBF0FBECDBFCF91E4
:10029000DF910895DF93CF93CDB7DEB7CF91DF9194
:1002A0000895DF93CF93CDB7DEB7CF91DF91089557
:1002B000DF93CF93CDB7DEB7CF91DF910895DF9372
:1002C000CF93CDB7DEB7CF91DF910895DF93CF9372
:1002D000CDB7DEB7CF91DF910895DF93CF93CDB740
:1002E000DEB7CF91DF910895AF92CF92EF920F9347
:1002F000DF93CF93CDB7DEB76D970FB6F894DEBF1F
:100300000FBECDBF1C821B821A8219820E94B115BA
:1003100081E191E00E94EA1581E191E00E94EA15F5
:1003200081E191E00E94EA15EAE3F0E08FE080834A
:10033000EBE3F0E080EF8083EAE3F0E08FEF80838F
:10034000E4E3F0E08FEF8083E1E3F0E08FEF808380
:1003500085E166E147E124E103E10F2EF2E1EF2EB2
:10036000F02D0F2EF1E1CF2EF02DAA246894A4F8E1
:100370000E94741185E166E147E124E100E10F2E5E
:10038000F1E1EF2EF02D0F2EF2E1CF2EF02D0F2EFA
:10039000F3E1AF2EF02D0E9474118FE00E9428151A
:1003A00082E291E00E94251180E066E340E324E3CD
:1003B00002E00E94FC0681E067E341E325E303E0FD
:1003C0000E94FC0682E066E240E224E202E00E9433
:1003D000FC0683E067E241E225E203E00E94FC06BE
:1003E00080E061E042E023E004E00F2EF5E0EF2E34
:1003F000F02D0F2EF6E0CF2EF02D0F2EF7E0AF2EC2
:10040000F02D0E94D9021D861C86EBE3F0E08FEBF5
:1004100080830E948A06882F90E09B878A878A853E
:100420009B85FC01E050FF4F8081882F90E09987E9
:100430008887888599858F309105D1F42CE231E049
:1004400083E0B9010E94B20B82E00E9467009A83A8
:10045000898389819A811816190654F429813A8171
:1004600081E0B9010E94CC090E94660181E08E837F
:10047000888599858E309105F1F421E331E083E0A0
:10048000B9010E94B20B82E00E9467009C838B83BB
:100490008B819C811816190674F42B813C8181E0B4
:1004A000B9010E94CC0981E08F8381E08D830E9495
:1004B0004A010E945801888599858E309105F1F492
:1004C00026E331E083E0B9010E94B20B82E00E9492
:1004D00067009C838B838B819C811816190674F4AA
:1004E0002B813C8181E0B9010E94CC0982E08F839D
:1004F00081E08D830E9451010E9458018885998571
:100500008A30910551F48D81882319F48E818823D6
:1005100021F081E08F830E944A01888599858B3084
:10052000910551F48D81882319F48E81882321F05F
:1005300082E08F830E945101888599858C309105D6
:1005400021F088859985009751F48E81882311F0D8
:100550000E946D018D81882311F00E945F018C85BE
:100560009D8501969D878C878C859D8527E28031AE
:10057000920714F01D861C862885398580E0B90114
:100580000E94CC092C853D8581E0B9010E94CC09EF
:1005900040CFDF93CF930F92CDB7DEB782E189834F
:1005A000E6E3F0E08081898389810F90CF91DF912C
:1005B0000895AF92CF92EF920F93DF93CF93CDB781
:1005C000DEB764970FB6F894DEBF0FBECDBF8D8740
:1005D0006E874F87288B098BEA8ACB8AAC8A8D85F8
:1005E000882F90E09C012F70307081E090E002C075
:1005F000880F991F2A95E2F78A878A858093B2012E
:100600008E85882F90E09C012F70307081E090E003
:1006100002C0880F991F2A95E2F789878985809300
:10062000B3018F85882F90E09C012F70307081E09E
:1006300090E002C0880F991F2A95E2F78887888585
:100640008093B4018889882F90E09C012F703070CE
:1006500081E090E0022E02C0880F991F0A94E2F711
:100660008F838F818093B5018D85807F8D878D8568
:100670008823C1F489E390E09093C7018093C60179
:10068000AAE3B0E0EAE3F0E08081982F8A858095C4
:1006900089238C93ABE3B0E0EBE3F0E090818A85B3
:1006A000892B8C938D858031C1F486E390E0909303
:1006B000C7018093C601A7E3B0E0E7E3F0E08081E3
:1006C000982F8A85809589238C93A8E3B0E0E8E38E
:1006D000F0E090818A85892B8C938D858032C1F4DE
:1006E00083E390E09093C7018093C601A4E3B0E058
:1006F000E4E3F0E08081982F8A85809589238C93AC
:10070000A5E3B0E0E5E3F0E090818A85892B8C9346
:100710008D858033C1F480E390E09093C70180938E
:10072000C601A1E3B0E0E1E3F0E08081982F8A8583
:10073000809589238C93A2E3B0E0E2E3F0E090811E
:100740008A85892B8C938E85807F8E878E858823E2
:10075000C1F489E390E09093C9018093C801AAE3B2
:10076000B0E0EAE3F0E08081982F898580958923C5
:100770008C93ABE3B0E0EBE3F0E090818985892BCB
:100780008C938E858031C1F486E390E09093C9010B
:100790008093C801A7E3B0E0E7E3F0E08081982F01
:1007A0008985809589238C93A8E3B0E0E8E3F0E0A5
:1007B00090818985892B8C938E858032C1F483E367
:1007C00090E09093C9018093C801A4E3B0E0E4E312
:1007D000F0E08081982F8985809589238C93A5E30B
:1007E000B0E0E5E3F0E090818985892B8C938E85DC
:1007F0008033C1F480E390E09093C9018093C801F5
:10080000A1E3B0E0E1E3F0E08081982F8985809555
:1008100089238C93A2E3B0E0E2E3F0E09081898544
:10082000892B8C938F85807F8F878F858823C1F458
:1008300089E390E09093CB018093CA01AAE3B0E0F2
:10084000EAE3F0E08081982F8885809589238C9356
:10085000ABE3B0E0EBE3F0E090818885892B8C93EB
:100860008F858031C1F486E390E09093CB01809333
:10087000CA01A7E3B0E0E7E3F0E08081982F888524
:10088000809589238C93A8E3B0E0E8E3F0E09081C1
:100890008885892B8C938F858032C1F483E390E027
:1008A0009093CB018093CA01A4E3B0E0E4E3F0E0CD
:1008B0008081982F8885809589238C93A5E3B0E06B
:1008C000E5E3F0E090818885892B8C938F858033D8
:1008D000C1F480E390E09093CB018093CA01A1E33F
:1008E000B0E0E1E3F0E08081982F8885809589234E
:1008F0008C93A2E3B0E0E2E3F0E090818885892B5D
:100900008C938889807F888B88898823C1F489E3C8
:1009100090E09093CD018093CC01AAE3B0E0EAE3AC
:10092000F0E08081982F8F81809589238C93ABE3B1
:10093000B0E0EBE3F0E090818F81892B8C93888984
:100940008031C1F486E390E09093CD018093CC0197
:10095000A7E3B0E0E7E3F0E08081982F8F818095F6
:1009600089238C93A8E3B0E0E8E3F0E090818F81E5
:10097000892B8C9388898032C1F483E390E0909333
:10098000CD018093CC01A4E3B0E0E4E3F0E080810A
:10099000982F8F81809589238C93A5E3B0E0E5E3C0
:1009A000F0E090818F81892B8C9388898033C1F40A
:1009B00080E390E09093CD018093CC01A1E3B0E07F
:1009C000E1E3F0E08081982F8F81809589238C93DB
:1009D000A2E3B0E0E2E3F0E090818F81892B8C9379
:1009E0008989882F90E09C012F70307081E090E021
:1009F00002C0880F991F2A95E2F78E838E8180931B
:100A0000C1018A89882F90E09C012F70307081E0AD
:100A100090E002C0880F991F2A95E2F78D838D819F
:100A20008093C2018B89882F90E09C012F703070D9
:100A300081E090E002C0880F991F2A95E2F78C832D
:100A40008C818093C3018C89882F90E09C012F704A
:100A5000307081E090E0022E02C0880F991F0A9446
:100A6000E2F78B838B818093C4018989807F898B96
:100A70008989882371F48BE390E09093B801809387
:100A8000B701AAE3B0E0EAE3F0E090818E81892B20
:100A90008C938989803171F488E390E09093B80158
:100AA0008093B701A7E3B0E0E7E3F0E090818E81A7
:100AB000892B8C938989803271F485E390E090933F
:100AC000B8018093B701A4E3B0E0E4E3F0E09081E3
:100AD0008E81892B8C938989803371F482E390E035
:100AE0009093B8018093B701A1E3B0E0E1E3F0E0B7
:100AF00090818E81892B8C938A89807F8A8B8A89C9
:100B0000882371F48BE390E09093BA018093B9014C
:100B1000AAE3B0E0EAE3F0E090818D81892B8C9329
:100B20008A89803171F488E390E09093BA018093D0
:100B3000B901A7E3B0E0E7E3F0E090818D81892B74
:100B40008C938A89803271F485E390E09093BA01A6
:100B50008093B901A4E3B0E0E4E3F0E090818D81FB
:100B6000892B8C938A89803371F482E390E090938F
:100B7000BA018093B901A1E3B0E0E1E3F0E0908134
:100B80008D81892B8C938B89807F8B8B8B8988239C
:100B900071F48BE390E09093BC018093BB01AAE3D6
:100BA000B0E0EAE3F0E090818C81892B8C938B8913
:100BB000803171F488E390E09093BC018093BB0195
:100BC000A7E3B0E0E7E3F0E090818C81892B8C9380
:100BD0008B89803271F485E390E09093BC0180931F
:100BE000BB01A4E3B0E0E4E3F0E090818C81892BC9
:100BF0008C938B89803371F482E390E09093BC01F5
:100C00008093BB01A1E3B0E0E1E3F0E090818C814F
:100C1000892B8C938C89807F8C8B8C89882371F4B1
:100C20008BE390E09093BE018093BD01AAE3B0E016
:100C3000EAE3F0E090818B81892B8C938C89803161
:100C400071F488E390E09093BE018093BD01A7E327
:100C5000B0E0E7E3F0E090818B81892B8C938C8965
:100C6000803271F485E390E09093BE018093BD01E2
:100C7000A4E3B0E0E4E3F0E090818B81892B8C93D6
:100C80008C89803371F482E390E09093BE0180936D
:100C9000BD01A1E3B0E0E1E3F0E090818B81892B1D
:100CA0008C931C861FC08C85882F90E0880F991F1D
:100CB000FC01E954FE4F808191819A8389838C8560
:100CC000882F90E0FC01EF53FE4F80818B87E981F4
:100CD000FA8190818B85892BE981FA8180838C85CB
:100CE0008F5F8C878C858430F0F2EAE3F0E080EF50
:100CF0008083EBE3F0E08FE0808364960FB6F89496
:100D0000DEBF0FBECDBFCF91DF910F91EF90CF909F
:100D1000AF900895DF93CF93CDB7DEB729970FB685
:100D2000F894DEBF0FBECDBF80E18F831E8256C018
:100D30008E81882F90E0880F991FFC01E954FE4FA7
:100D4000808191819C838B838E81882F90E0FC0130
:100D5000EF53FE4F80818987EB81FC818081982F42
:100D6000898580958923EB81FC8180831D8228C041
:100D70008D81882F90E0880F991FFC01EA53FE4F68
:100D8000808191819A8389838D81882F90E0FC01F5
:100D9000EE54FE4F80818887E981FA8190818885B1
:100DA0008923882351F49E818E81980F8E81980F1C
:100DB0008E81980F8D81890F8F838D818F5F8D83B9
:100DC0008D818430A8F2EB81FC8190818985892B0B
:100DD000EB81FC8180838E818F5F8E838E81843056
:100DE00008F4A6CF8F8129960FB6F894DEBF0FBE08
:100DF000CDBFCF91DF9108950F93DF93CF93CDB700
:100E0000DEB72B970FB6F894DEBF0FBECDBF8F8332
:100E1000688749872A870B878885882F90E09C01FF
:100E20002F70307081E090E002C0880F991F2A95E2
:100E3000E2F78E838F81882F90E0FC01E059FD4F0F
:100E40008E8180838A85882F90E09C012F7030707E
:100E500081E090E002C0880F991F2A95E2F78C8309
:100E60008F81882F90E0FC01E455FD4F8C818083B9
:100E70008985882F90E09C012F70307081E090E090
:100E800002C0880F991F2A95E2F78D838F81882FE2
:100E900090E0FC01E856FD4F8D8180838B85882F83
:100EA00090E09C012F70307081E090E0022E02C033
:100EB000880F991F0A94E2F78B838F81882F90E027
:100EC000FC01EC57FD4F8B8180838885807F88876C
:100ED00088858823A1F48F81882F90E0880F991F3F
:100EE000FC01E05EFD4F8BE390E091838083AAE3F9
:100EF000B0E0EAE3F0E090818E81892B8C938885C5
:100F00008031A1F48F81882F90E0880F991FFC0118
:100F1000E05EFD4F88E390E091838083A7E3B0E03B
:100F2000E7E3F0E090818E81892B8C938885803275
:100F3000A1F48F81882F90E0880F991FFC01E05E5B
:100F4000FD4F85E390E091838083A4E3B0E0E4E388
:100F5000F0E090818E81892B8C9388858033A1F479
:100F60008F81882F90E0880F991FFC01E05EFD4F74
:100F700082E390E091838083A1E3B0E0E1E3F0E0DD
:100F800090818E81892B8C938A85807F8A878A8540
:100F90008823A1F48F81882F90E0880F991FFC018E
:100FA000E053FE4F8BE390E091838083AAE3B0E0AF
:100FB000EAE3F0E090818C81892B8C938A858031E3
:100FC000A1F48F81882F90E0880F991FFC01E053D6
:100FD000FE4F88E390E091838083A7E3B0E0E7E3EE
:100FE000F0E090818C81892B8C938A858032A1F4EA
:100FF0008F81882F90E0880F991FFC01E053FE4FEE
:1010000085E390E091838083A4E3B0E0E4E3F0E043
:1010100090818C81892B8C938A858033A1F48F8178
:10102000882F90E0880F991FFC01E053FE4F82E368
:1010300090E091838083A1E3B0E0E1E3F0E0908170
:101040008C81892B8C938985807F898789858823EA
:10105000A1F48F81882F90E0880F991FFC01E85040
:10106000FE4F8BE390E091838083AAE3B0E0EAE354
:10107000F0E090818D81892B8C9389858031A1F45A
:101080008F81882F90E0880F991FFC01E850FE4F58
:1010900088E390E091838083A7E3B0E0E7E3F0E0AA
:1010A00090818D81892B8C9389858032A1F48F81E9
:1010B000882F90E0880F991FFC01E850FE4F85E3D0
:1010C00090E091838083A4E3B0E0E4E3F0E09081DA
:1010D0008D81892B8C9389858033A1F48F81882F12
:1010E00090E0880F991FFC01E850FE4F82E390E0EA
:1010F00091838083A1E3B0E0E1E3F0E090818D8112
:10110000892B8C938B85807F8B878B858823A1F49B
:101110008F81882F90E0880F991FFC01E85BFD4FBD
:101120008BE390E091838083AAE3B0E0EAE3F0E010
:1011300090818B81892B8C938B858031A1F48F8159
:10114000882F90E0880F991FFC01E85BFD4F88E332
:1011500090E091838083A7E3B0E0E7E3F0E0908143
:101160008B81892B8C938B858032A1F48F81882F82
:1011700090E0880F991FFC01E85BFD4F85E390E04C
:1011800091838083A4E3B0E0E4E3F0E090818B817D
:10119000892B8C938B858033A1F48F81882F90E0ED
:1011A000880F991FFC01E85BFD4F82E390E091837B
:1011B0008083A1E3B0E0E1E3F0E090818B81892BB3
:1011C0008C938F81882F90E0880F991FFC01E85B3A
:1011D000FD4F808191819A838983E981FA818081A1
:1011E000982F8B8180958923E981FA8180832B96C2
:1011F0000FB6F894DEBF0FBECDBFCF91DF910F9138
:101200000895DF93CF93CDB7DEB763970FB6F89409
:10121000DEBF0FBECDBF8F87488B598B6A8B7B8B10
:101220008F85882F90E0880F991FFC01E05EFD4FAD
:10123000808191819E878D878F85882F90E0880F90
:10124000991FFC01E053FE4F808191819A87898725
:101250008F85882F90E0880F991FFC01E850FE4F82
:10126000808191819C878B878F85882F90E0FC01FE
:10127000E059FD4F80818C838F85882F90E0FC01A1
:10128000E455FD4F80818A838F85882F90E0FC0193
:10129000E856FD4F80818B8388899989AA89BB890B
:1012A0008D839E83AF83B887EB85FC858081982FE3
:1012B0008B8180958923EB85FC858083E985FA8580
:1012C0008081982F8A8180958923E985FA8580839A
:1012D000ED85FE858081982F8C8180958923ED8511
:1012E000FE85808319823AC08D819E81AF81B88549
:1012F000BB235CF0E985FA858081982F8A818095EF
:101300008923E985FA85808308C0E985FA8590817B
:101310008A81892BE985FA858083ED85FE85908118
:101320008C81892BED85FE858083ED85FE8580810E
:10133000982F8C8180958923ED85FE8580838D8112
:101340009E81AF81B885880F991FAA1FBB1F8D830F
:101350009E83AF83B88789818F5F8983898180323B
:1013600018F2EB85FC8590818B81892BEB85FC85C0
:101370008083EB85FC858081982F8B8180958923E4
:10138000EB85FC85808363960FB6F894DEBF0FBEB5
:10139000CDBFCF91DF910895DF93CF93CDB7DEB767
:1013A0002A970FB6F894DEBF0FBECDBF88877A8725
:1013B000698719821A821B821C8289859A8527E295
:1013C0008131920790F08CE591E7A8E3BCE5898331
:1013D0009A83AB83BC8329813A814B815C81888568
:1013E000BA01A9010E940109ABC089859A859E8333
:1013F0008D838D819E8123E0883E920704F11F82B8
:1014000009C08F818F5F8F8389859A85885E93401D
:101410009A87898789859A8523E0883E920788F78D
:101420008F81882F90E0FC01E55CFE4F8081882F42
:1014300090E0A0E0B0E089839A83AB83BC838D8188
:101440009E81843691055CF11F8209C08F818F5F78
:101450008F8389859A85845690409A878987898564
:101460009A858436910590F78F81882F90E0FC0152
:10147000E55CFE4F8081882F90E0A0E0B0E022275D
:10148000382F492F5A2F89819A81AB81BC81822BB9
:10149000932BA42BB52B89839A83AB83BC838D813B
:1014A0009E818A3091054CF11F8208C08F818F5F29
:1014B0008F8389859A850A979A87898789859A85EE
:1014C0008A30910598F78F81882F90E0FC01E55CC8
:1014D000FE4F8081882F90E0A0E0B0E0AC01332780
:1014E000222789819A81AB81BC81822B932BA42BEB
:1014F000B52B89839A83AB83BC8389859A85FC014C
:10150000E55CFE4F8081882F90E0A0E0B0E0582F8E
:1015100044273327222789819A81AB81BC81822B82
:10152000932BA42BB52B89839A83AB83BC8329810E
:101530003A814B815C818885BA01A9010E94010929
:101540002A960FB6F894DEBF0FBECDBFCF91DF91C4
:101550000895DF93CF93CDB7DEB72A970FB6F894EF
:10156000DEBF0FBECDBF88877A8769871C821D8248
:101570001E821F8289859A859B838A8389859A85A5
:1015800027E28031920794F08CE591E7A8E3BCE56F
:101590008C839D83AE83BF832C813D814E815F818F
:1015A0008885BA01A9010E940109D3C089859A855D
:1015B0002CEF8931920794F48CE191E7A8E3BCE524
:1015C0008C839D83AE83BF832C813D814E815F815F
:1015D0008885BA01A9010E940109BBC089859A8545
:1015E000181619067CF089859A85909581959F4FEC
:1015F0009A87898780E490E0A0E0B0E08C839D83A7
:10160000AE83BF8389859A8523E0883E920704F1E3
:10161000198209C089818F5F898389859A85885E4F
:1016200093409A87898789859A8523E0883E920727
:101630008CF78981882F90E0FC01E55CFE4F80816A
:10164000882F90E0A0E0B0E08C839D83AE83BF83C1
:101650008A819B81843691055CF1198209C0898158
:101660008F5F898389859A85845690409A87898778
:1016700089859A858436910594F78981882F90E031
:10168000FC01E55CFE4F8081882F90E0A0E0B0E097
:101690002227382F492F5A2F8C819D81AE81BF81FF
:1016A000822B932BA42BB52B8C839D83AE83BF837E
:1016B0008A819B818A3091054CF1198208C0898109
:1016C0008F5F898389859A850A979A878987898513
:1016D0009A858A3091059CF78981882F90E0FC01DA
:1016E000E55CFE4F8081882F90E0A0E0B0E0AC0187
:1016F000332722278C819D81AE81BF81822B932B42
:10170000A42BB52B8C839D83AE83BF8389859A855B
:10171000FC01E55CFE4F8081882F90E0A0E0B0E006
:10172000582F4427332722278C819D81AE81BF818A
:10173000822B932BA42BB52B8C839D83AE83BF83ED
:101740002C813D814E815F818885BA01A9010E946B
:1017500001092A960FB6F894DEBF0FBECDBFCF9118
:10176000DF910895DF93CF93CDB7DEB728970FB6FB
:10177000F894DEBF0FBECDBF8E8378876F83EF8175
:10178000F885808189838981882F90E0807F90709F
:101790008033910599F48981805389838981882FC9
:1017A00090E0FC01E55CFE4F8081882F90E0A0E096
:1017B000B0E08A839B83AC83BD8313C08981806240
:1017C000815689838981882F90E0FC01EA5AFE4F77
:1017D0008081882F90E0A0E0B0E08A839B83AC8377
:1017E000BD838F819885FC013196808189838981B1
:1017F000882F90E0807F907080339105B9F48981C3
:10180000805389838981882F90E0FC01E55CFE4F3D
:101810008081882F90E0A0E0B0E0BA2FA92F982F08
:1018200088278A839B83AC83BD831FC089818062A4
:10183000815689838981882F90E0FC01EA5AFE4F06
:101840008081882F90E0A0E0B0E02227382F492F38
:101850005A2F8A819B81AC81BD81822B932BA42B33
:10186000B52B8A839B83AC83BD838F819885FC01D4
:101870003296808189838981882F90E0807F907063
:1018800080339105B1F48981805389838981882FC0
:1018900090E0FC01E55CFE4F8081882F90E0A0E0A5
:1018A000B0E0DC01992788278A839B83AC83BD83C2
:1018B0001EC089818062815689838981882F90E04A
:1018C000FC01EA5AFE4F8081882F90E0A0E0B0E052
:1018D000AC01332722278A819B81AC81BD81822B79
:1018E000932BA42BB52B8A839B83AC83BD838F81E1
:1018F0009885FC013396808189838981882F90E0C7
:10190000807F907080339105B9F4898180538983F9
:101910008981882F90E0FC01E55CFE4F8081882F53
:1019200090E0A0E0B0E0B82FAA27992788278A8303
:101930009B83AC83BD831FC089818062815689836C
:101940008981882F90E0FC01EA5AFE4F8081882F20
:1019500090E0A0E0B0E0582F4427332722278A8167
:101960009B81AC81BD81822B932BA42BB52B8A83C9
:101970009B83AC83BD832A813B814C815D818E81B9
:10198000BA01A9010E94010928960FB6F894DEBF9A
:101990000FBECDBFCF91DF910895DF93CF93CDB729
:1019A000DEB7A091D102B091D202E091D102F091C4
:1019B000D20290818091E202892B8C93A091C9027E
:1019C000B091CA02E091C902F091CA02908180915F
:1019D000DA02892B8C9300C0A091D102B091D2027F
:1019E000E091D102F091D2028081982F8091E202A1
:1019F000809589238C93A091C902B091CA02E0918D
:101A0000C902F091CA028081982F8091DA028095F4
:101A100089238C93CF91DF910895DF93CF9300D0EA
:101A2000CDB7DEB789836A838A81882371F0A0915C
:101A3000C502B091C602E091C502F091C602908144
:101A40008091C202892B8C930FC0A091C502B091E6
:101A5000C602E091C502F091C6028081982F809164
:101A6000C202809589238C93A091C702B091C802CD
:101A7000E091C702F091C8028081982F8091E30223
:101A8000809589238C93A091DB02B091DC02E091D8
:101A9000DB02F091DC0290818091D702892B8C933C
:101AA000A091DD02B091DE02E091DD02F091DE0254
:101AB00090818091E102892B8C93A091C002B0911A
:101AC000C102E091C002F091C10290818091E602D2
:101AD000892B8C93A091CF02B091D002E091CF02DC
:101AE000F091D00290818091E702892B8C93A09194
:101AF000D802B091D902E091D802F091D902808148
:101B0000982F8091D702809589238C93A091C3024E
:101B1000B091C402E091C302F091C4028081982F79
:101B20008091E102809589238C93A091CB02B091A2
:101B3000CC02E091CB02F091CC028081982F809171
:101B4000E602809589238C93A091D302B091D402B0
:101B5000E091D302F091D4028081982F8091E70226
:101B6000809589238C93898188236CF4A091D3027A
:101B7000B091D402E091D302F091D402908180918F
:101B8000E702892B8C938981882F90E08074907074
:101B9000009769F0A091CB02B091CC02E091CB020A
:101BA000F091CC0290818091E602892B8C938981FF
:101BB000882F90E080729070009769F0A091C30226
:101BC000B091C402E091C302F091C402908180916F
:101BD000E102892B8C938981882F90E0807190702D
:101BE000009769F0A091D802B091D902E091D80293
:101BF000F091D90290818091D702892B8C930E9419
:101C0000CD0CA091D802B091D902E091D802F09108
:101C1000D9028081982F8091D702809589238C9357
:101C2000A091C302B091C402E091C302F091C4023A
:101C30008081982F8091E102809589238C93A091D7
:101C4000CB02B091CC02E091CB02F091CC0280812A
:101C5000982F8091E602809589238C93A091D302DE
:101C6000B091D402E091D302F091D4028081982FF8
:101C70008091E702809589238C938981882F90E059
:101C800088709070009769F0A091D302B091D4024F
:101C9000E091D302F091D40290818091E702892BE8
:101CA0008C938981882F90E084709070009769F000
:101CB000A091CB02B091CC02E091CB02F091CC028A
:101CC00090818091E602892B8C938981882F90E006
:101CD00082709070009769F0A091C302B091C40225
:101CE000E091C302F091C40290818091E102892BBE
:101CF0008C938981882F90E081709070882369F09F
:101D0000A091D802B091D902E091D802F091D90205
:101D100090818091D702892B8C930E94CD0CA09149
:101D2000D802B091D902E091D802F091D902908105
:101D30008091D702892B8C93A091C302B091C402E9
:101D4000E091C302F091C40290818091E102892B5D
:101D50008C93A091CB02B091CC02E091CB02F09198
:101D6000CC0290818091E602892B8C93A091D302C2
:101D7000B091D402E091D302F091D402908180918D
:101D8000E702892B8C930F900F90CF91DF910895EC
:101D9000DF93CF9300D0CDB7DEB78A838A818823C3
:101DA00071F0A091C502B091C602E091C502F09118
:101DB000C60290818091C202892B8C930FC0A091A2
:101DC000C502B091C602E091C502F091C6028081C1
:101DD000982F8091C202809589238C93A091C7028D
:101DE000B091C802E091C702F091C8029081809141
:101DF000E302892B8C93A091DB02B091DC02E0918D
:101E0000DB02F091DC028081982F8091D7028095CF
:101E100089238C93A091DD02B091DE02E091DD0276
:101E2000F091DE028081982F8091E10280958923D4
:101E30008C93A091C002B091C102E091C002F091D8
:101E4000C1028081982F8091E602809589238C932E
:101E5000A091CF02B091D002E091CF02F091D002D8
:101E60008081982F8091E702809589238C93A0919F
:101E7000D102B091D202E091D102F091D2029081D0
:101E80008091E202892B8C93A091C902B091CA0281
:101E9000E091C902F091CA0290818091DA02892B07
:101EA0008C9300C01982E091CD02F091CE02908116
:101EB0008091D7028923882319F0898180618983E1
:101EC000E091E402F091E50290818091E1028923A2
:101ED000882319F0898180628983E091D502F0918D
:101EE000D60290818091E6028923882319F08981A6
:101EF00080648983E091DF02F091E002908180911B
:101F0000E7028923882319F0898180688983A09159
:101F1000D102B091D202E091D102F091D20280813F
:101F2000982F8091E202809589238C93A091C90219
:101F3000B091CA02E091C902F091CA028081982F43
:101F40008091DA02809589238C9300C0A091D10200
:101F5000B091D202E091D102F091D20290818091B1
:101F6000E202892B8C93A091C902B091CA02E09140
:101F7000C902F091CA0290818091DA02892B8C9378
:101F800000C0E091CD02F091CE0290818091D70205
:101F90008923882319F0898181608983E091E40293
:101FA000F091E50290818091E1028923882319F064
:101FB000898182608983E091D502F091D602908177
:101FC0008091E6028923882319F0898184608983BE
:101FD000E091DF02F091E00290818091E702892395
:101FE000882319F0898188608983A091D102B091FA
:101FF000D202E091D102F091D2028081982F80919B
:10200000E202809589238C93A091C902B091CA0203
:10201000E091C902F091CA028081982F8091DA0282
:10202000809589238C9389810F900F90CF91DF91B8
:102030000895DF93CF93CDB7DEB780E00E94C80E3E
:102040008823DCF367E070E080E090E00E942E10CF
:1020500080E00E94C80ECF91DF910895DF93CF9367
:1020600000D000D0CDB7DEB769837A838B839C83A1
:1020700089819A81AB81BC810097A105B10511F4DA
:1020800000C00AC089819A81AB81BC810197F1F7B8
:1020900089839A83AB83BC830F900F900F900F902E
:1020A000CF91DF910895DF93CF93CDB7DEB7A091A5
:1020B000C902B091CA02E091C902F091CA029081AE
:1020C0008091DA02892B8C93CF91DF910895DF9371
:1020D000CF93CDB7DEB7A091C902B091CA02E0910B
:1020E000C902F091CA028081982F8091DA0280950E
:1020F00089238C93CF91DF910895DF93CF930F9233
:10210000CDB7DEB789830E941910898160E00E94F3
:102110000D0D0F90CF91DF910895DF93CF930F9224
:10212000CDB7DEB789830E941910898161E00E94D2
:102130000D0D0F90CF91DF910895DF93CF9300D0D5
:10214000CDB7DEB789836A838A81882329F48981A0
:1021500080580E947D1014C08A81813029F48981C1
:1021600080540E947D100CC08A81823029F48981BC
:102170008C560E947D1004C089818C520E947D1073
:102180000F900F90CF91DF910895DF93CF93CDB74C
:10219000DEB70E941910882F90E0CF91DF9108954B
:1021A000DF93CF93CDB7DEB781E00E947D10CF9152
:1021B000DF910895DF93CF93CDB7DEB782E00E9421
:1021C0007D10CF91DF910895DF93CF9300D0CDB7ED
:1021D000DEB78A830E94191089838A818A3021F4AC
:1021E00089810E94FD1004C08A8161E00E940D0D6A
:1021F0000F900F90CF91DF910895DF93CF9300D090
:10220000CDB7DEB789838981843118F480E48A836D
:1022100013C08981803430F08981843518F484E1D9
:102220008A830AC08981843130F08981803418F42E
:1022300084E58A8301C01A828A8180580E947D10B9
:102240000F900F90CF91DF910895DF93CF9300D03F
:1022500000D0CDB7DEB79A83898303C08B810E94FB
:10226000E410E981FA8180818B838B818C838C815E
:10227000882311F081E08C838C8129813A812F5F42
:102280003F4F3A832983882349F70F900F900F908F
:102290000F90CF91DF910895DF93CF9300D000D0BE
:1022A00000D0CDB7DEB79D838C8303C08E810E94A2
:1022B000E4108C819D819B838A838C819D81019612
:1022C0009D838C83EA81FB818491898389818E83BC
:1022D0008E81882359F726960FB6F894DEBF0FBE7D
:1022E000CDBFCF91DF910895AF92CF92EF920F9330
:1022F000DF93CF93CDB7DEB728970FB6F894DEBF44
:102300000FBECDBF89836A834B832C830D83EE82FE
:10231000CF82A8868981882F90E09C012F70307031
:1023200081E090E002C0880F991F2A95E2F7809320
:10233000C2028A81882F90E09C012F70307081E06A
:1023400090E002C0880F991F2A95E2F78093E3027C
:102350008B81882F90E09C012F70307081E090E09D
:1023600002C0880F991F2A95E2F78093E2028C81C0
:10237000882F90E09C012F70307081E090E002C0C7
:10238000880F991F2A95E2F78093DA028D81882FB2
:1023900090E09C012F70307081E090E002C0880FC7
:1023A000991F2A95E2F78093D7028E81882F90E0BB
:1023B0009C012F70307081E090E002C0880F991F5F
:1023C0002A95E2F78093E1028F81882F90E09C01AB
:1023D0002F70307081E090E002C0880F991F2A951D
:1023E000E2F78093E6028885882F90E09C012F70A9
:1023F000307081E090E0022E02C0880F991F0A948D
:10240000E2F78093E7028981807F8983898188232D
:1024100079F48BE390E09093C6028093C502AAE31F
:10242000B0E0EAE3F0E090818091C202892B8C93C6
:102430008981803179F488E390E09093C60280939B
:10244000C502A7E3B0E0E7E3F0E090818091C2022B
:10245000892B8C938981803279F485E390E0909385
:10246000C6028093C502A4E3B0E0E4E3F0E090810B
:102470008091C202892B8C938981803379F482E325
:1024800090E09093C6028093C502A1E3B0E0E1E33F
:10249000F0E090818091C202892B8C938A81807FA9
:1024A0008A838A81882379F48BE390E09093C80231
:1024B0008093C702AAE3B0E0EAE3F0E09081809164
:1024C000E302892B8C938A81803179F488E390E050
:1024D0009093C8028093C702A7E3B0E0E7E3F0E07F
:1024E00090818091E302892B8C938A81803279F4E8
:1024F00085E390E09093C8028093C702A4E3B0E024
:10250000E4E3F0E090818091E302892B8C938A814F
:10251000803379F482E390E09093C8028093C702FD
:10252000A1E3B0E0E1E3F0E090818091E302892B48
:102530008C938B81807F8B838B81882379F48BE3D1
:1025400090E09093D2028093D102AAE3B0E0EAE354
:10255000F0E090818091E202892B8C938B81803115
:1025600079F488E390E09093D2028093D102A7E3BC
:10257000B0E0E7E3F0E090818091E202892B8C9358
:102580008B81803279F485E390E09093D20280933E
:10259000D102A4E3B0E0E4E3F0E090818091E202B4
:1025A000892B8C938B81803379F482E390E0909334
:1025B000D2028093D102A1E3B0E0E1E3F0E09081A8
:1025C0008091E202892B8C938C81807F8C838C811B
:1025D000882379F48BE390E09093CA028093C90238
:1025E000AAE3B0E0EAE3F0E090818091DA02892B7F
:1025F0008C938C81803179F488E390E09093CA02C7
:102600008093C902A7E3B0E0E7E3F0E09081809116
:10261000DA02892B8C938C81803279F485E390E007
:102620009093CA028093C902A4E3B0E0E4E3F0E02F
:1026300090818091DA02892B8C938C81803379F49C
:1026400082E390E09093CA028093C902A1E3B0E0D4
:10265000E1E3F0E090818091DA02892B8C938D8107
:10266000807F8D838D818823D9F48BE390E09093D4
:10267000D9028093D80289E390E09093CE028093B0
:10268000CD028AE390E09093DC028093DB02AAE320
:10269000B0E0EAE3F0E090818091D702892B8C933F
:1026A0008D818031D9F488E390E09093D9028093B2
:1026B000D80286E390E09093CE028093CD0287E328
:1026C00090E09093DC028093DB02A7E3B0E0E7E3C5
:1026D000F0E090818091D702892B8C938D8180329C
:1026E000D9F485E390E09093D9028093D80283E3F4
:1026F00090E09093CE028093CD0284E390E090939B
:10270000DC028093DB02A4E3B0E0E4E3F0E090813C
:102710008091D702892B8C938D818033D9F482E309
:1027200090E09093D9028093D80280E390E0909358
:10273000CE028093CD0281E390E09093DC028093FF
:10274000DB02A1E3B0E0E1E3F0E090818091D70209
:10275000892B8C938E81807F8E838E818823D9F400
:102760008BE390E09093C4028093C30289E390E0EE
:102770009093E5028093E4028AE390E09093DE0276
:102780008093DD02AAE3B0E0EAE3F0E0908180917B
:10279000E102892B8C938E818031D9F488E390E01B
:1027A0009093C4028093C30286E390E09093E50285
:1027B0008093E40287E390E09093DE028093DD0251
:1027C000A7E3B0E0E7E3F0E090818091E102892B9C
:1027D0008C938E818032D9F485E390E09093C4028B
:1027E0008093C30283E390E09093E5028093E40238
:1027F00084E390E09093DE028093DD02A4E3B0E0F6
:10280000E4E3F0E090818091E102892B8C938E814A
:102810008033D9F482E390E09093C4028093C302A2
:1028200080E390E09093E5028093E40281E390E0FE
:102830009093DE028093DD02A1E3B0E0E1E3F0E0FB
:1028400090818091E102892B8C938F81807F8F838F
:102850008F818823D9F48BE390E09093CC0280930E
:10286000CB0289E390E09093D6028093D5028AE36D
:1028700090E09093C1028093C002AAE3B0E0EAE343
:10288000F0E090818091E602892B8C938F818031DA
:10289000D9F488E390E09093CC028093CB0286E356
:1028A00090E09093D6028093D50287E390E09093D6
:1028B000C1028093C002A7E3B0E0E7E3F0E09081BB
:1028C0008091E602892B8C938F818032D9F485E345
:1028D00090E09093CC028093CB0283E390E09093BE
:1028E000D6028093D50284E390E09093C102809356
:1028F000C002A4E3B0E0E4E3F0E090818091E6025E
:10290000892B8C938F818033D9F482E390E090936C
:10291000CC028093CB0280E390E09093D602809328
:10292000D50281E390E09093C1028093C002A1E3BD
:10293000B0E0E1E3F0E090818091E602892B8C9396
:102940008885807F888788858823D9F48BE390E009
:102950009093D4028093D30289E390E09093E002B5
:102960008093DF028AE390E09093D0028093CF02BD
:10297000AAE3B0E0EAE3F0E090818091E702892BDE
:102980008C9388858031D9F488E390E09093D402C9
:102990008093D30286E390E09093E0028093DF027D
:1029A00087E390E09093D0028093CF02A7E3B0E05A
:1029B000E7E3F0E090818091E702892B8C93888592
:1029C0008032D9F485E390E09093D4028093D302CF
:1029D00083E390E09093E0028093DF0284E390E051
:1029E0009093D0028093CF02A4E3B0E0E4E3F0E060
:1029F00090818091E702892B8C9388858033D9F46C
:102A000082E390E09093D4028093D30280E390E03D
:102A10009093E0028093DF0281E390E09093D002F4
:102A20008093CF02A1E3B0E0E1E3F0E090818091F8
:102A3000E702892B8C9328960FB6F894DEBF0FBE61
:102A4000CDBFCF91DF910F91EF90CF90AF900895D0
:102A5000DF93CF930F92CDB7DEB7898360EF7AEF24
:102A600082E090E00E942E10A091D802B091D9028D
:102A7000E091D802F091D9028081982F8091D702FD
:102A8000809589238C93A091C302B091C402E091F8
:102A9000C302F091C40290818091E102892B8C9352
:102AA000A091CB02B091CC02E091CB02F091CC028C
:102AB0008081982F8091E602809589238C93A09144
:102AC000D302B091D402E091D302F091D40280817C
:102AD000982F8091E702809589238C930E94CD0CDA
:102AE0006CE27CE480E090E00E942E100E94CD0C0D
:102AF00069E472E080E090E00E942E100E94CD0C0C
:102B000069E472E080E090E00E942E10A091D8026B
:102B1000B091D902E091D802F091D9028081982F2A
:102B20008091D702809589238C930E94CD0C69E413
:102B300072E080E090E00E942E108FE00E947D10F5
:102B400088E20E947D100E94D01086E00E947D10D5
:102B50000E94531089810E947D100F90CF91DF91C8
:102B60000895DF93CF93CDB7DEB7E0E4F0E01082B5
:102B7000E9E2F0E087E68083EAE2F0E088E1808342
:102B8000E0E4F0E086E880831092080310920903E5
:102B9000AAE2B0E0EAE2F0E0808180688C93789469
:102BA000CF91DF910895DF93CF930F92CDB7DEB72A
:102BB0008983EBE2F0E08081882F90E08072907052
:102BC0000097B9F3ECE2F0E0898180830F90CF9118
:102BD000DF910895DF93CF9300D000D0CDB7DEB75B
:102BE0009A83898303C08B810E94D315E981FA817E
:102BF00080818B838B818C838C81882311F081E091
:102C00008C838C8129813A812F5F3F4F3A832983BE
:102C1000882349F70F900F900F900F90CF91DF917D
:102C20000895DF93CF93CDB7DEB7E8970FB6F8944A
:102C3000DEBF0FBECDBFCE01CF969E8B8D8B8DADEF
:102C40009EAD9C8B8B8B74C1EB89FC898081853216
:102C500031F0EB89FC8980810E94D31564C18B8996
:102C60009C8901969C8B8B8BEB89FC898081282F1A
:102C700030E038AF2FAB8FA998AD8936910509F4B4
:102C800047C02FA938AD2A363105F4F48FA998AD85
:102C90008535910509F470C02FA938AD2635310569
:102CA0003CF48FA998AD8C34910509F4A8C036C1C5
:102CB0002FA938AD2336310509F4E5C08FA998ADA9
:102CC0008436910529F12AC12FA938AD2337310562
:102CD00009F4E8C08FA998AD843791056CF42FA949
:102CE00038AD2C36310509F468C08FA998AD80370E
:102CF000910509F4F0C012C12FA938AD253731056F
:102D000009F18FA998AD8837910509F4A2C006C1D1
:102D10002D893E89C90102969E8B8D8BF901808198
:102D20009181988B8F878F8598899E01295E3F4F6F
:102D3000B9014AE050E00E940418CE0147960E9473
:102D4000EA15F1C02D893E89C90102969E8B8D8BB3
:102D5000F901808191819A83898389819A819E0179
:102D6000295E3F4FB9014AE050E00E947E18CE0133
:102D700047960E94EA15D7C02D893E89C90104965D
:102D80009E8B8D8BF90180819181A281B3819A8381
:102D9000898389819A81CC01A0E0B0E09E01295EFF
:102DA0003F4FBC01CD01A9012AE030E00E94591833
:102DB000CE0147960E94EA15B6C02D893E89C90109
:102DC00004969E8B8D8BF90180819181A281B381C4
:102DD0008B879C87AD87BE878B859C85AD85BE859F
:102DE0009E01295E3F4FBC01CD01A9012AE030E0E0
:102DF0000E942518CE0147960E94EA1594C02D899D
:102E00003E89C90108969E8B8D8BF90180818B8349
:102E100081818C8382818D8383818E8384818F8362
:102E2000858188878681898787818A878B819C8134
:102E3000AD81BE819E01295E3F4FBC01CD01A9013C
:102E40002AE030E00E942518CE0147960E94EA153C
:102E50006AC02D893E89C90102969E8B8D8BF9012E
:102E600080819181988B8F878F8598899E01295EBB
:102E70003F4FB90140E150E00E940418CE0147964F
:102E80000E94EA1550C02D893E89C90102969E8B89
:102E90008D8BF90180819181988B8F878F850E941E
:102EA000D31541C02D893E89C90102969E8B8D8B19
:102EB000F901808191819A8B898B89899A89009700
:102EC00029F48DEA91E00E94EA152DC089899A893A
:102ED0000E94EA1528C02D893E89C90102969E8B61
:102EE0008D8BF901808191819A8B898B89899A894F
:102EF000009729F48DEA91E00E94EA1514C08989AF
:102F00009A899E01295E3F4FB90140E150E00E943D
:102F10000418CE0147960E94EA1505C0EB89FC898A
:102F200080810E94D3158B899C8901969C8B8B8B09
:102F3000EB89FC898081882309F086CEE8960FB65C
:102F4000F894DEBF0FBECDBFCF91DF9108951F92E1
:102F50000F920FB60F9211242F933F934F935F93CD
:102F60006F937F938F939F93AF93BF93EF93FF9351
:102F7000DF93CF930F92CDB7DEB7ECE2F0E0808124
:102F8000898380910903882F90E0FC01E851FD4F6F
:102F900089818083809109038F5F809309038091E9
:102FA0000903803210F01092090389818D3019F0E5
:102FB00089818A3019F481E08093080389810E9415
:102FC000D3150F90CF91DF91FF91EF91BF91AF910A
:102FD0009F918F917F916F915F914F913F912F9131
:102FE0000F900FBE0F901F901895DF93CF93CDB722
:102FF000DEB7EBE2F0E080818823DCF7ECE2F0E082
:103000008081CF91DF910895FB019F01E8944230C8
:10301000C4F04532B4F44A3029F497FB1EF490957D
:1030200081959F4F642F77270E94A418805D8A3373
:103030000CF0895D8193CB010097A1F716F45DE256
:1030400051931082C9010C949418FA01CF93FF9305
:10305000EF93223044F1253234F5C22FE894CA3080
:1030600049F497FB3EF490958095709561957F4F5C
:103070008F4F9F4F2C2F332744275527FF93EF93D4
:103080000E94B818EF91FF91605D6A330CF0695DA2
:103090006193B901CA01605070408040904051F77F
:1030A00016F4CDE2C19310828F919F91CF910C9431
:1030B0009418FA01CF93FF93EF932230CCF025328E
:1030C000BCF4C22F2C2F332744275527FF93EF93AF
:1030D0000E94B818EF91FF91605D6A330CF0695D52
:1030E0006193B901CA01605070408040904051F72F
:1030F00010828F919F91CF910C949418FB019F01A6
:10310000423074F0453264F4642F77270E94A4188B
:10311000805D8A330CF0895D8193CB010097A1F724
:103120001082C9010C949418DC01FC01672F719185
:103130007723E1F7329704C07C916D93708362919D
:10314000AE17BF07C8F30895AA1BBB1B51E107C008
:10315000AA1FBB1FA617B70710F0A61BB70B881F27
:10316000991F5A95A9F780959095BC01CD010895B6
:10317000A1E21A2EAA1BBB1BFD010DC0AA1FBB1F7B
:10318000EE1FFF1FA217B307E407F50720F0A21BED
:10319000B30BE40BF50B661F771F881F991F1A945A
:1031A00069F760957095809590959B01AC01BD0184
:0831B000CF010895F894FFCF50
:1031B80001020F0304050E0607080D090A000C0B8F
:1031C800FF0D0A636F756E74657220696E69740D00
:1031D8000A007478737474656B73740066696C6C38
:1031E800007475206C0074752072003F065B4F6692
:1031F8006D7D077F6F003F065B4F666D7D077F6FB4
:103208005F7C585E7B715F7C585E7B716F74040CC9
:10321800763854545C7367506D781C3E7E766E5BCE
:10322800006123436200000000000000000000006D
:103238000000000000000000000000004C54581C72
:103248000000000000000000000000000000000076
:10325800000000000000003E3D3B372F1F4E554C3C
:023268004C0018
:00000001FF
