:100000000C9446000C9465000C9465000C946500FB
:100010000C9465000C9465000C9465000C946500CC
:100020000C9465000C9465000C9465000C946500BC
:100030000C9465000C9465000C9465000C946500AC
:100040000C9465000C9465000C9465000C9465009C
:100050000C9465000C9465000C9465000C9465008C
:100060000C9465000C9465000C9465000C9465007C
:100070000C9465000C9465000C9465000C9465006C
:100080000C9465000C9465000C94650011241FBE4F
:10009000CFEFD0E1DEBFCDBF11E0A0E0B1E0ECE0FA
:1000A000F5E100E00BBF02C007900D92A238B10746
:1000B000D9F712E0A2E8B1E001C01D92A039B10762
:1000C000E1F70E9467000C94840A0C940000AF9240
:1000D000CF92EF920F93DF93CF9300D000D0CDB7A4
:1000E000DEB7E7E3F0E01082E8E3F0E08FEF808333
:1000F000E4E3F0E08FEF808380E066E240E224E218
:1001000002E00E94E40480E061E042E023E004E0D9
:100110000F2EF5E0EF2EF02D0F2EF6E0CF2EF02D66
:100120000F2EF7E0AF2EF02D0E94C100EBE3F0E0C0
:100130008FEB80830E947204882F90E09C838B83D6
:100140008B819C81FC01E050FF4F8081882F90E0E3
:100150009A83898329813A8180E0B9010E94B4079A
:10016000E9CFDF93CF930F92CDB7DEB782E18983DA
:10017000E6E3F0E08081898389810F90CF91DF9160
:100180000895AF92CF92EF920F93DF93CF93CDB7B5
:10019000DEB764970FB6F894DEBF0FBECDBF8D8774
:1001A0006E874F87288B098BEA8ACB8AAC8A8D852C
:1001B000882F90E09C012F70307081E090E002C0A9
:1001C000880F991F2A95E2F78A878A858093820192
:1001D0008E85882F90E09C012F70307081E090E038
:1001E00002C0880F991F2A95E2F789878985809335
:1001F00083018F85882F90E09C012F70307081E003
:1002000090E002C0880F991F2A95E2F788878885B9
:10021000809384018889882F90E09C012F70307032
:1002200081E090E0022E02C0880F991F0A94E2F745
:100230008F838F81809385018D85807F8D878D85CC
:100240008823C1F489E390E090939701809396010D
:10025000AAE3B0E0EAE3F0E08081982F8A858095F8
:1002600089238C93ABE3B0E0EBE3F0E090818A85E7
:10027000892B8C938D858031C1F486E390E0909337
:10028000970180939601A7E3B0E0E7E3F0E0808177
:10029000982F8A85809589238C93A8E3B0E0E8E3C2
:1002A000F0E090818A85892B8C938D858032C1F412
:1002B00083E390E09093970180939601A4E3B0E0EC
:1002C000E4E3F0E08081982F8A85809589238C93E0
:1002D000A5E3B0E0E5E3F0E090818A85892B8C937B
:1002E0008D858033C1F480E390E0909397018093F3
:1002F0009601A1E3B0E0E1E3F0E08081982F8A85E8
:10030000809589238C93A2E3B0E0E2E3F0E0908152
:100310008A85892B8C938E85807F8E878E85882316
:10032000C1F489E390E09093990180939801AAE346
:10033000B0E0EAE3F0E08081982F898580958923F9
:100340008C93ABE3B0E0EBE3F0E090818985892BFF
:100350008C938E858031C1F486E390E0909399016F
:1003600080939801A7E3B0E0E7E3F0E08081982F65
:100370008985809589238C93A8E3B0E0E8E3F0E0D9
:1003800090818985892B8C938E858032C1F483E39B
:1003900090E09093990180939801A4E3B0E0E4E3A6
:1003A000F0E08081982F8985809589238C93A5E33F
:1003B000B0E0E5E3F0E090818985892B8C938E8510
:1003C0008033C1F480E390E0909399018093980189
:1003D000A1E3B0E0E1E3F0E08081982F898580958A
:1003E00089238C93A2E3B0E0E2E3F0E09081898579
:1003F000892B8C938F85807F8F878F858823C1F48D
:1004000089E390E090939B0180939A01AAE3B0E086
:10041000EAE3F0E08081982F8885809589238C938A
:10042000ABE3B0E0EBE3F0E090818885892B8C931F
:100430008F858031C1F486E390E090939B01809397
:100440009A01A7E3B0E0E7E3F0E08081982F888588
:10045000809589238C93A8E3B0E0E8E3F0E09081F5
:100460008885892B8C938F858032C1F483E390E05B
:1004700090939B0180939A01A4E3B0E0E4E3F0E061
:100480008081982F8885809589238C93A5E3B0E09F
:10049000E5E3F0E090818885892B8C938F8580330C
:1004A000C1F480E390E090939B0180939A01A1E3D3
:1004B000B0E0E1E3F0E08081982F88858095892382
:1004C0008C93A2E3B0E0E2E3F0E090818885892B91
:1004D0008C938889807F888B88898823C1F489E3FD
:1004E00090E090939D0180939C01AAE3B0E0EAE341
:1004F000F0E08081982F8F81809589238C93ABE3E6
:10050000B0E0EBE3F0E090818F81892B8C938889B8
:100510008031C1F486E390E090939D0180939C012B
:10052000A7E3B0E0E7E3F0E08081982F8F8180952A
:1005300089238C93A8E3B0E0E8E3F0E090818F8119
:10054000892B8C9388898032C1F483E390E0909367
:100550009D0180939C01A4E3B0E0E4E3F0E080819E
:10056000982F8F81809589238C93A5E3B0E0E5E3F4
:10057000F0E090818F81892B8C9388898033C1F43E
:1005800080E390E090939D0180939C01A1E3B0E013
:10059000E1E3F0E08081982F8F81809589238C930F
:1005A000A2E3B0E0E2E3F0E090818F81892B8C93AD
:1005B0008989882F90E09C012F70307081E090E055
:1005C00002C0880F991F2A95E2F78E838E8180934F
:1005D00091018A89882F90E09C012F70307081E012
:1005E00090E002C0880F991F2A95E2F78D838D81D4
:1005F000809392018B89882F90E09C012F7030703E
:1006000081E090E002C0880F991F2A95E2F78C8361
:100610008C81809393018C89882F90E09C012F70AE
:10062000307081E090E0022E02C0880F991F0A947A
:10063000E2F78B838B81809394018989807F898BFA
:100640008989882371F48BE390E0909388018093EB
:100650008701AAE3B0E0EAE3F0E090818E81892B84
:100660008C938989803171F488E390E090938801BC
:1006700080938701A7E3B0E0E7E3F0E090818E810B
:10068000892B8C938989803271F485E390E0909373
:10069000880180938701A4E3B0E0E4E3F0E0908177
:1006A0008E81892B8C938989803371F482E390E069
:1006B0009093880180938701A1E3B0E0E1E3F0E04B
:1006C00090818E81892B8C938A89807F8A8B8A89FD
:1006D000882371F48BE390E090938A0180938901E1
:1006E000AAE3B0E0EAE3F0E090818D81892B8C935E
:1006F0008A89803171F488E390E090938A01809335
:100700008901A7E3B0E0E7E3F0E090818D81892BD8
:100710008C938A89803271F485E390E090938A010A
:1007200080938901A4E3B0E0E4E3F0E090818D815F
:10073000892B8C938A89803371F482E390E09093C3
:100740008A0180938901A1E3B0E0E1E3F0E09081C8
:100750008D81892B8C938B89807F8B8B8B898823D0
:1007600071F48BE390E090938C0180938B01AAE36A
:10077000B0E0EAE3F0E090818C81892B8C938B8947
:10078000803171F488E390E090938C0180938B0129
:10079000A7E3B0E0E7E3F0E090818C81892B8C93B4
:1007A0008B89803271F485E390E090938C01809383
:1007B0008B01A4E3B0E0E4E3F0E090818C81892B2D
:1007C0008C938B89803371F482E390E090938C0159
:1007D00080938B01A1E3B0E0E1E3F0E090818C81B4
:1007E000892B8C938C89807F8C8B8C89882371F4E6
:1007F0008BE390E090938E0180938D01AAE3B0E0AB
:10080000EAE3F0E090818B81892B8C938C89803195
:1008100071F488E390E090938E0180938D01A7E3BB
:10082000B0E0E7E3F0E090818B81892B8C938C8999
:10083000803271F485E390E090938E0180938D0176
:10084000A4E3B0E0E4E3F0E090818B81892B8C930A
:100850008C89803371F482E390E090938E018093D1
:100860008D01A1E3B0E0E1E3F0E090818B81892B81
:100870008C931C861FC08C85882F90E0880F991F51
:10088000FC01E957FE4F808191819A8389838C8591
:10089000882F90E0FC01EF56FE4F80818B87E98125
:1008A000FA8190818B85892BE981FA8180838C85FF
:1008B0008F5F8C878C858430F0F2EAE3F0E080EF84
:1008C0008083EBE3F0E08FE0808364960FB6F894CA
:1008D000DEBF0FBECDBFCF91DF910F91EF90CF90D4
:1008E000AF900895DF93CF93CDB7DEB762970FB681
:1008F000F894DEBF0FBECDBF8FEF8987188656C034
:100900008885882F90E0880F991FFC01E957FE4FDA
:10091000808191819E838D838885882F90E0FC0162
:10092000EF56FE4F80818B87ED81FE818081982F6D
:100930008B8580958923ED81FE8180831F8228C06D
:100940008F81882F90E0880F991FFC01EA56FE4F97
:10095000808191819C838B838F81882F90E0FC0123
:10096000EE57FE4F80818A87EB81FC8190818A85DA
:100970008923882351F498858885980F8885980F56
:100980008885980F8F81890F89878F818F5F8F83EB
:100990008F818430A8F2ED81FE8190818B85892B37
:1009A000ED81FE81808388858F5F8887888584308C
:1009B00008F4A6CF898562960FB6F894DEBF0FBE05
:1009C000CDBFCF91DF9108950F93DF93CF93CDB734
:1009D000DEB72B970FB6F894DEBF0FBECDBF8F8367
:1009E000688749872A870B878885882F90E09C0134
:1009F0002F70307081E090E002C0880F991F2A9517
:100A0000E2F78E838F81882F90E0FC01E05CFD4F40
:100A10008E8180838A85882F90E09C012F703070B2
:100A200081E090E002C0880F991F2A95E2F78C833D
:100A30008F81882F90E0FC01E458FD4F8C818083EA
:100A40008985882F90E09C012F70307081E090E0C4
:100A500002C0880F991F2A95E2F78D838F81882F16
:100A600090E0FC01E859FD4F8D8180838B85882FB4
:100A700090E09C012F70307081E090E0022E02C067
:100A8000880F991F0A94E2F78B838F81882F90E05B
:100A9000FC01EC5AFD4F8B8180838885807F88879D
:100AA00088858823A1F48F81882F90E0880F991F73
:100AB000FC01E051FE4F8BE390E091838083AAE339
:100AC000B0E0EAE3F0E090818E81892B8C938885F9
:100AD0008031A1F48F81882F90E0880F991FFC014D
:100AE000E051FE4F88E390E091838083A7E3B0E07C
:100AF000E7E3F0E090818E81892B8C9388858032AA
:100B0000A1F48F81882F90E0880F991FFC01E0519C
:100B1000FE4F85E390E091838083A4E3B0E0E4E3BB
:100B2000F0E090818E81892B8C9388858033A1F4AD
:100B30008F81882F90E0880F991FFC01E051FE4FB4
:100B400082E390E091838083A1E3B0E0E1E3F0E011
:100B500090818E81892B8C938A85807F8A878A8574
:100B60008823A1F48F81882F90E0880F991FFC01C2
:100B7000E056FE4F8BE390E091838083AAE3B0E0E0
:100B8000EAE3F0E090818C81892B8C938A85803117
:100B9000A1F48F81882F90E0880F991FFC01E05607
:100BA000FE4F88E390E091838083A7E3B0E0E7E322
:100BB000F0E090818C81892B8C938A858032A1F41E
:100BC0008F81882F90E0880F991FFC01E056FE4F1F
:100BD00085E390E091838083A4E3B0E0E4E3F0E078
:100BE00090818C81892B8C938A858033A1F48F81AD
:100BF000882F90E0880F991FFC01E056FE4F82E39A
:100C000090E091838083A1E3B0E0E1E3F0E09081A4
:100C10008C81892B8C938985807F8987898588231E
:100C2000A1F48F81882F90E0880F991FFC01E85371
:100C3000FE4F8BE390E091838083AAE3B0E0EAE388
:100C4000F0E090818D81892B8C9389858031A1F48E
:100C50008F81882F90E0880F991FFC01E853FE4F89
:100C600088E390E091838083A7E3B0E0E7E3F0E0DE
:100C700090818D81892B8C9389858032A1F48F811D
:100C8000882F90E0880F991FFC01E853FE4F85E301
:100C900090E091838083A4E3B0E0E4E3F0E090810E
:100CA0008D81892B8C9389858033A1F48F81882F46
:100CB00090E0880F991FFC01E853FE4F82E390E01B
:100CC00091838083A1E3B0E0E1E3F0E090818D8146
:100CD000892B8C938B85807F8B878B858823A1F4D0
:100CE0008F81882F90E0880F991FFC01E85EFD4FEF
:100CF0008BE390E091838083AAE3B0E0EAE3F0E045
:100D000090818B81892B8C938B858031A1F48F818D
:100D1000882F90E0880F991FFC01E85EFD4F88E363
:100D200090E091838083A7E3B0E0E7E3F0E0908177
:100D30008B81892B8C938B858032A1F48F81882FB6
:100D400090E0880F991FFC01E85EFD4F85E390E07D
:100D500091838083A4E3B0E0E4E3F0E090818B81B1
:100D6000892B8C938B858033A1F48F81882F90E021
:100D7000880F991FFC01E85EFD4F82E390E09183AC
:100D80008083A1E3B0E0E1E3F0E090818B81892BE7
:100D90008C938F81882F90E0880F991FFC01E85E6B
:100DA000FD4F808191819A838983E981FA818081D5
:100DB000982F8B8180958923E981FA8180832B96F6
:100DC0000FB6F894DEBF0FBECDBFCF91DF910F916C
:100DD0000895DF93CF93CDB7DEB763970FB6F8943E
:100DE000DEBF0FBECDBF8F87488B598B6A8B7B8B45
:100DF0008F85882F90E0880F991FFC01E051FE4FEE
:100E0000808191819E878D878F85882F90E0880FC4
:100E1000991FFC01E056FE4F808191819A87898756
:100E20008F85882F90E0880F991FFC01E853FE4FB3
:100E3000808191819C878B878F85882F90E0FC0132
:100E4000E05CFD4F80818C838F85882F90E0FC01D2
:100E5000E458FD4F80818A838F85882F90E0FC01C4
:100E6000E859FD4F80818B8388899989AA89BB893C
:100E70008D839E83AF83B887EB85FC858081982F17
:100E80008B8180958923EB85FC858083E985FA85B4
:100E90008081982F8A8180958923E985FA858083CE
:100EA000ED85FE858081982F8C8180958923ED8545
:100EB000FE85808319823AC08D819E81AF81B8857D
:100EC000BB235CF0E985FA858081982F8A81809523
:100ED0008923E985FA85808308C0E985FA859081B0
:100EE0008A81892BE985FA858083ED85FE8590814D
:100EF0008C81892BED85FE858083ED85FE85808143
:100F0000982F8C8180958923ED85FE8580838D8146
:100F10009E81AF81B885880F991FAA1FBB1F8D8343
:100F20009E83AF83B88789818F5F8983898180326F
:100F300018F2EB85FC8590818B81892BEB85FC85F4
:100F40008083EB85FC858081982F8B818095892318
:100F5000EB85FC85808363960FB6F894DEBF0FBEE9
:100F6000CDBFCF91DF910895DF93CF93CDB7DEB79B
:100F700028970FB6F894DEBF0FBECDBF8E8378875B
:100F80006F838F81988527E28131920790F08CE5FD
:100F900091E7A8E3BCE589839A83AB83BC8329816D
:100FA0003A814B815C818E81BA01A9010E94E906D8
:100FB00096C01D8209C08D818F5F8D838F8198853A
:100FC000885E934098878F838F81988523E0883E41
:100FD000920788F78D81882F90E0FC01E05FFE4F3B
:100FE0008081882F90E0A0E0B0E089839A83AB8372
:100FF000BC831D8208C08D818F5F8D838F81988512
:10100000019798878F838F8198858436910598F70B
:101010008D81882F90E0FC01E05FFE4F8081882F5A
:1010200090E0A0E0B0E02227382F492F5A2F898185
:101030009A81AB81BC81822B932BA42BB52B898306
:101040009A83AB83BC831D8208C08D818F5F8D83A3
:101050008F8198850A9798878F838F8198858A30AA
:10106000910598F78D81882F90E0FC01E05FFE4F9D
:101070008081882F90E0A0E0B0E0AC0133272227E8
:1010800089819A81AB81BC81822B932BA42BB52BB8
:1010900089839A83AB83BC838F819885FC01E05F51
:1010A000FE4F8081882F90E0A0E0B0E0582F4427C9
:1010B0003327222789819A81AB81BC81822B932B94
:1010C000A42BB52B89839A83AB83BC8329813A8176
:1010D0004B815C818E81BA01A9010E94E9062896A4
:1010E0000FB6F894DEBF0FBECDBFCF91DF9108954C
:1010F000DF93CF93CDB7DEB728970FB6F894DEBF56
:101100000FBECDBF8E8378876F838F81988527E24E
:101110008131920794F08CE591E7A8E3BCE58A83DE
:101120009B83AC83BD832A813B814C815D818E8111
:10113000BA01A9010E94E906C3C08F8198852CEFEE
:101140008831920794F48CE191E7A8E3BCE58A83A7
:101150009B83AC83BD832A813B814C815D818E81E1
:10116000BA01A9010E94E906ABC08F819885992335
:1011700084F48F819885909581959F4F98878F8370
:1011800080E490E0A0E0B0E08A839B83AC83BD83E1
:1011900020C0198209C089818F5F89838F819885DA
:1011A000885E934098878F838F81988523E0883E5F
:1011B00092078CF78981882F90E0FC01E05FFE4F59
:1011C0008081882F90E0A0E0B0E08A839B83AC838D
:1011D000BD83198209C089818F5F89838F8198853A
:1011E0008456904098878F838F81988584369105A7
:1011F00094F78981882F90E0FC01E05FFE4F8081A9
:10120000882F90E0A0E0B0E02227382F492F5A2FF6
:101210008A819B81AC81BD81822B932BA42BB52B22
:101220008A839B83AC83BD83198208C089818F5FC9
:1012300089838F8198850A9798878F838F81988576
:101240008A3091059CF78981882F90E0FC01E05F4E
:10125000FE4F8081882F90E0A0E0B0E0AC01332702
:1012600022278A819B81AC81BD81822B932BA42B69
:10127000B52B8A839B83AC83BD838F819885FC01CA
:10128000E05FFE4F8081882F90E0A0E0B0E0582F13
:101290004427332722278A819B81AC81BD81822B01
:1012A000932BA42BB52B8A839B83AC83BD832A818C
:1012B0003B814C815D818E81BA01A9010E94E906C2
:1012C00028960FB6F894DEBF0FBECDBFCF91DF9149
:1012D0000895DF93CF93CDB7DEB728970FB6F89474
:1012E000DEBF0FBECDBF8E8378876F83EF81F88519
:1012F000808189838981882F90E0807F90708033FE
:10130000910599F48981805389838981882F90E0A0
:10131000FC01E05FFE4F8081882F90E0A0E0B0E00C
:101320008A839B83AC83BD8313C08981806281568D
:1013300089838981882F90E0FC01E55DFE4F8081E3
:10134000882F90E0A0E0B0E08A839B83AC83BD83CC
:101350008F819885FC013196808189838981882FCE
:1013600090E0807F907080339105B9F4898180533B
:1013700089838981882F90E0FC01E05FFE4F8081A6
:10138000882F90E0A0E0B0E0BA2FA92F982F8827EF
:101390008A839B83AC83BD831FC089818062815611
:1013A00089838981882F90E0FC01E55DFE4F808173
:1013B000882F90E0A0E0B0E02227382F492F5A2F45
:1013C0008A819B81AC81BD81822B932BA42BB52B71
:1013D0008A839B83AC83BD838F819885FC01329681
:1013E000808189838981882F90E0807F907080330D
:1013F0009105B1F48981805389838981882F90E098
:10140000FC01E05FFE4F8081882F90E0A0E0B0E01B
:10141000DC01992788278A839B83AC83BD831EC008
:1014200089818062815689838981882F90E0FC01BF
:10143000E55DFE4F8081882F90E0A0E0B0E0AC0138
:10144000332722278A819B81AC81BD81822B932BFC
:10145000A42BB52B8A839B83AC83BD838F81988516
:10146000FC013396808189838981882F90E0807F79
:10147000907080339105B9F4898180538983898183
:10148000882F90E0FC01E05FFE4F8081882F90E084
:10149000A0E0B0E0B82FAA27992788278A839B83EA
:1014A000AC83BD831FC08981806281568983898115
:1014B000882F90E0FC01E55DFE4F8081882F90E051
:1014C000A0E0B0E0582F4427332722278A819B8150
:1014D000AC81BD81822B932BA42BB52B8A839B835C
:1014E000AC83BD832A813B814C815D8180E0BA0160
:1014F000A9010E94E90628960FB6F894DEBF0FBE38
:0C150000CDBFCF91DF910895F894FFCF8C
:10150C000C0D0E0F0B090603000805020A07040157
:10151C003F065B4F666D7D077F6F003F065B4F6636
:10152C006D7D077F6F5F7C585E7B715F7C585E7B47
:10153C00716F74040C763854545C7367506D781C5E
:10154C003E7E766E5B00612343620000000000006B
:10155C00000000000000000000000000000000007F
:10156C00004C54581C00000000000000000000005B
:10157C000000000000000000000000003E3D3B3772
:02158C002F1F0F
:00000001FF
