:100000000C942A000C9447000C9447000C94470071
:100010000C9447000C9447000C9447000C94470044
:100020000C9447000C9447000C9447000C94470034
:100030000C9447000C9447000C9447000C94470024
:100040000C9447000C9447000C9447000C94470014
:100050000C94470011241FBECFE5D8E0DEBFCDBF12
:1000600010E0A0E6B0E0EAE2FAE002C005900D92EE
:10007000A23DB107D9F711E0A2EDB0E001C01D9299
:10008000AE3AB107E1F70E9449000C9413050C94B5
:100090000000DF93CF9300D000D000D0CDB7DEB703
:1000A0001E821D82E7E3F0E01082E8E3F0E08FEFCC
:1000B0008083EAE3F0E08FEF808380E065E043E057
:1000C00021E00E94AA0081E065E043E022E00E9476
:1000D000AA0082E065E043E024E00E94AA0083E0F9
:1000E00065E043E027E00E94AA000E949A00882F62
:1000F00090E09A83898389819A81959587959595D2
:1001000087959595879595958795FC01E559FF4FBE
:10011000908181E0692F0E94210289819A818F70EC
:100120009070FC01E559FF4F908180E0692F0E949B
:100130002102DBCFDF93CF930F92CDB7DEB782E101
:100140008983E6E3F0E08081898389810F90CF91F4
:10015000DF910895DF93CF93CDB7DEB727970FB622
:10016000F894DEBF0FBECDBF8C836D834E832F838B
:100170008D81882F90E09C012F70307081E090E09D
:1001800002C0880F991F2A95E2F78B838C81882FF4
:1001900090E0FC01EE58FE4F8B8180838F81882F89
:1001A00090E09C012F70307081E090E002C0880FD9
:1001B000991F2A95E2F789838C81882F90E0FC01B2
:1001C000EA57FE4F898180838E81882F90E09C01C1
:1001D0002F70307081E090E0022E02C0880F991FCE
:1001E0000A94E2F78A838C81882F90E0FC01EE5D0F
:1001F000FE4F8A8180838D81807F8D838D818823CE
:10020000A1F48C81882F90E0880F991FFC01EE5299
:10021000FF4F8BE390E091838083AAE3B0E0EAE3B1
:10022000F0E090818B81892B8C938D818031A1F4BA
:100230008C81882F90E0880F991FFC01EE52FF4FB0
:1002400088E390E091838083A7E3B0E0E7E3F0E008
:1002500090818B81892B8C938D818032A1F48C814C
:10026000882F90E0880F991FFC01EE52FF4F85E325
:1002700090E091838083A4E3B0E0E4E3F0E0908138
:100280008B81892B8C938D818033A1F48C81882F75
:1002900090E0880F991FFC01EE52FF4F82E390E03F
:1002A00091838083A1E3B0E0E1E3F0E090818B8172
:1002B000892B8C938F81807F8F838F818823A1F4FA
:1002C0008C81882F90E0880F991FFC01E65BFE4F20
:1002D0008BE390E091838083AAE3B0E0EAE3F0E06F
:1002E00090818981892B8C938F818031A1F48C81BD
:1002F000882F90E0880F991FFC01E65BFE4F88E392
:1003000090E091838083A7E3B0E0E7E3F0E09081A1
:100310008981892B8C938F818032A1F48C81882FE5
:1003200090E0880F991FFC01E65BFE4F85E390E0AB
:1003300091838083A4E3B0E0E4E3F0E090818981DD
:10034000892B8C938F818033A1F48C81882F90E04E
:10035000880F991FFC01E65BFE4F82E390E09183DA
:100360008083A1E3B0E0E1E3F0E090818981892B13
:100370008C938E81807F8E838E818823A1F48C81E3
:10038000882F90E0880F991FFC01E650FF4F8BE308
:1003900090E091838083AAE3B0E0EAE3F0E090810B
:1003A0008A81892B8C938E818031A1F48C81882F56
:1003B00090E0880F991FFC01E650FF4F88E390E022
:1003C00091838083A7E3B0E0E7E3F0E090818A8146
:1003D000892B8C938E818032A1F48C81882F90E0C0
:1003E000880F991FFC01E650FF4F85E390E0918351
:1003F0008083A4E3B0E0E4E3F0E090818A81892B7C
:100400008C938E818033A1F48C81882F90E0880FAB
:10041000991FFC01E650FF4F82E390E091838083B7
:10042000A1E3B0E0E1E3F0E090818A81892B8C9335
:1004300027960FB6F894DEBF0FBECDBFCF91DF91E8
:100440000895DF93CF93CDB7DEB72C970FB6F8940E
:10045000DEBF0FBECDBF8B876C878B85882F90E06A
:10046000880F991FFC01EE52FF4F808191819A877E
:1004700089878B85882F90E0880F991FFC01E65BA8
:10048000FE4F808191819E838D838B85882F90E0A4
:10049000880F991FFC01E650FF4F8081918198875A
:1004A0008F838B85882F90E0FC01EE58FE4F808172
:1004B0008C838B85882F90E0FC01EA57FE4F80816A
:1004C0008A838B85882F90E0FC01EE5DFE4F808152
:1004D0008B83EF81F8858081982F8B81809589238C
:1004E000EF81F8858083ED81FE818081982F8A815C
:1004F00080958923ED81FE818083E985FA8580815D
:10050000982F8C8180958923E985FA8580831982CB
:1005100040C08C8588235CF0ED81FE818081982F1E
:100520008A8180958923ED81FE81808308C0ED81D9
:10053000FE8190818A81892BED81FE8180838AE012
:1005400090E00E943404E985FA8590818C81892BA2
:10055000E985FA85808384E190E00E943404ED818E
:10056000FE818081982F8A8180958923ED81FE818B
:100570008083E985FA858081982F8C8180958923F5
:10058000E985FA8580838C85880F8C8789818F5FC8
:1005900089838981883008F4BCCF84E190E00E948F
:1005A0003404EF81F88590818B81892BEF81F88568
:1005B000808384E190E00E943404EF81F88580819B
:1005C000982F8B8180958923EF81F885808384E142
:1005D00090E00E9434042C960FB6F894DEBF0FBE54
:1005E000CDBFCF91DF910895DF93CF9300D0CDB7EA
:1005F000DEB789836A838981882F90E0FC01EA5CF9
:10060000FE4F8A8180830F900F90CF91DF910895E4
:10061000DF93CF93CDB7DEB72D970FB6F894DEBF3B
:100620000FBECDBF8D878091D2009091D3009C8763
:100630008B87809172018E838091FA009091FB00EC
:100640009A878987809122018D83E985FA85808147
:10065000982F8D8180958923E985FA8580831A8278
:1006600021C08A81882F90E0880F991FFC01E65BEA
:10067000FE4F8081918198878F838A81882F90E0B7
:10068000FC01EA57FE4F80818C83EF81F8858081E1
:10069000982F8C8180958923EF81F88580838A81CA
:1006A0008F5F8A839A818D859817D8F21A8211C03C
:1006B0008A81282F30E08A81882F90E0FC01EA5C53
:1006C000FE4F8081F901E656FE4F80838A818F5F5D
:1006D0008A839A818D85981758F3EB85FC858081F4
:1006E000982F8E8180958923EB85FC8580831B82E2
:1006F00090C01A8235C08A81882F90E0880F991F98
:10070000FC01E65BFE4F8081918198878F838A810F
:10071000882F90E0FC01EA57FE4F80818C838A810C
:10072000882F90E0FC01E656FE4F80818983898105
:1007300088235CF0EF81F8858081982F8C818095EB
:100740008923EF81F885808308C0EF81F885908147
:100750008C81892BEF81F88580838A818F5F8A83E2
:100760009A818D85981738F28AE090E00E943404CF
:10077000EB85FC8590818E81892BEB85FC858083C0
:1007800084E190E00E9434041A8232C08A81882F6A
:1007900090E0880F991FFC01E65BFE4F80819181FC
:1007A00098878F838A81882F90E0FC01EA57FE4F5B
:1007B00080818C83EF81F8858081982F8C81809552
:1007C0008923EF81F88580838A81882F90E0FC015E
:1007D000E656FE4F808189838A81282F30E0898107
:1007E000880FF901E656FE4F80838A818F5F8A83E6
:1007F0009A818D85981750F2EB85FC858081982F22
:100800008E8180958923EB85FC8580838B818F5F2A
:100810008B838B81883008F46CCF84E190E00E9458
:100820003404E985FA8590818D81892BE985FA85E3
:10083000808384E190E00E943404E985FA85808118
:10084000982F8D8180958923E985FA85808384E1BD
:1008500090E00E9434042D960FB6F894DEBF0FBED0
:10086000CDBFCF91DF910895DF93CF9300D0CDB767
:10087000DEB79A83898389819A81CC01A0E0B0E0B8
:1008800020EA3FE040E050E0BC01CD010E94B70407
:10089000DC01CB0128EE33E040E050E0BC01CD01AB
:1008A0000E94D604DA01C9010E945B040F900F90E8
:1008B000CF91DF910895DF93CF9300D0CDB7DEB70E
:1008C0009A83898389819A81009711F400C006C0B8
:1008D00089819A810197F1F79A8389830F900F900C
:1008E000CF91DF910895DF93CF9300D000D0CDB7A3
:1008F000DEB79C838B831A82198209C088EE93E04D
:100900000E94340489819A8101969A83898329817E
:100910003A818B819C812817390780F30F900F90C3
:100920000F900F90CF91DF910895DF93CF9300D078
:1009300000D0CDB7DEB79C838B831A82198209C0A1
:1009400088EE93E00E94730489819A8101969A83CC
:10095000898329813A818B819C812817390780F30B
:100960000F900F900F900F90CF91DF910895629F9D
:10097000D001739FF001829FE00DF11D649FE00D97
:10098000F11D929FF00D839FF00D749FF00D659FF8
:10099000F00D9927729FB00DE11DF91F639FB00DF7
:1009A000E11DF91FBD01CF011124089597FB092E08
:1009B00005260ED057FD04D014D00AD0001C38F400
:1009C00050954095309521953F4F4F4F5F4F08957B
:1009D000F6F790958095709561957F4F8F4F9F4F5B
:1009E0000895A1E21A2EAA1BBB1BFD010DC0AA1F70
:1009F000BB1FEE1FFF1FA217B307E407F50720F088
:100A0000A21BB30BE40BF50B661F771F881F991F02
:100A10001A9469F760957095809590959B01AC014B
:0A0A2000BD01CF010895F894FFCF47
:100A2A003F215B7365767E237F77003F215B736589
:100A3A00767E237F777B7C58795F4E7B7C58795F03
:100A4A004E676C21316D216A68784F6748765C3D44
:100A5A0038386D755B00434546070000000000000A
:100A6A00000000000000000000000000000000007C
:100A7A000070385868000000000000000000000004
:100A8A000000000000000000000000003E1F2F3799
:020A9A003B3DE2
:00000001FF
