:100000000C9454000C9471000C9471000C947100C9
:100010000C9471000C9471000C9471000C9471009C
:100020000C9471000C9471000C9471000C9471008C
:100030000C9471000C9471000C9471000C9471007C
:100040000C9471000C9471000C9471000C9471006C
:100050000C94710007081314141308070010080803
:10006000080810004C696E652032206C6F6E676561
:1000700072207468616E203134206368617261633C
:1000800074657273004C696E652031206C6F6E6709
:100090006572207468616E2031342063686172611A
:1000A00063746572730A000011241FBECFE5D8E0A7
:1000B000DEBFCDBF10E0A0E6B0E0E2E7F4E002C0B2
:1000C00005900D92AA38B107D9F710E0AAE8B0E080
:1000D00001C01D92AA38B107E1F70E947B000C9481
:1000E00038020C94000090B380B3892382FDFBCFCB
:1000F000829BFECF0895C8E5D8E0DEBFCDBF8A98C9
:10010000929A8CE00E94B80151E7252E50E0352EDE
:1001100048E7442E40E0542E35E8632E30E0732E3D
:1001200024E6822E20E0922E7E010894E11CF11C30
:100130009EE7A92E90E0B92E84E5C82E80E0D82E47
:100140000E94810180E690E00E949E01C1010E9410
:100150009E0161E087E00E9475018AE30E948901A7
:100160000E9473008EE00E946101C2010E949E0104
:100170000E9473000E948101C3010E94AA01C40170
:100180000E94AA0188E10E9461010E9473008CE034
:100190000E9461010E9481014AE050E0B70186E8B7
:1001A00090E00E94F301C7010E949E010E9473002B
:1001B0000E948101C5010E949E0180E40E946101AC
:1001C0008601F80184910E946B010F5F1F4FF0E0E0
:1001D00004361F07B1F761E080E00E94750180E0FE
:1001E0000E94890181E00E9489010E947300A8CFCA
:1001F000DB9A00C0DB980895CF93DF93662311F05C
:10020000DF9A01C0DF98DD98D09AD29AD49AD69A14
:10021000DE98DC98DA98D89887FDDE9AC82FDD271B
:10022000C6FDDC9AC5FDDA9AC4FDD89A0E94F80092
:10023000DE98DC98DA98D898C3FDDE9AC2FDDC9A85
:10024000C1FDDA9AC0FDD89A0E94F800D89ADA9ACD
:10025000DC9ADE9ADF91CF910895882311F0DF9A1E
:1002600001C0DF98DD9AD098D298D498D698DB9ABE
:1002700000C0C89B02C080E101C080E0CA998062D2
:10028000CC998064CE998068DB9800C0DB9A00C06E
:10029000C8998160CA998260CC998460CE9988603F
:1002A000DB989927089580E00E942D0187FDFBCF00
:1002B00081E090E00197F1F780E00E942D019927FD
:1002C00008951F93182F0E94530160E0812F0E9410
:1002D000FC001F9108951F93182F0E94530161E0A5
:1002E000812F0E94FC001F910895662311F480580D
:1002F00001C080540E94610108950E945301992712
:10030000089581E00E946101089582E00E946101E8
:1003100008951F93182F0E9453011A3049F4803416
:1003200010F480E401C080E080580E94610104C0A4
:1003300061E0812F0E94FC001F910895CF93DF930D
:10034000EC0102C00E94890189918823D9F7DF91CD
:10035000CF910895CF93DF93EC0102C00E948901F1
:10036000FE01219684918823C9F7DF91CF910895EA
:10037000FF920F931F93F82E0AE310E0D79AD59AB5
:10038000D39AD09AD29AD49AD69A80E899E30197D0
:10039000F1F7DA9AD89A0E94F80080EF91E101977C
:1003A000F1F70E94F800C8010197F1F70E94F800E8
:1003B000C8010197F1F7D8980E94F800C801019789
:1003C000F1F788E20E94610188E00E9461010E94C9
:1003D000810186E00E9461018F2D0E9461011F91C1
:1003E0000F91FF900895FB019F01E8944230C4F003
:1003F0004532B4F44A3029F497FB1EF49095819568
:100400009F4F642F77270E942402805D8A330CF06F
:10041000895D8193CB010097A1F716F45DE25193BA
:100420001082C9010C941402DC01FC01672F719148
:100430007723E1F7329704C07C916D9370836291CA
:10044000AE17BF07C8F30895AA1BBB1B51E107C035
:10045000AA1FBB1FA617B70710F0A61BB70B881F54
:10046000991F5A95A9F780959095BC01CD010895E3
:02047000FFCFBC
:100472004C43442054657374204C696E6520310AE4
:10048200004C696E652032004375724F6E00436FF7
:0A049200707972696768743A2000FF
:00000001FF
