:100000000C942A000C9447000C9447000C94470071
:100010000C9447000C9447000C9447000C94470044
:100020000C9447000C9447000C9447000C94470034
:100030000C9447000C9429010C9447000C94470041
:100040000C9447000C9447000C9447000C94470014
:100050000C94470011241FBECFE5D8E0DEBFCDBF12
:1000600010E0A0E6B0E0EAEFFEE002C005900D92DD
:10007000AE36B107D9F711E0AEE6B0E001C01D928F
:10008000AF30B107E1F70E9449000C947C070C9453
:1000900000000F931F93CF93DF930E9419018FEFFE
:1000A00084BB8ABB87BB8BBB88BB85BB41E063E05D
:1000B00080E00E94570201E026E040E063E080E03B
:1000C0000E945001C0E0D0E000E610E0DF93CF9343
:1000D0001F930F930E94960040E0BE0180E00E94B3
:1000E0000E0341E0BE0180E00E940E0321960F90B6
:1000F0000F900F900F9080E1C030D8073CF3C0E024
:10010000D0E0E4CF5D9BFECF8CB90895FC0103C025
:100110005D9BFECF8CB981918823D1F70895FC01B6
:1001200081E080830895FC0110820895EF92FF9290
:100130000F931F93CF93DF93CDB7DEB7A2970FB680
:10014000F894DEBF0FBECDBFFE01BB9681919191A9
:10015000FA83E9838C0183E0E82EF12CEC0EFD1E7E
:1001600056C0853219F05D9BFECF4EC00F5F1F4F0A
:10017000F80180818936E1F08A3630F4833671F1F6
:10018000843609F03FC014C0853729F08837C1F0A4
:100190008337C1F52DC0E981FA813296FA83E9836C
:1001A0004AE050E0B701929182910E94420714C048
:1001B000E981FA813296FA83E9834AE050E007C088
:1001C000E981FA813296FA83E98340E150E0B70190
:1001D000929182910E942107C70111C0E981FA81A1
:1001E0003296FA83E983929182915D9BFECF0CC097
:1001F000E981FA813296FA83E983929182910E9491
:10020000860003C05D9BFECF8CB90F5F1F4FF801C6
:100210008081882309F0A5CFA2960FB6F894DEBF9F
:100220000FBECDBFDF91CF911F910F91FF90EF9047
:10023000089510BC87E689B988E18AB986E880BD4F
:10024000109294001092950010929600579A78940C
:1002500008951F920F920FB60F9211242F938F9330
:100260009F93EF93FF932CB1809194009CB1E82F62
:10027000F0E0EC58FF4F90838F5F809394002A301A
:1002800019F481E08093950010929600FF91EF9110
:100290009F918F912F910F900FBE0F901F901895E7
:1002A0000F93CF93DF93722FC82FD0E0FE01E55458
:1002B000FF4F842F8F7021E030E0D90102C0AA0FD8
:1002C000BB1F8A95E2F7A083FE01E155FF4F872F00
:1002D0008F70D90102C0AA0FBB1F8A95E2F7A083D5
:1002E000862F8F70F90102C0EE0FFF1F8A95E2F78B
:1002F000CF015E2FFE01E555FF4F8083FE01E955DA
:10030000FF4F802F8F7002C0220F331F8A95E2F7B4
:100310002083407F41F4FE01EE0FFF1FE154FF4FA9
:100320008BE390E01DC0403141F4FE01EE0FFF1F52
:10033000E154FF4F88E390E013C0403241F4FE01E6
:10034000EE0FFF1FE154FF4F85E390E009C04033FB
:1003500049F4FE01EE0FFF1FE154FF4F82E390E0EE
:1003600091838083272F207F41F4FE01EE0FFF1F32
:10037000E956FF4F8BE390E01DC0203141F4FE01B0
:10038000EE0FFF1FE956FF4F88E390E013C02032C5
:1003900041F4FE01EE0FFF1FE956FF4F85E390E0A9
:1003A00009C0203349F4FE01EE0FFF1FE956FF4F4D
:1003B00082E390E091838083607F41F4FE01EE0F41
:1003C000FF1FE156FF4F8BE390E01DC0603141F409
:1003D000FE01EE0FFF1FE156FF4F88E390E013C0D0
:1003E000603241F4FE01EE0FFF1FE156FF4F85E33F
:1003F00090E009C0603349F4FE01EE0FFF1FE156A3
:10040000FF4F82E390E091838083007F41F4FE01FF
:10041000EE0FFF1FED54FF4F8BE390E01DC0003146
:1004200041F4FE01EE0FFF1FED54FF4F88E390E013
:1004300013C0003241F4FE01EE0FFF1FED54FF4FD9
:1004400085E390E009C0003349F4FE01EE0FFF1F81
:10045000ED54FF4F82E390E091838083DE01AA0F89
:10046000BB1FFD01E156FF4F0190F081E02D80811F
:10047000582B5083FD01E154FF4F20813181F90158
:100480009081FE01E554FF4F808180958923F90119
:100490008083AD54BF4FED91FC918081C955DF4FF2
:1004A0009881892B8083DF91CF910F9108951F93BD
:1004B000CF93DF93A42F462F4F7021E030E0F90156
:1004C00002C0EE0FFF1F4A95E2F7AF011E2F9A2FD1
:1004D0009F7002C0220F331F9A95E2F7722FC82F28
:1004E000D0E0FE01E555FF4F4083FE01E955FF4F87
:1004F0002083607F69F4FE01EE0FFF1FE156FF4F7E
:100500008BE390E0918380838AB3842B8ABB2CC0D9
:10051000603169F4FE01EE0FFF1FE156FF4F88E3E3
:1005200090E09183808387B3842B87BB1DC06032AA
:1005300069F4FE01EE0FFF1FE156FF4F85E390E0E7
:100540009183808384B3842B84BB0EC0603361F4B9
:10055000FE01EE0FFF1FE156FF4F82E390E0918313
:10056000808381B3842B81BB4A2F407F69F4FE01D5
:10057000EE0FFF1FED54FF4F8BE390E091838083DC
:100580008AB3782B7ABB2CC0403169F4FE01EE0FA0
:10059000FF1FED54FF4F88E390E09183808387B382
:1005A000782B77BB1DC0403269F4FE01EE0FFF1FB0
:1005B000ED54FF4F85E390E09183808384B3782BE3
:1005C00074BB0EC0403361F4FE01EE0FFF1FED540B
:1005D000FF4F82E390E09183808381B3782B71BBDE
:1005E00080E58DB981E08EB9DE01AA0FBB1FFD0148
:1005F000E156FF4F0190F081E02D8081182B108390
:10060000AD54BF4FED91FC918081C955DF4F98816A
:10061000892B8083DF91CF911F910895CF92DF9234
:10062000EF92FF920F931F93CF93DF93282FEB014D
:10063000CB018070907F892B21F4D067442309F48B
:10064000D068822F90E0FC01EE0FFF1FDF01A15662
:10065000BF4F0D911C91ED54FF4FE080F180FC01E4
:10066000E555FF4FD08089559F4FFC01C0801F93F7
:100670000F9385E690E09F938F930E949600F80178
:1006800090818D2D8095892380838D2F992787FDDB
:100690009A958FB90F900F900F900F90779BFECF88
:1006A000CFB9779BFECFF80180818D298083F70138
:1006B00090818C2D80958923808382E090E00E9438
:1006C0005D06F70180818C298083DF91CF911F9196
:1006D0000F91FF90EF90DF90CF900895CF92DF922F
:1006E000EF92FF920F931F93CF93DF93282FCB01AD
:1006F0008070907F892B21F47067442309F470681F
:10070000822F90E0DC01AA0FBB1FFD01E154FF4FD7
:1007100020813181FD01E956FF4FC081D181FD016A
:10072000E156FF4F00811181AD54BF4FED90FC9019
:10073000FC01E554FF4F4081FC01E155FF4FB081C2
:10074000FC01E555FF4FC08089559F4FFC01D080CB
:10075000F80190818C2D80958923808388815B2F7F
:1007600050958523888390E0A42FA095F90180817E
:100770008A23808377FF03C088818B2B02C0888106
:1007800085238883F9018081842B80839F5F90314A
:1007900019F0660F771FEACFF90180814095482351
:1007A0004083F80180818C298083F70190818D2D11
:1007B00080958923808382E090E00E945D06F701A6
:1007C00080818D298083DF91CF911F910F91FF90C0
:1007D000EF90DF90CF900895FF920F931F93CF93E8
:1007E000DF93F62EB22F242F2F7061E070E0FB0113
:1007F00002C0EE0FFF1F2A95E2F79F015E2FC82F60
:10080000D0E0FE01E554FF4F20838B2F8F709B01BA
:1008100002C0220F331F8A95E2F7C901322FFE0171
:10082000ED52FF4F80838F2D8F70FB0102C0EE0FC2
:10083000FF1F8A95E2F7CF011E2FFE01E555FF4FFE
:100840008083802F8F7002C0660F771F8A95E2F732
:10085000A62FFE01E953FF4F6083407F69F4FE013C
:10086000EE0FFF1FE154FF4F8BE390E091838083F5
:100870008AB3582B5ABB2CC0403169F4FE01EE0FED
:10088000FF1FE154FF4F88E390E09183808387B39B
:10089000582B57BB1DC0403269F4FE01EE0FFF1FFD
:1008A000E154FF4F85E390E09183808384B3582B1C
:1008B00054BB0EC0403361F4FE01EE0FFF1FE15444
:1008C000FF4F82E390E09183808381B3582B51BB2B
:1008D0002B2F207F91F4FE01EE0FFF1FE553FF4FFA
:1008E00089E390E0918380839AB3832F8095892355
:1008F0008ABB8BB3382B3BBB3BC0203191F4FE014C
:10090000EE0FFF1FE553FF4F86E390E09183808356
:1009100097B3832F8095892387BB88B3382B38BB47
:1009200027C0203291F4FE01EE0FFF1FE553FF4F69
:1009300083E390E09183808394B3832F8095892310
:1009400084BB85B3382B35BB13C0203389F4FE013B
:10095000EE0FFF1FE553FF4F80E390E0918380830C
:1009600091B3832F8095892381BB82B3382B32BB0F
:10097000007F69F4FE01EE0FFF1FE952FF4F8BE38A
:1009800090E0918380838AB3A82BAABB2CC000314E
:1009900069F4FE01EE0FFF1FE952FF4F88E390E07C
:1009A0009183808387B3A82BA7BB1DC0003269F455
:1009B000FE01EE0FFF1FE952FF4F85E390E09183A8
:1009C000808384B3A82BA4BB0EC0003361F4FE0166
:1009D000EE0FFF1FE952FF4F82E390E09183808387
:1009E00081B3A82BA1BB6F2D607F69F4FE01EE0FD0
:1009F000FF1FE156FF4F8BE390E0918380838AB322
:100A0000812B8ABB2CC0603169F4FE01EE0FFF1F01
:100A1000E156FF4F88E390E09183808387B3812B79
:100A200087BB1DC0603269F4FE01EE0FFF1FE15667
:100A3000FF4F85E390E09183808384B3812B84BB57
:100A40000EC0603361F4FE01EE0FFF1FE156FF4F51
:100A500082E390E09183808381B3812B81BBDE01AF
:100A6000AA0FBB1FFD01E156FF4F0190F081E02D61
:100A70008081182B1083FD01E154FF4F20813181CB
:100A8000F9019081FE01E554FF4F80818095892313
:100A9000F9018083A952BF4FED91FC918081C95328
:100AA000DF4F9881892B8083DF91CF911F910F9128
:100AB000FF9008955F926F927F928F929F92AF9274
:100AC000BF92CF92DF92EF92FF920F931F93CF933B
:100AD000DF93062F142F90E0DC01AA0FBB1FFD014E
:100AE000E154FF4FC081D181FD01E553FF4F60808C
:100AF0007180FD01E952FF4FE080F180A156BF4FA8
:100B00008D909C90FC01E554FF4FB080FC01ED52AC
:100B1000FF4F5080FC01E953FF4FD08085559F4F18
:100B2000FC01A080F70180818D298083CB2CC094AB
:100B300088818C2188839A2D9095F4018081892366
:100B4000808384E190E00E945D0688818B29888300
:100B500084E690E00E945D0688818C21888384E68B
:100B600090E00E945D06F7019081112311F09D290C
:100B700004C08D2D80959823F701908388818B295F
:100B8000888384E690E00E945D0688818C218883BA
:100B900084E690E00E945D06F701908102FF02C0AA
:100BA0009D2904C08D2D80959823F701908388811D
:100BB0008B29888384E690E00E945D0688818C21E1
:100BC000888384E690E00E945D06F701908101FF32
:100BD00002C09D2904C08D2D80959823F701908334
:100BE00088818B29888384E690E00E945D06888155
:100BF0008C21888384E690E00E945D06F701908155
:100C000000FF02C09D2903C0D0949D21F70190836D
:100C100088818B29888384E690E00E945D06888124
:100C20008C21888384E690E00E945D0688818B2970
:100C3000888384E690E00E945D0688818C21888309
:100C400084E690E00E945D06FF2400E010E08881C9
:100C50008B29888384E690E00E945D0688818C2140
:100C6000888384E690E00E945D06000F111FF30167
:100C70008081852111F00F5F1F4FF394FDE0FF1677
:100C800031F7F40180818A29808384E690E00E9414
:100C90005D0616950795C8019F70DF91CF911F9152
:100CA0000F91FF90EF90DF90CF90BF90AF909F900B
:100CB0008F907F906F905F900895A0E0B0E022E069
:100CC000880F991FAA1FBB1F2A95D1F7FC01892BFA
:100CD00011F400C008953197F1F708950F931F9311
:100CE000CF93DF938C01C0E0D0E005C088EE93E0A5
:100CF0000E945D062196C017D107C1F7DF91CF9101
:100D00001F910F9108950F931F93CF93DF938C0141
:100D1000C0E0D0E005C088EE93E00E946E06219608
:100D2000C017D107C1F7DF91CF911F910F9108959F
:100D3000A82FB0E0FD01E150FF4F262F277081E082
:100D400090E002C0880F991F2A95E2F78083607FA8
:100D500039F4AA0FBB1FA152BF4F8BE390E011C023
:100D6000603139F4AA0FBB1FA152BF4F88E390E056
:100D700008C0603249F4AA0FBB1FA152BF4F85E3E0
:100D800090E08D939C930895603341F4AA0FBB1FAC
:100D9000A152BF4F82E390E08D939C930895482F1A
:100DA000407FAFEDB0E020E030E0F901E150FF4FCF
:100DB00081E090E0022E02C0880F991F0A94E2F7AA
:100DC0008083442319F48BE390E00EC0403119F482
:100DD00088E390E009C0403219F485E390E004C054
:100DE000403329F482E390E011969C938E932F5F19
:100DF0003F4F129628303105C1F60895A82FB0E074
:100E0000FD01EE0FFF1FE152FF4F0190F081E02D39
:100E1000A150BF4F80819C91892B80830895A82F7A
:100E2000B0E0FD01EE0FFF1FE152FF4F0190F08196
:100E3000E02DA150BF4F9C919095808189238083A4
:100E40000895FB019F01E8944230C4F04532B4F4A8
:100E50004A3029F497FB1EF4909581959F4F642F9B
:100E600077270E946807805D8A330CF0895D819343
:100E7000CB010097A1F716F45DE251931082C901EE
:100E80000C945807FB019F01423074F0453264F422
:100E9000642F77270E946807805D8A330CF0895D94
:100EA0008193CB010097A1F71082C9010C945807D8
:100EB000DC01FC01672F71917723E1F7329704C0C1
:100EC0007C916D9370836291AE17BF07C8F308954C
:100ED000AA1BBB1B51E107C0AA1FBB1FA617B70760
:100EE00010F0A61BB70B881F991F5A95A9F780957C
:0A0EF0009095BC01CD010895FFCFDD
:0E0EFA0025640D0A00706373313A25780A00F2
:00000001FF
