:100000000C94AB000C94C8000C94C8000C94C8006D
:100010000C94C8000C94C8000C94C8000C94C80040
:100020000C94C8000C94C8000C94C8000C94C80030
:100030000C94C8000C94C01A0C94C8000C94C8000E
:100040000C94C8000C94C8000C94C8000C94C80010
:100050000C94C8004F555450757400494E53547257
:10006000756D656E743A4E53454C3F00494E53547E
:1000700072756D656E743A4E53454C00564F4C5434
:100080006167653F00564F4C5461676500435552A8
:1000900052656E743F0043555252656E74004F5660
:1000A00050726F743F004F5650726F74005354611A
:1000B0006E6462793F005354616E646279005357F5
:1000C0004565703A53544172743F0053574565700B
:1000D0003A53544172740053574565503A53544F44
:1000E000503F0053574565703A53544F5000535793
:1000F0004565703A535445503F0053574565703A33
:10010000535445500053574565703A54494D453F47
:100110000053574565703A54494D4500535745655E
:10012000703A474F005253540054005B006C007CFF
:100130000085008D0096009E00A600AD00B600BEB2
:1001400000CB00D700E300EE00FA00050111011C0E
:1001500001250100000011241FBECFE5D8E0DEBF5D
:10016000CDBF13E0A0E6B0E0E6ECF8E302C00590F6
:100170000D92AC35B107D9F714E0ACE5B3E001C09E
:100180001D92A53BB107E1F70E94A7010C94611CE9
:100190000C940000DF93CF93CDB7DEB7C558D040A5
:1001A0000FB6F894DEBF0FBECDBF19828091B304A5
:1001B0008823E1F31092B30400D0EDB7FEB7319677
:1001C00080E790E0918380830E942A190F900F901E
:1001D0001B8237C08B81882F90E0FC01ED56FB4FCE
:1001E00080818A838A81282F30E0CC57DF4F398382
:1001F0002883C458D040CC57DF4F88819981C45898
:10020000D040009751F0CC57DF4F28813981C45836
:10021000D0402A30310529F008C08EE70E94EC1842
:100220000DC08AE20E94EC1809C08B81882F90E0F3
:10023000FC01ED56FB4F80810E94EC188B818F5F93
:100240008B838B81803230F28981282F30E000D07F
:1002500000D0EDB7FEB7319683E790E091838083BD
:10026000338322830E942A190F900F900F900F90D2
:100270001B8238C08981803268F000D0EDB7FEB7AC
:10028000319682E890E0918380830E942A190F9032
:100290000F9019828B81282F30E08981882F90E080
:1002A000FC01ED56FB4F4081CE010496FC01E20FAC
:1002B000F31F40838981882F90E0FC01ED56FB4FAE
:1002C00010828B81282F30E0CE010496FC01E20FD2
:1002D000F31F80818A3049F08B818F5F8B83898106
:1002E0008F5F89838B81803228F289818F5F898338
:1002F0008B81282F30E0CE010496FC01E20FF31F22
:1003000010828B81282F30E000D000D000D0EDB7D4
:10031000FEB7319687E890E091838083CE01049602
:1003200093838283358324830E942A198DB79EB7D5
:1003300006960FB6F8949EBF0FBE8DBF8B818823A3
:1003400009F434CFCE0104960E94D5022FCF0F932B
:10035000DF93CF9300D0CDB7DEB71A8219820E9407
:10036000CA1880E066E343E324E305E30E94F60E47
:1003700080E060E041E022E003E00E94BC1381E005
:1003800064E243E222E200E20E94BC1300D000D00B
:10039000EDB7FEB7319683EA90E09183808389813F
:1003A0009A81938382830E942A190F900F900F9055
:1003B0000F908BEA90E00E94D5020E94CA0080E074
:1003C00090E00F900F90CF91DF910F910895DF9300
:1003D000CF93CDB7DEB7C555D0400FB6F894DEBF8A
:1003E0000FBECDBFFE01EE5AFF4F91838083FE0109
:1003F000EC5AFF4F718360831C868FEF8B878C854F
:10040000882F90E0880F991F875D9E4F98878F8374
:100410008F819885FC01859194919E838D83F887C7
:10042000EF838D819E819A878987ADC0CE014296E8
:1004300029853A85B9010E94821BCE0142960E940D
:10044000891B8E87188A198A21C08989282F30E054
:10045000CE014296FC01E20FF31F80818F878F85CA
:10046000882F90E00E947C1B009769F48889282FD0
:1004700030E0CE01C296FC01E20FF31F8F8580832E
:1004800088898F5F888B89898F5F898B99898E8511
:100490009817D8F288898D878889282F30E0CE0177
:1004A000C296FC01E20FF31F80E280838889882FC7
:1004B00090E09C012F5F3F4FCE01C296FC01E20FFE
:1004C000F31F10828E85482F50E0CE014296FE0128
:1004D000EE5AFF4F20813181B9010E94921B009793
:1004E000A9F48C858B878E85282F30E0FE01EE5A8B
:1004F000FF4F80819181820F931FFE01EC5AFF4FC5
:100500000190F081E02D9183808342C08D85482F3A
:1005100050E0CE01C296FE01EE5AFF4F208131819C
:10052000B9010E94921B0097A9F48C858B878D8559
:10053000282F30E0FE01EE5AFF4F80819181820F1B
:10054000931FFE01EC5AFF4F0190F081E02D918343
:1005500080831EC08C858F5F8C878C85882F90E070
:10056000880F991F875D9E4F9C838B838B819C8115
:10057000FC01859194919A838983FC83EB83898123
:100580009A819A87898789859A85009709F04ECF45
:100590008B85882F90E0CB5ADF4F0FB6F894DEBFE3
:1005A0000FBECDBFCF91DF910895DF93CF93CDB72D
:1005B000DEB72A970FB6F894DEBF0FBECDBF9E837D
:1005C0008D838D819E819E012D5F3F4FB9010E94D9
:1005D000E70189838981282F30E04B815C8100D03D
:1005E00000D000D0EDB7FEB7319680EB90E091835C
:1005F000808333832283558344830E942A192DB735
:100600003EB72A5F3F4F0FB6F8943EBF0FBE2DBFD7
:1006100089818F3F89F400D0EDB7FEB731968DEC1C
:1006200090E0918380830E942A190F900F908FE0B1
:1006300090E09A878987DFC089818F3F39F02B81CD
:100640003C818981B9010E9425078A838A81882398
:1006500009F4CCC08981482F50E08A81282F30E0EE
:1006600000D000D000D0EDB7FEB7319684EE90E018
:100670009183808353834283358324830E942A1984
:100680002DB73EB72A5F3F4F0FB6F8943EBF0FBE5F
:100690002DBF8A81282F30E038872F838F8198855E
:1006A0008031910509F44EC02F8138852131310503
:1006B00084F48F8198858230910551F12F8138859E
:1006C0002330310591F18F8198858130910599F022
:1006D0006DC02F8138852231310509F44DC08F81DD
:1006E000988582319105DCF12F81388523313105E0
:1006F00009F44FC05BC000D0EDB7FEB731968DEF67
:1007000090E0918380830E942A190F900F9062C01D
:1007100000D0EDB7FEB731968FE091E091838083F2
:100720000E942A190F900F9055C000D0EDB7FEB768
:10073000319681E291E0918380830E942A190F9083
:100740000F9048C000D0EDB7FEB7319680E391E03E
:10075000918380830E942A190F900F903BC000D094
:10076000EDB7FEB731968EE491E0918380830E94CD
:100770002A190F900F902EC000D0EDB7FEB731961A
:100780008CE691E0918380830E942A190F900F904C
:1007900021C000D0EDB7FEB7319686E891E0918395
:1007A00080830E942A190F900F9014C08A81282FED
:1007B00030E000D000D0EDB7FEB731968BE991E084
:1007C00091838083338322830E942A190F900F9094
:1007D0000F900F9000D0EDB7FEB7319683EB91E00C
:1007E000918380830E942A190F900F908A81282F6D
:1007F00030E03A87298789859A852A960FB6F8943A
:10080000DEBF0FBECDBFCF91DF910895DF93CF93B1
:10081000CDB7DEB729970FB6F894DEBF0FBECDBFB8
:100820009D838C837F836E835987488719828C814F
:100830009D819B838A8300D000D0EDB7FEB73196AF
:1008400086EB91E0918380838A819B81938382836D
:100850000E942A190F900F900F900F9005C08A8167
:100860009B8101969B838A83EA81FB818081803210
:10087000B1F3EA81FB818081882F90E0C0978A30B4
:10088000910550F4EA81FB818081805389838A81BC
:100890009B8101969B838A83E885F9858A819B8168
:1008A00091838083EE81FF81118210828981299654
:1008B0000FB6F894DEBF0FBECDBFCF91DF91089584
:1008C000DF93CF9300D000D000D0CDB7DEB79C83AC
:1008D0008B838B819C819A83898305C089819A81CE
:1008E00001969A838983E981FA8180818032B1F30C
:1008F000E981FA8180818A3029F0E981FA81808159
:10090000882329F481E090E09E838D8302C01E82BB
:100910001D828D819E8126960FB6F894DEBF0FBE94
:10092000CDBFCF91DF910895CF92DF92EF92FF92EA
:100930000F931F93DF93CF93CDB7DEB765970FB6B5
:10094000F894DEBF0FBECDBF9A8789877C876B87FF
:100950005E874D872F87198B088BCA8ADB8AEC8AC2
:10096000FD8A1B821C821D821E821A8281E089837D
:10097000EB85FC851182108289859A8598878F8303
:1009800005C08F819885019698878F83EF81F885C0
:1009900080818032B1F381E08983EF81F8858081A5
:1009A0008D3239F48FEF89838F81988501969887EE
:1009B0008F83EF81F88580818B32C9F58F8198858F
:1009C000019698878F8333C08B819C81AD81BE81D6
:1009D0002AE030E040E050E0BC01CD010E941D1B48
:1009E0009B01AC01EF81F8858081882F90E0C09752
:1009F000AA2797FDA095BA2F820F931FA41FB51F9A
:100A00008B839C83AD83BE838A818F5F8A838F8132
:100A10009885019698878F839A818F85891738F4F6
:100A2000EB85FC85888999899183808309C0EF8152
:100A3000F8858081882F90E0C0978A30910520F258
:100A40008A899B89AC89BD890097A105B10599F078
:100A50002B813C814D815E818A899B89AC89BD89CE
:100A600082179307A407B50734F4EB85FC858889C2
:100A700099899183808389818F3F79F48B819C81CF
:100A8000AD81BE81B095A095909581959F4FAF4F58
:100A9000BF4F8B839C83AD83BE83ED85FE858F81A5
:100AA0009885918380838B819C81AD81BE81BC01BF
:100AB000CD0165960FB6F894DEBF0FBECDBFCF91C6
:100AC000DF911F910F91FF90EF90DF90CF900895ED
:100AD000CF92DF92EF92FF920F931F93DF93CF930A
:100AE00000D000D000D0CDB7DEB79A8389837C8355
:100AF0006B835E834D8389819A812B813C814D81FB
:100B00005E81B90125E002E010E00F2EFFEFCF2E4D
:100B1000FFE7DF2EF0E0EF2EF0E0FF2EF02D0E9439
:100B20009404DC01CB0126960FB6F894DEBF0FBE0D
:100B3000CDBFCF91DF911F910F91FF90EF90DF908C
:100B4000CF900895CF92DF92EF92FF920F931F9371
:100B5000DF93CF9300D000D000D0CDB7DEB79A831B
:100B600089837C836B835E834D8389819A812B810A
:100B70003C814D815E81B9012AE003E010E0CC2484
:100B8000DD2476010E949404DC01CB01BC01CD017F
:100B900026960FB6F894DEBF0FBECDBFCF91DF9182
:100BA0001F910F91FF90EF90DF90CF900895CF921B
:100BB000DF92EF92FF920F931F93DF93CF93CDB706
:100BC000DEB764970FB6F894DEBF0FBECDBF9C872B
:100BD0008B877E876D87588B4F878B859C852D856E
:100BE0003E854F855889B9012AE003E010E0CC2406
:100BF000DD2476010E949404DC01CB018D839E8369
:100C0000AF83B887ED85FE852081318100D000D08B
:100C1000EDB7FEB7319688EC91E091838083338302
:100C200022830E942A190F900F900F900F90ED854C
:100C3000FE8580819181009749F08D819E81AF81F1
:100C4000B885898B9A8BAB8BBC8BDCC08D819E81E8
:100C5000AF81B88528EE33E040E050E0BC01CD0123
:100C60000E941D1BDC01CB018D839E83AF83B8875F
:100C7000EF85F8890190F081E02D80818E3209F0B6
:100C80008CC0EF85F889808191810196EF85F88984
:100C900091838083EF85F889808191812D853E85C0
:100CA000AE01475F5F4FB9012AE003E010E0CC24BA
:100CB000DD2476010E949404DC01CB0189839A83B0
:100CC000AB83BC8389819A81AB81BC810097A105EC
:100CD000B10509F462C012C089819A81AB81BC81DF
:100CE0002AE030E040E050E0BC01CD010E943C1B16
:100CF000DA01C90189839A83AB83BC8389819A8194
:100D0000AB81BC81893E23E0920720E0A20720E06E
:100D1000B20714F712C089819A81AB81BC812AE0A5
:100D200030E040E050E0BC01CD010E941D1BDC0121
:100D3000CB0189839A83AB83BC8389819A81AB8100
:100D4000BC8184369105A105B1052CF38D819E816E
:100D5000AF81B885BB238CF08D819E81AF81B88532
:100D600029813A814B815C81820F931FA41FB51F9B
:100D70008D839E83AF83B88710C08D819E81AF81A4
:100D8000B88529813A814B815C81821B930BA40B2E
:100D9000B50B8D839E83AF83B887ED85FE8520815B
:100DA00031818DB79EB708970FB6F8949EBF0FBEDE
:100DB0008DBFEDB7FEB7319683ED91E091838083CF
:100DC0008D819E81AF81B88582839383A483B5830F
:100DD000378326830E942A19ADB7BEB718960FB67F
:100DE000F894BEBF0FBEADBF89859A85EF85F8899F
:100DF000918380838D819E81AF81B885898B9A8B09
:100E0000AB8BBC8B89899A89AB89BC89BC01CD012C
:100E100064960FB6F894DEBF0FBECDBFCF91DF91C1
:100E20001F910F91FF90EF90DF90CF900895DF9387
:100E3000CF9300D0CDB7DEB79A83898380E090E06E
:100E40000F900F90CF91DF910895DF93CF9300D053
:100E500000D000D0CDB7DEB78A837C836B838A81D4
:100E6000282F30E03E832D838D819E818630910531
:100E700009F467C02D813E81273031051CF58D8135
:100E80009E818330910509F44AC02D813E81243032
:100E900031055CF48D819E8181309105A1F12D8118
:100EA0003E8122303105A9F16EC08D819E81843052
:100EB000910509F43AC02D813E812530310509F4B0
:100EC0003AC061C08D819E818930910509F44BC083
:100ED0002D813E812A3031055CF48D819E818730E1
:100EE0009105A9F12D813E8128303105B1F14BC02A
:100EF0008D819E818A309105E1F12D813E812431E1
:100F00003105E9F140C08B819C810E94BD09898334
:100F10003CC08B819C810E941F0A898336C08B81D3
:100F20009C810E94520C898330C08B819C810E94DD
:100F3000420A89832AC08B819C810E947A0C898312
:100F400024C08B819C810E94040B89831EC08B81ED
:100F50009C810E94100D898318C08B819C810E9406
:100F6000950A898312C08B819C810E94380D8983E8
:100F70000CC08B819C810E94D90B898306C00E9482
:100F8000460D898302C08EEF89838981882F90E086
:100F900026960FB6F894DEBF0FBECDBFCF91DF917E
:100FA0000895EF92FF920F931F93DF93CF93CDB7E6
:100FB000DEB728970FB6F894DEBF0FBECDBF6D83A6
:100FC0007E838F8398878D819E81AF81B8859C01B8
:100FD000AD01689416F85595479537952795169461
:100FE000D1F78D819E81AF81B885072E7BE0B595C5
:100FF000A795979587957A95D1F7702D281B390B72
:101000004A0B5B0B8D819E81AF81B885072E7DE0F9
:10101000B595A795979587957A95D1F7702D790114
:101020008A01E81AF90A0A0B1B0BD801C701898348
:101030009A83AB83BC8389819A81AB81BC81BC01DB
:10104000CD0128960FB6F894DEBF0FBECDBFCF916D
:10105000DF911F910F91FF90EF900895AF92BF9293
:10106000CF92DF92EF92FF920F931F93DF93CF9374
:10107000CDB7DEB72C970FB6F894DEBF0FBECDBF4D
:1010800069877A878B879C8789859A85AB85BC859C
:101090009C01AD01012E1AE055954795379527958E
:1010A0001A95D1F7102D89859A85AB85BC85CD0120
:1010B000BB2797FDB095AB2F280F391F4A1F5B1F29
:1010C00089859A85AB85BC85072E71E1B595A79575
:1010D000979587957A95D1F7702D820F931FA41F4E
:1010E000B51F8D839E83AF83B8878D819E81AF812D
:1010F000B885880F991FAA1FBB1F880F991FAA1FA9
:10110000BB1F880F991FAA1FBB1F7C018D018D81FA
:101110009E81AF81B885880F991FAA1FBB1F880FBA
:10112000991FAA1FBB1F880F991FAA1FBB1F880FDB
:10113000991FAA1FBB1F9C01AD018D819E81AF81AC
:10114000B885072E7AE0880F991FAA1FBB1F7A95D2
:10115000D1F7702D59016A01A81AB90ACA0ADB0A27
:10116000D601C501A8019701280F391F4A1F5B1F2F
:1011700089859A85AB85BC85820F931FA41FB51FF7
:1011800089839A83AB83BC838DB79EB70A970FB6CA
:10119000F8949EBF0FBE8DBFEDB7FEB7319686E2C5
:1011A00092E0918380838D819E81AF81B885828317
:1011B0009383A483B58389819A81AB81BC81868323
:1011C0009783A087B1870E942A198DB79EB70A9688
:1011D0000FB6F8949EBF0FBE8DBF2C960FB6F89435
:1011E000DEBF0FBECDBFCF91DF911F910F91FF905A
:1011F000EF90DF90CF90BF90AF900895DF93CF93A3
:10120000CDB7DEB72E970FB6F894DEBF0FBECDBFB9
:101210009A8789877C876B871B821C821D821E822E
:1012200000D000D0EDB7FEB7319680E392E0918315
:10123000808389859A85938382830E942A190F90DF
:101240000F900F900F9018861F82EB85FC851182FE
:10125000108289859A852B853C85AE01495F5F4F59
:10126000B9010E94D705DC01CB018B839C83AD8340
:10127000BE838B859C85009739F0EB85FC8580814A
:1012800091819E878D876EC02F8138858DB79EB7DF
:101290000A970FB6F8949EBF0FBE8DBFEDB7FEB78D
:1012A000319682E492E0918380838B819C81AD8131
:1012B000BE8182839383A483B5838B859C8597832A
:1012C0008683318720870E942A198DB79EB70A9698
:1012D0000FB6F8949EBF0FBE8DBF8F8198850E9478
:1012E0006004009729F481E090E09E878D873AC0E2
:1012F0008B819C81AD81BE81BB2364F08B819C81FD
:10130000AD81BE81823020ED920727E0A20720E068
:10131000B2072CF080E190E09E878D8723C08B81FF
:101320009C81AD81BE81BC01CD010E94D107DC0151
:10133000CB019A83898300D000D0EDB7FEB73196F8
:1013400085E692E09183808389819A819383828369
:101350000E942A190F900F900F900F9089819A8107
:101360009E878D878D859E852E960FB6F894DEBF5D
:101370000FBECDBFCF91DF910895DF93CF93CDB74F
:10138000DEB729970FB6F894DEBF0FBECDBF9F839F
:101390008E838E819F819E012E5F3F4FAE014C5FF9
:1013A0005F4FB9010E94060489838981282F30E0AC
:1013B0004A815B816C817D818DB79EB708970FB69E
:1013C000F8949EBF0FBE8DBFEDB7FEB731968CE788
:1013D00092E0918380833383228355834483778390
:1013E00066830E942A198DB79EB708960FB6F894A7
:1013F0009EBF0FBE8DBF8A819B81009729F08A8195
:101400009B819987888710C08C819D810E94600490
:10141000009729F481E090E09987888705C0898149
:1014200080935C03198618868885998529960FB65E
:10143000F894DEBF0FBECDBFCF91DF910895DF934B
:10144000CF9300D0CDB7DEB79A83898380915C03B8
:10145000282F30E000D000D0EDB7FEB7319682EAF9
:1014600092E091838083338322830E942A190F9014
:101470000F900F900F9080E090E00F900F90CF9121
:10148000DF910895DF93CF93CDB7DEB72A970FB6DC
:10149000F894DEBF0FBECDBF98878F838F8198856C
:1014A0009E012B5F3F4FB9010E94FE08AA2797FDBE
:1014B000A095BA2F89839A83AB83BC838D819E814B
:1014C000009729F08D819E819A87898723C080911A
:1014D0005C03882F90E0880F991F880F991F880F51
:1014E000991F0196880F991F880F991FFC01ED54D1
:1014F000FC4F89819A81AB81BC8180839183A283D7
:10150000B38329813A8181E0B90140E00E944D17FF
:101510001A86198689859A852A960FB6F894DEBFB1
:101520000FBECDBFCF91DF910895DF93CF93CDB79D
:10153000DEB72A970FB6F894DEBF0FBECDBF9887EF
:101540008F838F8198859E012B5F3F4FB9010E9449
:10155000FE08AA2797FDA095BA2F89839A83AB83AB
:10156000BC838D819E81009729F08D819E819A8711
:1015700089873FC080915C03882F90E0880F991F76
:10158000880F991F880F991F0196880F991F880F40
:10159000991FFC01ED54FC4F89819A81AB81BC817C
:1015A00080839183A283B38329813A8180E0B9014A
:1015B00040E00E944D1700D000D000D0EDB7FEB73C
:1015C000319687EA92E09183808389819A81AB8109
:1015D000BC8182839383A483B5830E942A198DB72B
:1015E0009EB706960FB6F8949EBF0FBE8DBF1A86A3
:1015F000198689859A852A960FB6F894DEBF0FBEA4
:10160000CDBFCF91DF910895DF93CF93CDB7DEB7F4
:101610002E970FB6F894DEBF0FBECDBF9C878B8789
:101620001B821C821D821E8218861F8200D000D061
:10163000EDB7FEB731968BEB92E0918380838B857B
:101640009C85938382830E942A190F900F900F909C
:101650000F908B859C859E01295F3F4FAE01475FB0
:101660005F4FB9010E94D705DC01CB018B839C83BE
:10167000AD83BE838F819885009729F08F819885EF
:101680009E878D878BC02F81388549855A858DB778
:101690009EB70A970FB6F8949EBF0FBE8DBFEDB7E9
:1016A000FEB731968EEC92E0918380838B819C8192
:1016B000AD81BE8182839383A483B58337832683E0
:1016C000518740870E942A198DB79EB70A960FB698
:1016D000F8949EBF0FBE8DBF89859A850E946004D5
:1016E000009729F481E090E09E878D8757C08B8119
:1016F0009C81AD81BE81BB2364F08B819C81AD81D7
:10170000BE81813D27E0920720E0A20720E0B207DA
:101710002CF081E190E09E878D8740C080915C0332
:10172000882F90E0880F991F880F991F0196880FC6
:10173000991F880F991F880F991FFC01ED54FC4FCA
:101740008B819C81AD81BE8180839183A283B38391
:101750008B819C81AD81BE81880F991FAA1FBB1F01
:101760009A83898329813A8181E0B90141E00E940D
:101770004D1700D000D0EDB7FEB7319682EF92E062
:101780009183808389819A81938382830E942A191D
:101790000F900F900F900F901E861D868D859E8551
:1017A0002E960FB6F894DEBF0FBECDBFCF91DF915E
:1017B0000895DF93CF93CDB7DEB729970FB6F8948E
:1017C000DEBF0FBECDBF9F838E838E819F819E0122
:1017D0002E5F3F4FAE014C5F5F4FB9010E94060480
:1017E00089838981282F30E04A815B816C817D81EA
:1017F0008DB79EB708970FB6F8949EBF0FBE8DBFEA
:10180000EDB7FEB731968AE093E09183808333830E
:10181000228355834483778366830E942A198DB778
:101820009EB708960FB6F8949EBF0FBE8DBF8A81F3
:101830009B81009729F08A819B819987888727C09F
:101840008C819D810E946004009729F481E090E0E2
:10185000998788871CC08981882349F480E060E0EB
:1018600070E041E00E944D171986188610C08981EA
:10187000813049F480E062E776E041E00E944D1754
:101880001986188604C083E190E099878887888547
:10189000998529960FB6F894DEBF0FBECDBFCF91C4
:1018A000DF910895DF93CF9300D000D000D0CDB763
:1018B000DEB79E838D8380E061E040E00E946C1182
:1018C000CC01A0E0B0E089839A83AB83BC8389819B
:1018D0009A81AB81BC81BC01CD010E942E0880E0C1
:1018E00090E026960FB6F894DEBF0FBECDBFCF9125
:1018F000DF910895DF93CF93CDB7DEB72C970FB666
:10190000F894DEBF0FBECDBF9C878B8780E061E07F
:1019100041E00E946C119E838D838D819E81982F62
:101920008827990F990F990FCC01A0E0B0E08F8321
:101930009887A987BA878F819885A985BA85072E48
:101940007AE0B595A795979587957A95D1F7702DFB
:101950009C018F819885A985BA85CD01BB2797FD0C
:10196000B095AB2F280F391F8F819885A985BA852F
:10197000072E71E1B595A795979587957A95D1F73B
:10198000702D820F931F9C838B836F8178858B8151
:101990009C81AC01440F551F440F551F440F551F28
:1019A0008B819C819C0122953295307F3227207F4C
:1019B00032278B819C81982F8827990F990FF901E5
:1019C000E81BF90BCF01840F951F860F971F9A8391
:1019D000898300D000D000D0EDB7FEB7319686E203
:1019E00092E0918380838B819C8193838283898120
:1019F0009A81958384830E942A198DB79EB7069693
:101A00000FB6F8949EBF0FBE8DBF80E090E02C967D
:101A10000FB6F894DEBF0FBECDBFCF91DF91089512
:101A2000DF93CF9300D0CDB7DEB79A8389838091BF
:101A30005C03882F90E0880F991F880F991F880FEB
:101A4000991F0196880F991F880F991FFC01ED546B
:101A5000FC4F80819181A281B381BC01CD010E94A4
:101A60002E0880E090E00F900F90CF91DF910895C5
:101A7000DF93CF9300D0CDB7DEB79A83898380E020
:101A800090E00F900F90CF91DF910895DF93CF9367
:101A9000CDB7DEB78EE293E00E94D50289E393E0F2
:101AA0000E94D50286E493E00E94D50280E593E08F
:101AB0000E94D50280E090E0CF91DF910895DF93FE
:101AC000CF93CDB7DEB72A970FB6F894DEBF0FBE1F
:101AD000CDBF98878F838F8198859E012B5F3F4F65
:101AE000B9010E94FE08AA2797FDA095BA2F898305
:101AF0009A83AB83BC838D819E81009729F08D8171
:101B00009E819A87898719C080915C03882F90E015
:101B1000880F991F82959295907F9827807F9827AC
:101B2000FC01EF53FC4F89819A81AB81BC8180839A
:101B30009183A283B3831A86198689859A852A960A
:101B40000FB6F894DEBF0FBECDBFCF91DF910895E1
:101B5000DF93CF9300D0CDB7DEB79A83898380918E
:101B60005C03882F90E0880F991F82959295907F53
:101B70009827807F9827FC01EF53FC4F808191814B
:101B8000A281B381BC01CD010E942E0880E090E0CB
:101B90000F900F90CF91DF910895DF93CF93CDB742
:101BA000DEB72A970FB6F894DEBF0FBECDBF988779
:101BB0008F838F8198859E012B5F3F4FB9010E94D3
:101BC000FE08AA2797FDA095BA2F89839A83AB8335
:101BD000BC838D819E81009729F08D819E819A879B
:101BE000898719C080915C03882F90E0880F991F26
:101BF00082959295907F9827807F9827FC01EB53E0
:101C0000FC4F89819A81AB81BC8180839183A283BF
:101C1000B3831A86198689859A852A960FB6F89411
:101C2000DEBF0FBECDBFCF91DF910895DF93CF937D
:101C300000D0CDB7DEB79A83898380915C03882F6B
:101C400090E0880F991F82959295907F9827807FCA
:101C50009827FC01EB53FC4F80819181A281B381D5
:101C6000BC01CD010E942E0880E090E00F900F9003
:101C7000CF91DF910895DF93CF93CDB7DEB72A9749
:101C80000FB6F894DEBF0FBECDBF98878F838F81CC
:101C900098859E012B5F3F4FB9010E94FE08AA273D
:101CA00097FDA095BA2F89839A83AB83BC838D81DE
:101CB0009E81009729F08D819E819A87898719C01E
:101CC00080915C03882F90E0880F991F82959295F0
:101CD000907F9827807F9827FC01E753FC4F8981EC
:101CE0009A81AB81BC8180839183A283B3831A865E
:101CF000198689859A852A960FB6F894DEBF0FBE9D
:101D0000CDBFCF91DF910895DF93CF9300D0CDB7B2
:101D1000DEB79A83898380915C03882F90E0880FD7
:101D2000991F82959295907F9827807F9827FC0134
:101D3000E753FC4F80819181A281B381BC01CD0129
:101D40000E942E0880E090E00F900F90CF91DF91DD
:101D50000895DF93CF93CDB7DEB72A970FB6F894E7
:101D6000DEBF0FBECDBF98878F831B821C821D8272
:101D70001E821A82198289819A81009729F08981AD
:101D80009A819A87898719C080915C03882F90E097
:101D9000880F991F82959295907F9827807F98272A
:101DA000FC01E253FC4F8B819C81AD81BE8180831D
:101DB0009183A283B3831A86198689859A852A9688
:101DC0000FB6F894DEBF0FBECDBFCF91DF9108955F
:101DD000DF93CF9300D0CDB7DEB79A83898380E0BD
:101DE00090E00F900F90CF91DF9108950F93DF93C4
:101DF000CF93CDB7DEB729970FB6F894DEBF0FBEED
:101E0000CDBF8D836E834F83288709878F81882F6D
:101E100090E09C012F70307081E090E002C0880F4C
:101E2000991F2A95E2F78C838D81882F90E0FC0121
:101E3000E55BFB4F8C8180838885882F90E09C0137
:101E40002F70307081E090E002C0880F991F2A95B2
:101E5000E2F78A838D81882F90E0FC01E55CFB4FDF
:101E60008A8180838E81882F90E09C012F70307052
:101E700081E090E002C0880F991F2A95E2F78B83DA
:101E80008D81882F90E0FC01E15BFB4F8B8180838B
:101E90008985882F90E09C012F70307081E090E060
:101EA000022E02C0880F991F0A94E2F789838D8160
:101EB000882F90E0FC01E15CFB4F898180838F815A
:101EC000807F8F838F818823A1F48D81882F90E07C
:101ED000880F991FFC01ED5BFB4F8BE390E0918332
:101EE0008083AAE3B0E0EAE3F0E090818C81892B63
:101EF0008C938F818031A1F48D81882F90E0880FA1
:101F0000991FFC01ED5BFB4F88E390E09183808398
:101F1000A7E3B0E0E7E3F0E090818C81892B8C931C
:101F20008F818032A1F48D81882F90E0880F991FD6
:101F3000FC01ED5BFB4F85E390E091838083A4E39C
:101F4000B0E0E4E3F0E090818C81892B8C938F8169
:101F50008033A1F48D81882F90E0880F991FFC01B8
:101F6000ED5BFB4F82E390E091838083A1E3B0E0DF
:101F7000E1E3F0E090818C81892B8C938885807FD0
:101F8000888788858823F1F48D81882F90E0880FD9
:101F9000991FFC01E55AFB4F89E390E09183808310
:101FA000AAE3B0E0EAE3F0E08081982F8A8180958F
:101FB00089238C93ABE3B0E0EBE3F0E090818A817E
:101FC000892B8C9388858031F1F48D81882F90E066
:101FD000880F991FFC01E55AFB4F86E390E091833F
:101FE0008083A7E3B0E0E7E3F0E08081982F8A8167
:101FF000809589238C93A8E3B0E0E8E3F0E090813A
:102000008A81892B8C9388858032F1F48D81882F89
:1020100090E0880F991FFC01E55AFB4F83E390E0A5
:1020200091838083A4E3B0E0E4E3F0E08081982F23
:102030008A81809589238C93A5E3B0E0E5E3F0E005
:1020400090818A81892B8C9388858033F1F48D81EE
:10205000882F90E0880F991FFC01E55AFB4F80E321
:1020600090E091838083A1E3B0E0E1E3F0E0808140
:10207000982F8A81809589238C93A2E3B0E0E2E3D4
:10208000F0E090818A81892B8C938985807F898774
:1020900089858823A1F48D81882F90E0880F991F6E
:1020A000FC01ED5AFB4F8BE390E091838083AAE320
:1020B000B0E0EAE3F0E090818981892B8C938985F7
:1020C0008031A1F48D81882F90E0880F991FFC0149
:1020D000ED5AFB4F88E390E091838083A7E3B0E063
:1020E000E7E3F0E090818981892B8C9389858032A8
:1020F000A1F48D81882F90E0880F991FFC01ED5A83
:10210000FB4F85E390E091838083A4E3B0E0E4E3B8
:10211000F0E090818981892B8C9389858033A1F4AB
:102120008D81882F90E0880F991FFC01ED5AFB4F9D
:1021300082E390E091838083A1E3B0E0E1E3F0E00B
:1021400090818981892B8C938E81807F8E838E8173
:102150008823A1F48D81882F90E0880F991FFC01BE
:10216000ED5CFB4F8BE390E091838083AAE3B0E0CA
:10217000EAE3F0E090818B81892B8C938E81803112
:10218000A1F48D81882F90E0880F991FFC01ED5CF0
:10219000FB4F88E390E091838083A7E3B0E0E7E31F
:1021A000F0E090818B81892B8C938E818032A1F419
:1021B0008D81882F90E0880F991FFC01ED5CFB4F0B
:1021C00085E390E091838083A4E3B0E0E4E3F0E072
:1021D00090818B81892B8C938E818033A1F48D81AA
:1021E000882F90E0880F991FFC01ED5CFB4F82E384
:1021F00090E091838083A1E3B0E0E1E3F0E090819F
:102200008B81892B8C938D81882F90E0880F991F6B
:10221000FC01ED5CFB4FA081B1818D81882F90E0A6
:10222000880F991FFC01ED5CFB4F0190F081E02DC0
:1022300020818D81882F90E0FC01E15BFB4F808144
:10224000822B8C938D81882F90E0880F991FFC0141
:10225000ED5BFB4FA081B1818D81882F90E0880FCD
:10226000991FFC01ED5BFB4F0190F081E02D808117
:10227000282F8D81882F90E0FC01E55BFB4F80814A
:10228000809582238C938D81882F90E0880F991FF1
:10229000FC01ED5AFB4FA081B1818D81882F90E028
:1022A000880F991FFC01ED5AFB4F0190F081E02D42
:1022B00020818D81882F90E0FC01E15CFB4F8081C3
:1022C000822B8C9329960FB6F894DEBF0FBECDBF3C
:1022D000CF91DF910F910895DF93CF93CDB7DEB704
:1022E00062970FB6F894DEBF0FBECDBF888B698BA7
:1022F0004A8B8889882F90E0880F991FFC01ED5B3D
:10230000FB4F808191819F878E878889882F90E0FD
:10231000880F991FFC01E55AFB4F808191819B87B3
:102320008A878889882F90E0880F991FFC01ED5AD1
:10233000FB4F80819181998788878889882F90E0D9
:10234000880F991FFC01ED5CFB4F808191819D8777
:102350008C878889882F90E0FC01E55BFB4F8081AA
:102360008F838889882F90E0FC01E55CFB4F80819A
:102370008D838889882F90E0FC01E15CFB4F808190
:102380008C838889882F90E0FC01E15BFB4F808182
:102390008E83E885F98590818C81892BE885F98584
:1023A0008083EE85FF858081982F8F81809589239A
:1023B000EE85FF858083EC85FD858081982F8E8159
:1023C00080958923EC85FD85808384E190E00E94DF
:1023D0003913EE85FF8590818F81892BEE85FF85EE
:1023E000808384E690E00E943913EE85FF8580812A
:1023F000982F8F8180958923EE85FF85808384E6E1
:1024000090E00E9439138A89882349F0E885F9858C
:1024100090818C81892BE885F98580830AC0E885C5
:10242000F9858081982F8C8180958923E885F985AD
:102430008083EE85FF8590818F81892BEE85FF85D6
:10244000808384E690E00E943913EE85FF858081C9
:10245000982F8F8180958923EE85FF85808384E680
:1024600090E00E9439138989882F90E084709070E1
:10247000009749F0E885F98590818C81892BE88562
:10248000F98580830AC0E885F9858081982F8C8141
:1024900080958923E885F9858083EE85FF85908185
:1024A0008F81892BEE85FF85808384E690E00E94F2
:1024B0003913EE85FF858081982F8F818095892340
:1024C000EE85FF85808384E690E00E943913898938
:1024D000882F90E082709070009749F0E885F98528
:1024E00090818C81892BE885F98580830AC0E885F5
:1024F000F9858081982F8C8180958923E885F985DD
:102500008083EE85FF8590818F81892BEE85FF8505
:10251000808384E690E00E943913EE85FF858081F8
:10252000982F8F8180958923EE85FF85808384E6AF
:1025300090E00E9439138989882F90E08170907013
:10254000882349F0E885F98590818C81892BE8857D
:10255000F98580830AC0E885F9858081982F8C8170
:1025600080958923E885F9858083EE85FF859081B4
:102570008F81892BEE85FF85808384E690E00E9421
:102580003913EE85FF858081982F8F81809589236F
:10259000EE85FF85808384E690E00E943913EE8506
:1025A000FF8590818F81892BEE85FF85808384E66E
:1025B00090E00E943913EE85FF858081982F8F81EE
:1025C00080958923EE85FF85808384E690E00E94D4
:1025D00039131A8219821B822FC0EE85FF859081E4
:1025E0008F81892BEE85FF85808384E690E00E94B1
:1025F0003913EE85FF858081982F8F8180958923FF
:10260000EE85FF85808384E690E00E9439138981FE
:102610009A81880F991F9A838983EA85FB85908127
:102620008D818923882329F089819A8101969A8353
:1026300089838B818F5F8B838B818D3070F2EC85EA
:10264000FD8590818E81892BEC85FD85808384E6D4
:1026500090E00E94391389819A81969587959F70A1
:1026600062960FB6F894DEBF0FBECDBFCF91DF915B
:102670000895DF93CF9300D0CDB7DEB79A838983D7
:1026800089819A81CC01A0E0B0E020EA3FE040E0FF
:1026900050E0BC01CD010E941D1BDC01CB0128EEE6
:1026A00033E040E050E0BC01CD010E943C1BDA0168
:1026B000C9010E9460130F900F90CF91DF91089590
:1026C000DF93CF9300D0CDB7DEB79A83898389811A
:1026D0009A81009711F400C006C089819A81019700
:1026E000F1F79A8389830F900F90CF91DF9108952E
:1026F000DF93CF9300D000D0CDB7DEB79C838B8320
:102700001A82198209C088EE93E00E9439138981E8
:102710009A8101969A83898329813A818B819C8150
:102720002817390780F30F900F900F900F90CF91DB
:10273000DF910895DF93CF9300D000D0CDB7DEB7FF
:102740009C838B831A82198209C088EE93E00E94D1
:10275000781389819A8101969A83898329813A81A4
:102760008B819C812817390780F30F900F900F9071
:102770000F90CF91DF9108950F93DF93CF93CDB753
:10278000DEB729970FB6F894DEBF0FBECDBF8D839D
:102790006E834F83288709878F81882F90E09C0163
:1027A0002F70307081E090E002C0880F991F2A9549
:1027B000E2F78C838D81882F90E0FC01E159FB4F7B
:1027C0008C8180838885882F90E09C012F703070E9
:1027D00081E090E002C0880F991F2A95E2F78A8372
:1027E0008D81882F90E0FC01E158FB4F8A81808326
:1027F0008E81882F90E09C012F70307081E090E0F6
:1028000002C0880F991F2A95E2F78B838D81882F4C
:1028100090E0FC01E559FB4F8B8180838985882FEF
:1028200090E09C012F70307081E090E0022E02C099
:10283000880F991F0A94E2F789838D81882F90E091
:10284000FC01ED58FB4F898180838F81807F8F83CE
:102850008F818823A1F48D81882F90E0880F991FA4
:10286000FC01ED59FB4F8BE390E091838083AAE359
:10287000B0E0EAE3F0E090818C81892B8C938F812A
:102880008031A1F48D81882F90E0880F991FFC0181
:10289000ED59FB4F88E390E091838083A7E3B0E09C
:1028A000E7E3F0E090818C81892B8C938F818032DB
:1028B000A1F48D81882F90E0880F991FFC01ED59BC
:1028C000FB4F85E390E091838083A4E3B0E0E4E3F1
:1028D000F0E090818C81892B8C938F818033A1F4DF
:1028E0008D81882F90E0880F991FFC01ED59FB4FD7
:1028F00082E390E091838083A1E3B0E0E1E3F0E044
:1029000090818C81892B8C938885807F88878885AE
:102910008823A1F48D81882F90E0880F991FFC01F6
:10292000E958FB4F8BE390E091838083AAE3B0E00A
:10293000EAE3F0E090818A81892B8C93888580314D
:10294000A1F48D81882F90E0880F991FFC01E95830
:10295000FB4F88E390E091838083A7E3B0E0E7E357
:10296000F0E090818A81892B8C9388858032A1F454
:102970008D81882F90E0880F991FFC01E958FB4F4B
:1029800085E390E091838083A4E3B0E0E4E3F0E0AA
:1029900090818A81892B8C9388858033A1F48D81E5
:1029A000882F90E0880F991FFC01E958FB4F82E3C4
:1029B00090E091838083A1E3B0E0E1E3F0E09081D7
:1029C0008A81892B8C938E81807F8E838E81882350
:1029D000A1F48D81882F90E0880F991FFC01E557A5
:1029E000FB4F8BE390E091838083AAE3B0E0EAE3BE
:1029F000F0E090818B81892B8C938E818031A1F4C2
:102A00008D81882F90E0880F991FFC01E557FB4FBF
:102A100088E390E091838083A7E3B0E0E7E3F0E010
:102A200090818B81892B8C938E818032A1F48D8152
:102A3000882F90E0880F991FFC01E557FB4F85E335
:102A400090E091838083A4E3B0E0E4E3F0E0908140
:102A50008B81892B8C938E818033A1F48D81882F7B
:102A600090E0880F991FFC01E557FB4F82E390E04F
:102A700091838083A1E3B0E0E1E3F0E090818B817A
:102A8000892B8C938985807F898789858823A1F408
:102A90008D81882F90E0880F991FFC01ED57FB4F27
:102AA0008BE390E091838083AAE3B0E0EAE3F0E077
:102AB00090818981892B8C9389858031A1F48D81C6
:102AC000882F90E0880F991FFC01ED57FB4F88E39A
:102AD00090E091838083A7E3B0E0E7E3F0E09081AA
:102AE0008981892B8C9389858032A1F48D81882FEF
:102AF00090E0880F991FFC01ED57FB4F85E390E0B4
:102B000091838083A4E3B0E0E4E3F0E090818981E5
:102B1000892B8C9389858033A1F48D81882F90E057
:102B2000880F991FFC01ED57FB4F82E390E09183E2
:102B30008083A1E3B0E0E1E3F0E090818981892B1B
:102B40008C938D81882F90E0880F991FFC01E557A9
:102B5000FB4FA081B1818D81882F90E0880F991F54
:102B6000FC01E557FB4F0190F081E02D20818D8124
:102B7000882F90E0FC01E559FB4F8081822B8C93DC
:102B80008D81882F90E0880F991FFC01ED59FB4F34
:102B9000A081B1818D81882F90E0880F991FFC0161
:102BA000ED59FB4F0190F081E02D8081282F8D8120
:102BB000882F90E0FC01E159FB4F808180958223B2
:102BC0008C938D81882F90E0880F991FFC01ED5721
:102BD000FB4FA081B1818D81882F90E0880F991FD4
:102BE000FC01ED57FB4F0190F081E02D20818D819C
:102BF000882F90E0FC01ED58FB4F8081822B8C9355
:102C000029960FB6F894DEBF0FBECDBFCF91DF91EE
:102C10000F910895DF93CF9300D000D00F92CDB7DE
:102C2000DEB78B836C834D838C81882F90E09C0171
:102C30002F70307081E090E002C0880F991F2A95B4
:102C4000E2F78A838D81882F90E09C012F7030708D
:102C500081E090E0022E02C0880F991F0A94E2F7EB
:102C600089838B81882F90E0FC01E559FB4F8A8195
:102C700080838B81882F90E0FC01ED58FB4F898188
:102C800080838C81807F8C838C818823A1F48B81CD
:102C9000882F90E0880F991FFC01E557FB4F8BE3CD
:102CA00090E091838083AAE3B0E0EAE3F0E09081D2
:102CB0008A81892B8C938C818031A1F48B81882F20
:102CC00090E0880F991FFC01E557FB4F88E390E0E7
:102CD00091838083A7E3B0E0E7E3F0E090818A810D
:102CE000892B8C938C818032A1F48B81882F90E08A
:102CF000880F991FFC01E557FB4F85E390E0918316
:102D00008083A4E3B0E0E4E3F0E090818A81892B42
:102D10008C938C818033A1F48B81882F90E0880F75
:102D2000991FFC01E557FB4F82E390E0918380837C
:102D3000A1E3B0E0E1E3F0E090818A81892B8C93FC
:102D40008D81807F8D838D818823A1F48B81882F55
:102D500090E0880F991FFC01ED57FB4F8BE390E04B
:102D600091838083AAE3B0E0EAE3F0E09081898177
:102D7000892B8C938D818031A1F48B81882F90E0F9
:102D8000880F991FFC01ED57FB4F88E390E091837A
:102D90008083A7E3B0E0E7E3F0E090818981892BAD
:102DA0008C938D818032A1F48B81882F90E0880FE5
:102DB000991FFC01ED57FB4F85E390E091838083E1
:102DC000A4E3B0E0E4E3F0E090818981892B8C9367
:102DD0008D818033A1F48B81882F90E0880F991F1B
:102DE000FC01ED57FB4F82E390E091838083A1E3E8
:102DF000B0E0E1E3F0E090818981892B8C93EDE2F2
:102E0000F0E080E58083EEE2F0E081E080838B817A
:102E1000882F90E0880F991FFC01E557FB4FA08198
:102E2000B1818B81882F90E0880F991FFC01E557B5
:102E3000FB4F0190F081E02D20818B81882F90E065
:102E4000FC01E559FB4F8081822B8C938B81882F6D
:102E500090E0880F991FFC01ED57FB4FA081B181D5
:102E60008B81882F90E0880F991FFC01ED57FB4F55
:102E70000190F081E02D20818B81882F90E0FC0172
:102E8000ED58FB4F8081822B8C930F900F900F9009
:102E90000F900F90CF91DF910895DF93CF93CDB72F
:102EA000DEB761970FB6F894DEBF0FBECDBF8E8739
:102EB000788B6F87498B8F8598898070907F00977A
:102EC00069F48F8598899067988B8F878989882383
:102ED00029F48F8598899068988B8F878E85882FA5
:102EE00090E0880F991FFC01ED59FB4F8081918183
:102EF0009D878C878E85882F90E0880F991FFC0115
:102F0000E958FB4F80819181998788878E85882F2A
:102F100090E0880F991FFC01E557FB4F808191815C
:102F20009B878A878E85882F90E0880F991FFC01E8
:102F3000ED57FB4F808191819F838E838E85882FF3
:102F400090E0FC01E159FB4F80818D838E85882FB5
:102F500090E0FC01E158FB4F80818B838E85882FA8
:102F600090E0FC01E559FB4F80818C838E85882F92
:102F700090E0FC01ED58FB4F80818A83EA85FB8558
:102F80008081982F8C8180958923EA85FB858083B9
:102F9000E885F9858081982F8B8180958923E88544
:102FA000F9858083198232C0EC85FD858081982F58
:102FB0008D8180958923EC85FD8580838F85988917
:102FC00099234CF4E885F98590818B81892BE885DC
:102FD000F98580830AC0E885F9858081982F8B81E7
:102FE00080958923E885F9858083EC85FD8590812E
:102FF0008D81892BEC85FD8580838F859889880F4D
:10300000991F988B8F8789818F5F89838981803110
:1030100058F2EC85FD858081982F8D8180958923DC
:10302000EC85FD858083EA85FB8590818C81892BE9
:10303000EA85FB858083EE81FF818081982F8A81DC
:1030400080958923EE81FF81808382E090E00E9459
:103050003913EE81FF8190818A81892BEE81FF8176
:10306000808361960FB6F894DEBF0FBECDBFCF91BF
:10307000DF910895DF93CF93CDB7DEB72A970FB6D0
:10308000F894DEBF0FBECDBF8F83798768874A87EC
:10309000888599858070907F009769F488859985E7
:1030A0009067998788878A85882329F488859985F8
:1030B0009068998788878F81882F90E0880F991F63
:1030C000FC01E557FB4F808191819E838D838F8129
:1030D000882F90E0880F991FFC01ED57FB4F8081EE
:1030E00091819C838B838F81882F90E0FC01E5592F
:1030F000FB4F80818A838F81882F90E0FC01ED58FF
:10310000FB4F80818983ED81FE818081982F8A81A8
:1031100080958923ED81FE818083EFE2F0E0888550
:103120009985892F990F990B8083EEE2F0E08081D9
:103130008823DCF7EFE2F0E088858083EEE2F0E0C0
:1031400080818823DCF7ED81FE8190818A81892B43
:10315000ED81FE818083EB81FC818081982F8981C4
:1031600080958923EB81FC81808382E090E00E943E
:103170003913EB81FC8190818981892BEB81FC8162
:1031800080832A960FB6F894DEBF0FBECDBFCF91D5
:10319000DF910895DF93CF93CDB7DEB7E0E4F0E0A1
:1031A0001082E9E2F0E087E68083EAE2F0E088E17D
:1031B0008083E0E4F0E086E880831092B30410920C
:1031C000B404AAE2B0E0EAE2F0E0808180688C9387
:1031D0007894CF91DF910895DF93CF930F92CDB77D
:1031E000DEB78983EBE2F0E08081882F90E0807287
:1031F00090700097B9F3ECE2F0E0898180830F9042
:10320000CF91DF910895DF93CF9300D000D0CDB759
:10321000DEB79A83898303C08B810E94EC18E98111
:10322000FA8180818B838B818C838C81882311F040
:1032300081E08C838C8129813A812F5F3F4F3A83D3
:103240002983882349F70F900F900F900F90CF910B
:10325000DF910895DF93CF93CDB7DEB7E8970FB630
:10326000F894DEBF0FBECDBFCE01CF969E8B8D8B67
:103270008DAD9EAD9C8B8B8B74C1EB89FC8980815D
:10328000853231F0EB89FC8980810E94EC1864C1A1
:103290008B899C8901969C8B8B8BEB89FC89808127
:1032A000282F30E038AF2FAB8FA998AD8936910524
:1032B00009F447C02FA938AD2A363105F4F48FA997
:1032C00098AD8535910509F470C02FA938AD263524
:1032D00031053CF48FA998AD8C34910509F4A8C050
:1032E00036C12FA938AD2336310509F4E5C08FA9C1
:1032F00098AD8436910529F12AC12FA938AD23371D
:10330000310509F4E8C08FA998AD843791056CF4B4
:103310002FA938AD2C36310509F468C08FA998ADB6
:103320008037910509F4F0C012C12FA938AD2537B7
:10333000310509F18FA998AD8837910509F4A2C02C
:1033400006C12D893E89C90102969E8B8D8BF9019C
:1033500080819181988B8F878F8598899E01295EC6
:103360003F4FB9014AE050E00E94AA1BCE014796A8
:103370000E940319F1C02D893E89C90102969E8BD6
:103380008D8BF901808191819A83898389819A81CA
:103390009E01295E3F4FB9014AE050E00E94241C83
:1033A000CE0147960E940319D7C02D893E89C901D5
:1033B00004969E8B8D8BF90180819181A281B381CE
:1033C0009A83898389819A81CC01A0E0B0E09E0133
:1033D000295E3F4FBC01CD01A9012AE030E00E94E7
:1033E000FF1BCE0147960E940319B6C02D893E8966
:1033F000C90104969E8B8D8BF90180819181A281F8
:10340000B3818B879C87AD87BE878B859C85AD8577
:10341000BE859E01295E3F4FBC01CD01A9012AE076
:1034200030E00E94CB1BCE0147960E94031994C046
:103430002D893E89C90108969E8B8D8BF90180816B
:103440008B8381818C8382818D8383818E83848130
:103450008F83858188878681898787818A878B8109
:103460009C81AD81BE819E01295E3F4FBC01CD0193
:10347000A9012AE030E00E94CB1BCE0147960E94B2
:1034800003196AC02D893E89C90102969E8B8D8BD6
:10349000F90180819181988B8F878F8598899E0112
:1034A000295E3F4FB90140E150E00E94AA1BCE01C6
:1034B00047960E94031950C02D893E89C901029682
:1034C0009E8B8D8BF90180819181988B8F878F8561
:1034D0000E94EC1841C02D893E89C90102969E8B3D
:1034E0008D8BF901808191819A8B898B89899A8949
:1034F000009729F486E593E00E9403192DC089897D
:103500009A890E94031928C02D893E89C901029613
:103510009E8B8D8BF901808191819A8B898B898912
:103520009A89009729F486E593E00E94031914C054
:1035300089899A899E01295E3F4FB90140E150E097
:103540000E94AA1BCE0147960E94031905C0EB8971
:10355000FC8980810E94EC188B899C8901969C8B48
:103560008B8BEB89FC898081882309F086CEE896D5
:103570000FB6F894DEBF0FBECDBFCF91DF91089597
:103580001F920F920FB60F9211242F933F934F93D8
:103590005F936F937F938F939F93AF93BF93EF93BB
:1035A000FF93DF93CF930F92CDB7DEB7ECE2F0E05D
:1035B000808189838091B404882F90E0FC01ED56CE
:1035C000FB4F898180838091B4048F5F8093B40422
:1035D0008091B404803210F01092B40489818D304F
:1035E00019F089818A3019F481E08093B3048981CC
:1035F0000E94EC180F90CF91DF91FF91EF91BF9156
:10360000AF919F918F917F916F915F914F913F917A
:103610002F910F900FBE0F901F901895DF93CF93AF
:10362000CDB7DEB7EBE2F0E080818823DCF7ECE297
:10363000F0E08081CF91DF910895629FD001739F68
:10364000F001829FE00DF11D649FE00DF11D929F3E
:10365000F00D839FF00D749FF00D659FF00D99277D
:10366000729FB00DE11DF91F639FB00DE11DF91FA1
:10367000BD01CF011124089597FB092E05260ED018
:1036800057FD04D014D00AD0001C38F45095409552
:10369000309521953F4F4F4F5F4F0895F6F7909526
:1036A0008095709561957F4F8F4F9F4F0895A1E250
:1036B0001A2EAA1BBB1BFD010DC0AA1FBB1FEE1FAC
:1036C000FF1FA217B307E407F50720F0A21BB30BF7
:1036D000E40BF50B661F771F881F991F1A9469F773
:1036E00060957095809590959B01AC01BD01CF01CF
:1036F000089585FDBFC080629111BCC081568A517A
:10370000E0F70895FB01DC0105900D920020E1F740
:103710000895FC0101900020E9F7809590958E0FA7
:103720009F1F0895FB01DC014150504088F08D91AE
:1037300081341CF08B350CF4805E619161341CF097
:103740006B350CF4605E861B611171F3990B089563
:10375000881BFCCFFB019F01E8944230C4F0453246
:10376000B4F44A3029F497FB1EF4909581959F4F4D
:10377000642F77270E944D1C805D8A330CF0895D91
:103780008193CB010097A1F716F45DE2519310826B
:10379000C9010C943D1CFA01CF93FF93EF932230A3
:1037A00044F1253234F5C22FE894CA3049F497FB2E
:1037B0003EF490958095709561957F4F8F4F9F4F08
:1037C0002C2F332744275527FF93EF930E94571B35
:1037D000EF91FF91605D6A330CF0695D6193B9010F
:1037E000CA01605070408040904051F716F4CDE21D
:1037F000C19310828F919F91CF910C943D1CFA013F
:10380000CF93FF93EF932230CCF02532BCF4C22F3C
:103810002C2F332744275527FF93EF930E94571BE4
:10382000EF91FF91605D6A330CF0695D6193B901BE
:10383000CA01605070408040904051F710828F91D3
:103840009F91CF910C943D1CFB019F01423074F07D
:10385000453264F4642F77270E944D1C805D8A33C3
:103860000CF0895D8193CB010097A1F71082C9010B
:103870000C943D1C992788270895DC01FC01672FD3
:1038800071917723E1F7329704C07C916D93708337
:103890006291AE17BF07C8F30895AA1BBB1B51E185
:1038A00007C0AA1FBB1FA617B70710F0A61BB70BB0
:1038B000881F991F5A95A9F780959095BC01CD0155
:0638C0000895F894FFCF0B
:1038C60001000200040008001000200040008000F3
:1038D6000D0A000D0A636F7079706F733A25640DD7
:1038E6000A004F560D0A000D0A0D0A6D61696E3AFF
:1038F600676F74205B25735D2C206C656E202564D4
:103906000D0A007265763A25640A005253540A007D
:10391600736370695F70617273655F6C696E653A37
:1039260025642073323A5B25735D0D0A00455252B9
:103936004F523A20756E6B6E6F776E20636F6D6DAA
:10394600616E64004552524F522065786375746902
:103956006E6720636D643A2025640D0A006C696EFB
:103966006520756E7465726D696E61746564006953
:103976006E7465676572206F76657272616E6765D3
:10398600006C6F6E67206F76657272616E67650098
:10399600766F6C74616765206F7574206F66207230
:1039A600616E67652028302E2E3531322900637509
:1039B6007272656E74206F7574206F662072616E08
:1039C60067652028302E2E322E3029006F76702023
:1039D6006F7574206F662072616E67652028302EC1
:1039E6002E35313229007374616E6462793A206F24
:1039F6006E6C792031206F72203000756E6B6E6FA1
:103A0600776E206572726F722028636F6465202559
:103A16006429000D0A006765745F64696769743A12
:103A2600205B25735D0D0A006572726F723A25641C
:103A36000D0A006C6F6E67667261633A2076616C80
:103A46003A256C2C206572726F723A25640D0A0055
:103A56006D56000001FD5600000001004B560000A7
:103A660001037541000002FA6D41000002FD4100AC
:103A7600000002004D53000003FD53000000030048
:103A860000000000040025642E256420560D0A005F
:103A96006765745F64616376616C3A5B25735D0D7F
:103AA6000A006765745F64616376616C20676F7492
:103AB60020256C2020286572723A256429205B2512
:103AC600735D0D0A006765745F64616376616C3AC5
:103AD60064616376616C2025640D0A007365745F0A
:103AE600696E7374725F73656C20676F74202573DB
:103AF6002020286572723A256429205B25735D0DA6
:103B06000A0025640D0A007365745F6F76703A6467
:103B1600616376616C2025640D0A007365745F63CA
:103B2600757272656E743A5B25735D0D0A00736576
:103B3600745F63757272656E743A676F7420256C74
:103B46002020286572723A256429205B25735D0D55
:103B56000A007365745F63757272656E743A6461A8
:103B66006376616C2025640D0A007365745F737457
:103B7600616E64627920676F742025732020286542
:103B860072723A256429205B25735D0D0A006F76F3
:103B960070203531322E300A0063757272656E748C
:103BA60020312E300A00766F6C7420302E300A00D9
:0C3BB600737420310A004E554C4C000086
:00000001FF
