:100000000C942A000C9447000C9447000C94470071
:100010000C9447000C9447000C9447000C94470044
:100020000C9447000C9447000C9447000C94470034
:100030000C9447000C94E2000C9447000C94470089
:100040000C9447000C9447000C9447000C94470014
:100050000C94470011241FBECFE5D8E0DEBFCDBF12
:1000600010E0A0E6B0E0E2ECF0E102C005900D92F5
:10007000AC38B107D9F711E0ACE8B0E001C01D928F
:10008000AD32B107E1F70E9449000C945F080C946F
:100090000000CF92DF92EF92FF920F931F93CF93C6
:1000A000DF930E94C50080E061E147E120E003E1C9
:1000B0000E94D00281E062E147E123E100E10E9479
:1000C000150500D000D080E690E0ADB7BEB712961F
:1000D0009C938E93119714961C921E9213970E94D4
:1000E000100180E090E00F900F900F900F902FEF95
:1000F000C22E2FE0D22EC8E6D0E09C0189010F5F0E
:100100001F4F81E0B80140E00E948607B601601BE6
:10011000710B81E041E00E9486078CED95E00E9422
:100120009D0180E061E041E00E943C047C0180E0B0
:1001300060E041E00E943C04EDB7FEB738970FB68F
:10014000F894FEBF0FBEEDBF3196ADB7BEB71296A5
:10015000DC93CE93119713830283F582E482978315
:1001600086830E941001C801019620E030E0EDB7BF
:10017000FEB738960FB6F894FEBF0FBEEDBFF0E1A4
:1001800080309F070CF4B9CFB9CF10BC87E689B98E
:1001900088E18AB986E880BD1092B2001092B3005F
:1001A0001092B400579A789408955D9BFECF8CB955
:1001B0000895FC0103C05D9BFECF8CB9819188231B
:1001C000D1F708951F920F920FB60F9211242F931B
:1001D0008F939F93EF93FF932CB18091B2009CB1CA
:1001E000E82FF0E0EE56FF4F90838F5F8093B200D0
:1001F0002A3019F481E08093B3001092B400FF918B
:10020000EF919F918F912F910F900FBE0F901F90A4
:100210001895FC0181E080830895FC011082089507
:10022000CF92DF92EF92FF920F931F93DF93CF93C2
:10023000CDB7DEB7A0970FB6F894DEBF0FBECDBF27
:10024000FE01BD968BA59CA59C0179016E010894C9
:10025000C11CD11C4EC0853219F05D9BFECF45C03C
:100260000894E11CF11CD7018C918936C9F08A36BB
:1002700028F4833651F18436B1F512C0853729F060
:100280008837B9F0833779F525C08F010E5F1F4F8E
:1002900080819181B6014AE050E00E94250813C098
:1002A0008F010E5F1F4F80819181B6014AE050E0BF
:1002B00008C08F010E5F1F4F80819181B60140E120
:1002C00050E00E940408C6010AC080815D9BFECFF9
:1002D00032960BC08F010E5F1F4F808191810E946B
:1002E000D900F80103C05D9BFECF8CB90894E11CD6
:1002F000F11CD7018C91882309F0ADCFA0960FB6E1
:10030000F894DEBF0FBECDBFCF91DF911F910F914B
:10031000FF90EF90DF90CF900895A0E0B0E022E052
:10032000880F991FAA1FBB1F2A95D1F7892B11F49B
:1003300000C008950197F1F7089520E030E040EA09
:100340005FE005C0FA013197F1F72F5F3F4F2817A3
:100350003907C0F3089540E050E060EA7FE00DC047
:1003600020E030E0FB013197F1F72F5F3F4FE3E0F2
:10037000283E3E07B9F74F5F5F4F4817590780F394
:100380000895A82FB0E0FD01EB52FF4F262F2770F4
:1003900081E090E002C0880F991F2A95E2F78083E0
:1003A000607F39F4AA0FBB1FAB54BF4F8BE390E0C3
:1003B00011C0603139F4AA0FBB1FAB54BF4F88E3A3
:1003C00090E008C0603249F4AA0FBB1FAB54BF4F86
:1003D00085E390E08D939C930895603341F4AA0FD8
:1003E000BB1FAB54BF4F82E390E08D939C93089565
:1003F000CF92DF92EF92FF920F931F93CF93DF93F1
:10040000482F407FA5EBB0E020E030E061E0C62E51
:10041000D12C52E3E52EF12C05E310E0C8E3D0E047
:100420006BE370E0F901EB52FF4FC601022E02C0F0
:10043000880F991F0A94E2F78083442321F41196D0
:100440007C936E9311C0403121F41196DC93CE93CE
:100450000BC0403221F411961C930E9305C040331B
:1004600019F41196FC92EE922F5F3F4F12962830AE
:100470003105C1F6DF91CF911F910F91FF90EF9061
:10048000DF90CF900895A82FB0E0FD01EE0FFF1F81
:10049000EB54FF4F0190F081E02D8081AB52BF4FB4
:1004A0009C91892B80830895A82FB0E0FD01EE0F69
:1004B000FF1FEB54FF4F0190F081E02D9081AB5274
:1004C000BF4F8C918095892380830895982F9770D2
:1004D00021E030E001C0220F9A95EAF782958F70F3
:1004E000813051F0813030F0823041F0833049F07A
:1004F00080E0089589B303C086B301C083B382232B
:10050000089580B382230895982F977021E030E0FA
:1005100001C0220F9A95EAF782958F70813059F0C9
:10052000813028F0823059F0833081F40CC08BB3D5
:10053000282B2BBB0BC088B3282B28BB07C085B347
:10054000282B25BB03C082B3282B22BB80E0089553
:10055000982F977021E030E001C0220F9A95EAF7BA
:1005600082958F70813061F0813028F0823069F09F
:100570008330A1F40FC08BB3209528232BBB0EC072
:1005800088B32095282328BB09C085B3209528234C
:1005900025BB04C082B32095282322BB80E00895A8
:1005A0000F931F93CF93DF93B62FA22F242F2F707B
:1005B00061E070E0FB0102C0EE0FFF1F2A95E2F739
:1005C0009F013E2FC82FD0E0FE01EF5FFE4F20833A
:1005D0008A2F8F70FB0102C0EE0FFF1F8A95E2F792
:1005E000CF015E2FFE01E350FF4F80838B2F8F7072
:1005F000FB0102C0EE0FFF1F8A95E2F7CF011E2F0D
:10060000FE01EF50FF4F8083802F8F7002C0660F76
:10061000771F8A95E2F7762FFE01EB51FF4F60833B
:10062000407F69F4FE01EE0FFF1FEB5FFE4F8BE38F
:1006300090E0918380838AB3382B3ABB2CC0403141
:1006400069F4FE01EE0FFF1FEB5FFE4F88E390E0C1
:100650009183808387B3382B37BB1DC0403269F448
:10066000FE01EE0FFF1FEB5FFE4F85E390E09183ED
:10067000808384B3382B34BB0EC0403361F4FE0159
:10068000EE0FFF1FEB5FFE4F82E390E091838083CC
:1006900081B3382B31BB2A2F207F91F4FE01EE0F5E
:1006A000FF1FEB50FF4F89E390E0918380839AB363
:1006B000852F809589238ABB8BB3582B5BBB3BC0AE
:1006C000203191F4FE01EE0FFF1FEB50FF4F86E348
:1006D00090E09183808397B3852F8095892387BB92
:1006E00088B3582B58BB27C0203291F4FE01EE0F7F
:1006F000FF1FEB50FF4F83E390E09183808394B31F
:10070000852F8095892384BB85B3582B55BB13C097
:10071000203389F4FE01EE0FFF1FEB50FF4F80E303
:1007200090E09183808391B3852F8095892381BB4D
:1007300082B3582B52BB007F69F4FE01EE0FFF1FFE
:10074000E35FFE4F8BE390E0918380838AB3782B45
:100750007ABB2CC0003169F4FE01EE0FFF1FE35F8E
:10076000FE4F88E390E09183808387B3782B77BB3B
:100770001DC0003269F4FE01EE0FFF1FE35FFE4F64
:1007800085E390E09183808384B3782B74BB0EC0A3
:10079000003361F4FE01EE0FFF1FE35FFE4F82E3C3
:1007A00090E09183808381B3782B71BB6B2F607F46
:1007B00069F4FE01EE0FFF1FE751FF4F8BE390E05E
:1007C000918380838AB3812B8ABB2CC0603169F40A
:1007D000FE01EE0FFF1FE751FF4F88E390E091838A
:1007E000808387B3812B87BB1DC0603269F4FE0113
:1007F000EE0FFF1FE751FF4F85E390E09183808369
:1008000084B3812B84BB0EC0603361F4FE01EE0F14
:10081000FF1FE751FF4F82E390E09183808381B314
:10082000812B81BBDE01AA0FBB1FFD01E751FF4FEA
:100830000190F081E02D8081182B1083FD01EB5F8A
:10084000FE4F20813181F9019081FE01EF5FFE4F63
:10085000808180958923F9018083A35FBE4FED914C
:10086000FC918081CB51DF4F9881892B8083DF9170
:10087000CF911F910F9108955F926F927F928F9207
:100880009F92AF92BF92CF92DF92EF92FF920F931F
:100890001F93CF93DF93762E142F90E0DC01AA0FE5
:1008A000BB1FFD01EB5FFE4FC081D181FD01EB500D
:1008B000FF4F80809180FD01E35FFE4FE080F1807B
:1008C000A751BF4FCD90DC90FC01EF5FFE4FA080A1
:1008D000FC01E350FF4F5080FC01EB51FF4F0081C2
:1008E0008F509F4FFC016080F7018081802B8083B7
:1008F0008881BA2CB0948B218883F6019081862D53
:1009000080958923808384E190E00E948D01888115
:100910008A29888384E690E00E948D0188818B215A
:10092000888384E690E00E948D01112321F0F70175
:100930008081802B05C0F7019081802F80958923CD
:10094000808388818A29888384E690E00E948D01D3
:1009500088818B21888384E690E00E948D01772036
:1009600021F0F7018081802B05C0F7019081802F55
:1009700080958923808388818A29888384E690E012
:100980000E948D0188818B21888384E690E00E94FB
:100990008D01F7018081802B808388818A2988835B
:1009A00084E690E00E948D0188818B21888384E613
:1009B00090E00E948D01FF2400E010E088818A29E8
:1009C000888384E690E00E948D0188818B21888352
:1009D00084E690E00E948D01000F111FF4018081D8
:1009E000852111F00F5F1F4FF394FDE0FF1631F7E3
:1009F000F60180818629808384E690E00E948D0143
:100A00009801369527953F70C901DF91CF911F91CD
:100A10000F91FF90EF90DF90CF90BF90AF909F909D
:100A20008F907F906F905F9008950F931F93CF9357
:100A3000DF93B62FA22F242F2F7061E070E0FB010F
:100A400002C0EE0FFF1F2A95E2F79F013E2FC82F2D
:100A5000D0E0FE01EF5FFE4F20838A2F8F70FB01F5
:100A600002C0EE0FFF1F8A95E2F7CF015E2FFE0155
:100A7000EF5DFE4F80838B2F8F70FB0102C0EE0F66
:100A8000FF1F8A95E2F7CF011E2FFE01EF50FF4FA7
:100A90008083802F8F7002C0660F771F8A95E2F7E0
:100AA000762FFE01E35EFE4F6083407F69F4FE0116
:100AB000EE0FFF1FEB5FFE4F8BE390E0918380838F
:100AC0008AB3382B3ABB2CC0403169F4FE01EE0FDB
:100AD000FF1FEB5FFE4F88E390E09183808387B335
:100AE000382B37BB1DC0403269F4FE01EE0FFF1FEB
:100AF000EB5FFE4F85E390E09183808384B3382BD6
:100B000034BB0EC0403361F4FE01EE0FFF1FEB5FFC
:100B1000FE4F82E390E09183808381B3382B31BB19
:100B20002A2F207F69F4FE01EE0FFF1FEB5EFE4FC0
:100B30008BE390E0918380838AB3582B5ABB2CC0FF
:100B4000203169F4FE01EE0FFF1FEB5EFE4F88E3DC
:100B500090E09183808387B3582B57BB1DC0203210
:100B600069F4FE01EE0FFF1FEB5EFE4F85E390E0A0
:100B70009183808384B3582B54BB0EC0203361F41F
:100B8000FE01EE0FFF1FEB5EFE4F82E390E09183CC
:100B9000808381B3582B51BB6B2F607F69F4FE01BA
:100BA000EE0FFF1FE751FF4F8BE390E091838083AF
:100BB0008AB3812B8ABB2CC0603169F4FE01EE0F31
:100BC000FF1FE751FF4F88E390E09183808387B355
:100BD000812B87BB1DC0603269F4FE01EE0FFF1F41
:100BE000E751FF4F85E390E09183808384B3812BAD
:100BF00084BB0EC0603361F4FE01EE0FFF1FE751AE
:100C0000FF4F82E390E09183808381B3812B81BB8E
:100C1000007F69F4FE01EE0FFF1FEB5DFE4F8BE3DB
:100C200090E0918380838AB3782B7ABB2CC000310B
:100C300069F4FE01EE0FFF1FEB5DFE4F88E390E0CD
:100C40009183808387B3782B77BB1DC0003269F412
:100C5000FE01EE0FFF1FEB5DFE4F85E390E09183F9
:100C6000808384B3782B74BB0EC0003361F4FE0123
:100C7000EE0FFF1FEB5DFE4F82E390E091838083D8
:100C800081B3782B71BBDE01AA0FBB1FFD01E751B9
:100C9000FF4F0190F081E02D8081182B1083FD0122
:100CA000EB5FFE4F20813181F9019081FE01EF5F02
:100CB000FE4F808180958923F9018083AB5DBE4F13
:100CC000ED91FC918081C35EDE4F9881892B8083FA
:100CD000DF91CF911F910F910895CF93DF93742FE0
:100CE000462F4F7021E030E0F90102C0EE0FFF1FE8
:100CF0004A95E2F7AF015E2F972F9F7002C0220F37
:100D0000331F9A95E2F7322FC82FD0E0FE01EF5043
:100D1000FF4F4083FE01E35EFE4F2083607F69F456
:100D2000FE01EE0FFF1FE751FF4F8BE390E0918331
:100D300080838AB3852B8ABB2CC0603169F4FE01A5
:100D4000EE0FFF1FE751FF4F88E390E09183808310
:100D500087B3852B87BB1DC0603269F4FE01EE0F9F
:100D6000FF1FE751FF4F85E390E09183808384B3B9
:100D7000852B84BB0EC0603361F4FE01EE0FFF1FB4
:100D8000E751FF4F82E390E09183808381B3852B0D
:100D900081BB472F407F69F4FE01EE0FFF1FEB5D23
:100DA000FE4F8BE390E0918380838AB3382B3ABB6C
:100DB0002CC0403169F4FE01EE0FFF1FEB5DFE4FCA
:100DC00088E390E09183808387B3382B37BB1DC0C5
:100DD000403269F4FE01EE0FFF1FEB5DFE4F85E32D
:100DE00090E09183808384B3382B34BB0EC04033B2
:100DF00061F4FE01EE0FFF1FEB5DFE4F82E390E01A
:100E00009183808381B3382B31BB80E58DB981E03C
:100E10008EB9DE01AA0FBB1FFD01E751FF4F019004
:100E2000F081E02D8081582B5083AB5DBE4FED915A
:100E3000FC918081C35EDE4F9881892B8083DF9196
:100E4000CF910895CF92DF92EF92FF920F931F936D
:100E5000CF93DF93282FEB01CB018070907F892BFC
:100E600021F4D067442309F4D068822F90E0FC017C
:100E7000EE0FFF1FDF01A751BF4F0D911C91EB5DDE
:100E8000FE4FE080F180FC01EF50FF4FD080835E89
:100E90009E4FFC01C08000D000D083E890E0EDB709
:100EA000FEB792838183148303830E941001F801AB
:100EB00090818D2D8095892380838D2F992787FDA3
:100EC0009A958FB90F900F900F900F90779BFECF50
:100ED000CFB9779BFECFF80180818D298083F70100
:100EE00090818C2D80958923808382E090E00E9400
:100EF0008D01F70180818C298083DF91CF911F9133
:100F00000F91FF90EF90DF90CF900895CF92DF92F6
:100F1000EF92FF920F931F93CF93DF93282FCB0174
:100F20008070907F892B21F47067442309F47068E6
:100F3000822F90E0DC01AA0FBB1FFD01EB5FFE4F8B
:100F400020813181FD01EB5EFE4FC081D181FD0129
:100F5000E751FF4F00811181AB5DBE4FED90FC90DA
:100F6000FC01EF5FFE4F4081FC01EF5DFE4FB08161
:100F7000FC01EF50FF4FC080835E9E4FFC01D0808C
:100F8000F80190818C2D80958923808388815B2F47
:100F900050958523888390E0A42FA095F901808146
:100FA0008A23808377FF03C088818B2B02C08881CE
:100FB00085238883F9018081842B80839F5F903112
:100FC00019F0660F771FEACFF90180814095482319
:100FD0004083F80180818C298083F70190818D2DD9
:100FE00080958923808382E090E00E948D01F70143
:100FF00080818D298083DF91CF911F910F91FF9088
:10100000EF90DF90CF900895FB019F01E89442306C
:10101000C4F04532B4F44A3029F497FB1EF490959D
:1010200081959F4F642F77270E944B08805D8A33FC
:101030000CF0895D8193CB010097A1F716F45DE276
:1010400051931082C9010C943B08FB019F0142306F
:1010500074F0453264F4642F77270E944B08805D5A
:101060008A330CF0895D8193CB010097A1F7108240
:10107000C9010C943B08DC01FC01672F71917723B7
:10108000E1F7329704C07C916D9370836291AE1743
:10109000BF07C8F30895AA1BBB1B51E107C0AA1FD5
:1010A000BB1FA617B70710F0A61BB70B881F991F09
:1010B0005A95A9F780959095BC01CD010895F894B3
:0210C000FFCF60
:1010C2007265763A25640A00256420256420256429
:1010D2000D0A000100020004000800100020004078
:0C10E200008000706373313A25780A002A
:00000001FF
